{
  "_format": "hh-sol-artifact-1",
  "contractName": "NationalIdentity",
  "sourceName": "contracts/NationalIdentity.sol",
  "abi": [
    {
      "inputs": [],
      "stateMutability": "nonpayable",
      "type": "constructor"
    },
    {
      "inputs": [],
      "name": "AccessControlBadConfirmation",
      "type": "error"
    },
    {
      "inputs": [
        {
          "internalType": "address",
          "name": "account",
          "type": "address"
        },
        {
          "internalType": "bytes32",
          "name": "neededRole",
          "type": "bytes32"
        }
      ],
      "name": "AccessControlUnauthorizedAccount",
      "type": "error"
    },
    {
      "inputs": [],
      "name": "ECDSAInvalidSignature",
      "type": "error"
    },
    {
      "inputs": [
        {
          "internalType": "uint256",
          "name": "length",
          "type": "uint256"
        }
      ],
      "name": "ECDSAInvalidSignatureLength",
      "type": "error"
    },
    {
      "inputs": [
        {
          "internalType": "bytes32",
          "name": "s",
          "type": "bytes32"
        }
      ],
      "name": "ECDSAInvalidSignatureS",
      "type": "error"
    },
    {
      "inputs": [],
      "name": "EnforcedPause",
      "type": "error"
    },
    {
      "inputs": [],
      "name": "ExpectedPause",
      "type": "error"
    },
    {
      "inputs": [],
      "name": "ReentrancyGuardReentrantCall",
      "type": "error"
    },
    {
      "anonymous": false,
      "inputs": [
        {
          "indexed": true,
          "internalType": "address",
          "name": "citizen",
          "type": "address"
        },
        {
          "indexed": false,
          "internalType": "uint256",
          "name": "timestamp",
          "type": "uint256"
        }
      ],
      "name": "CitizenAutoApproved",
      "type": "event"
    },
    {
      "anonymous": false,
      "inputs": [
        {
          "indexed": true,
          "internalType": "address",
          "name": "citizen",
          "type": "address"
        },
        {
          "indexed": false,
          "internalType": "uint256",
          "name": "timestamp",
          "type": "uint256"
        }
      ],
      "name": "CitizenManualApproved",
      "type": "event"
    },
    {
      "anonymous": false,
      "inputs": [
        {
          "indexed": true,
          "internalType": "address",
          "name": "citizen",
          "type": "address"
        },
        {
          "indexed": false,
          "internalType": "uint256",
          "name": "timestamp",
          "type": "uint256"
        }
      ],
      "name": "CitizenManualRejected",
      "type": "event"
    },
    {
      "anonymous": false,
      "inputs": [
        {
          "indexed": true,
          "internalType": "address",
          "name": "citizen",
          "type": "address"
        },
        {
          "indexed": true,
          "internalType": "bytes32",
          "name": "faydaHash",
          "type": "bytes32"
        },
        {
          "indexed": false,
          "internalType": "enum NationalIdentity.TaxCategory",
          "name": "taxCategory",
          "type": "uint8"
        }
      ],
      "name": "CitizenRegistered",
      "type": "event"
    },
    {
      "anonymous": false,
      "inputs": [
        {
          "indexed": false,
          "internalType": "address",
          "name": "account",
          "type": "address"
        }
      ],
      "name": "Paused",
      "type": "event"
    },
    {
      "anonymous": false,
      "inputs": [
        {
          "indexed": true,
          "internalType": "bytes32",
          "name": "role",
          "type": "bytes32"
        },
        {
          "indexed": true,
          "internalType": "bytes32",
          "name": "previousAdminRole",
          "type": "bytes32"
        },
        {
          "indexed": true,
          "internalType": "bytes32",
          "name": "newAdminRole",
          "type": "bytes32"
        }
      ],
      "name": "RoleAdminChanged",
      "type": "event"
    },
    {
      "anonymous": false,
      "inputs": [
        {
          "indexed": true,
          "internalType": "bytes32",
          "name": "role",
          "type": "bytes32"
        },
        {
          "indexed": true,
          "internalType": "address",
          "name": "account",
          "type": "address"
        },
        {
          "indexed": true,
          "internalType": "address",
          "name": "sender",
          "type": "address"
        }
      ],
      "name": "RoleGranted",
      "type": "event"
    },
    {
      "anonymous": false,
      "inputs": [
        {
          "indexed": true,
          "internalType": "bytes32",
          "name": "role",
          "type": "bytes32"
        },
        {
          "indexed": true,
          "internalType": "address",
          "name": "account",
          "type": "address"
        },
        {
          "indexed": true,
          "internalType": "address",
          "name": "sender",
          "type": "address"
        }
      ],
      "name": "RoleRevoked",
      "type": "event"
    },
    {
      "anonymous": false,
      "inputs": [
        {
          "indexed": false,
          "internalType": "address",
          "name": "account",
          "type": "address"
        }
      ],
      "name": "Unpaused",
      "type": "event"
    },
    {
      "inputs": [],
      "name": "ADMIN_ROLE",
      "outputs": [
        {
          "internalType": "bytes32",
          "name": "",
          "type": "bytes32"
        }
      ],
      "stateMutability": "view",
      "type": "function"
    },
    {
      "inputs": [],
      "name": "DEFAULT_ADMIN_ROLE",
      "outputs": [
        {
          "internalType": "bytes32",
          "name": "",
          "type": "bytes32"
        }
      ],
      "stateMutability": "view",
      "type": "function"
    },
    {
      "inputs": [],
      "name": "EMPLOYER_ROLE",
      "outputs": [
        {
          "internalType": "bytes32",
          "name": "",
          "type": "bytes32"
        }
      ],
      "stateMutability": "view",
      "type": "function"
    },
    {
      "inputs": [],
      "name": "TAX_COLLECTOR_ROLE",
      "outputs": [
        {
          "internalType": "bytes32",
          "name": "",
          "type": "bytes32"
        }
      ],
      "stateMutability": "view",
      "type": "function"
    },
    {
      "inputs": [
        {
          "internalType": "address[]",
          "name": "citizenWallets",
          "type": "address[]"
        }
      ],
      "name": "batchManualApprove",
      "outputs": [],
      "stateMutability": "nonpayable",
      "type": "function"
    },
    {
      "inputs": [
        {
          "internalType": "address",
          "name": "citizen",
          "type": "address"
        }
      ],
      "name": "businessTypeOf",
      "outputs": [
        {
          "internalType": "enum NationalIdentity.BusinessType",
          "name": "",
          "type": "uint8"
        }
      ],
      "stateMutability": "view",
      "type": "function"
    },
    {
      "inputs": [],
      "name": "faydaAttester",
      "outputs": [
        {
          "internalType": "address",
          "name": "",
          "type": "address"
        }
      ],
      "stateMutability": "view",
      "type": "function"
    },
    {
      "inputs": [],
      "name": "getAllCitizens",
      "outputs": [
        {
          "internalType": "address[]",
          "name": "",
          "type": "address[]"
        }
      ],
      "stateMutability": "view",
      "type": "function"
    },
    {
      "inputs": [
        {
          "internalType": "address",
          "name": "citizen",
          "type": "address"
        }
      ],
      "name": "getCitizenAdmin",
      "outputs": [
        {
          "internalType": "string",
          "name": "fullName",
          "type": "string"
        },
        {
          "internalType": "bytes32",
          "name": "faydaHash",
          "type": "bytes32"
        },
        {
          "internalType": "enum NationalIdentity.TaxCategory",
          "name": "taxCategory",
          "type": "uint8"
        },
        {
          "internalType": "uint8",
          "name": "age",
          "type": "uint8"
        },
        {
          "internalType": "bool",
          "name": "isFaydaVerified",
          "type": "bool"
        },
        {
          "internalType": "bool",
          "name": "isOnSanctionsList",
          "type": "bool"
        },
        {
          "internalType": "bool",
          "name": "isAutoApproved",
          "type": "bool"
        },
        {
          "internalType": "bool",
          "name": "needsManualReview",
          "type": "bool"
        },
        {
          "internalType": "uint256",
          "name": "approvalTimestamp",
          "type": "uint256"
        },
        {
          "internalType": "uint256",
          "name": "registrationTime",
          "type": "uint256"
        }
      ],
      "stateMutability": "view",
      "type": "function"
    },
    {
      "inputs": [
        {
          "internalType": "address",
          "name": "citizen",
          "type": "address"
        }
      ],
      "name": "getCitizenPublic",
      "outputs": [
        {
          "internalType": "enum NationalIdentity.TaxCategory",
          "name": "taxCategory",
          "type": "uint8"
        },
        {
          "internalType": "bool",
          "name": "isFaydaVerified",
          "type": "bool"
        },
        {
          "internalType": "bool",
          "name": "isAutoApproved",
          "type": "bool"
        },
        {
          "internalType": "bool",
          "name": "needsManualReview",
          "type": "bool"
        },
        {
          "internalType": "uint256",
          "name": "approvalTimestamp",
          "type": "uint256"
        },
        {
          "internalType": "uint256",
          "name": "registrationTime",
          "type": "uint256"
        }
      ],
      "stateMutability": "view",
      "type": "function"
    },
    {
      "inputs": [
        {
          "internalType": "bytes32",
          "name": "role",
          "type": "bytes32"
        }
      ],
      "name": "getRoleAdmin",
      "outputs": [
        {
          "internalType": "bytes32",
          "name": "",
          "type": "bytes32"
        }
      ],
      "stateMutability": "view",
      "type": "function"
    },
    {
      "inputs": [],
      "name": "getTotalCitizens",
      "outputs": [
        {
          "internalType": "uint256",
          "name": "",
          "type": "uint256"
        }
      ],
      "stateMutability": "view",
      "type": "function"
    },
    {
      "inputs": [
        {
          "internalType": "bytes32",
          "name": "role",
          "type": "bytes32"
        },
        {
          "internalType": "address",
          "name": "account",
          "type": "address"
        }
      ],
      "name": "grantRole",
      "outputs": [],
      "stateMutability": "nonpayable",
      "type": "function"
    },
    {
      "inputs": [
        {
          "internalType": "bytes32",
          "name": "role",
          "type": "bytes32"
        },
        {
          "internalType": "address",
          "name": "account",
          "type": "address"
        }
      ],
      "name": "hasRole",
      "outputs": [
        {
          "internalType": "bool",
          "name": "",
          "type": "bool"
        }
      ],
      "stateMutability": "view",
      "type": "function"
    },
    {
      "inputs": [
        {
          "internalType": "address",
          "name": "citizen",
          "type": "address"
        }
      ],
      "name": "isAutoApprovedCitizen",
      "outputs": [
        {
          "internalType": "bool",
          "name": "",
          "type": "bool"
        }
      ],
      "stateMutability": "view",
      "type": "function"
    },
    {
      "inputs": [
        {
          "internalType": "address",
          "name": "citizen",
          "type": "address"
        }
      ],
      "name": "linkedBankAccountOf",
      "outputs": [
        {
          "internalType": "address",
          "name": "",
          "type": "address"
        }
      ],
      "stateMutability": "view",
      "type": "function"
    },
    {
      "inputs": [
        {
          "internalType": "address",
          "name": "citizen",
          "type": "address"
        }
      ],
      "name": "locationOf",
      "outputs": [
        {
          "internalType": "enum NationalIdentity.Location",
          "name": "",
          "type": "uint8"
        }
      ],
      "stateMutability": "view",
      "type": "function"
    },
    {
      "inputs": [
        {
          "internalType": "address",
          "name": "citizen",
          "type": "address"
        }
      ],
      "name": "manualApprove",
      "outputs": [],
      "stateMutability": "nonpayable",
      "type": "function"
    },
    {
      "inputs": [
        {
          "internalType": "address",
          "name": "citizen",
          "type": "address"
        }
      ],
      "name": "manualReject",
      "outputs": [],
      "stateMutability": "nonpayable",
      "type": "function"
    },
    {
      "inputs": [],
      "name": "pause",
      "outputs": [],
      "stateMutability": "nonpayable",
      "type": "function"
    },
    {
      "inputs": [],
      "name": "paused",
      "outputs": [
        {
          "internalType": "bool",
          "name": "",
          "type": "bool"
        }
      ],
      "stateMutability": "view",
      "type": "function"
    },
    {
      "inputs": [
        {
          "internalType": "bytes32",
          "name": "attestationId",
          "type": "bytes32"
        },
        {
          "internalType": "string",
          "name": "_fullName",
          "type": "string"
        },
        {
          "internalType": "bytes32",
          "name": "_faydaHash",
          "type": "bytes32"
        },
        {
          "internalType": "uint8",
          "name": "_age",
          "type": "uint8"
        },
        {
          "internalType": "bool",
          "name": "_faydaVerified",
          "type": "bool"
        },
        {
          "internalType": "bool",
          "name": "_onSanctionsList",
          "type": "bool"
        },
        {
          "internalType": "enum NationalIdentity.TaxCategory",
          "name": "_taxCategory",
          "type": "uint8"
        },
        {
          "internalType": "enum NationalIdentity.BusinessType",
          "name": "_businessType",
          "type": "uint8"
        },
        {
          "internalType": "enum NationalIdentity.Location",
          "name": "_area",
          "type": "uint8"
        },
        {
          "internalType": "address",
          "name": "_linkedBankAccount",
          "type": "address"
        },
        {
          "internalType": "bytes",
          "name": "signature",
          "type": "bytes"
        }
      ],
      "name": "registerAndAutoApprove",
      "outputs": [],
      "stateMutability": "nonpayable",
      "type": "function"
    },
    {
      "inputs": [
        {
          "internalType": "bytes32",
          "name": "role",
          "type": "bytes32"
        },
        {
          "internalType": "address",
          "name": "callerConfirmation",
          "type": "address"
        }
      ],
      "name": "renounceRole",
      "outputs": [],
      "stateMutability": "nonpayable",
      "type": "function"
    },
    {
      "inputs": [
        {
          "internalType": "bytes32",
          "name": "faydaHash",
          "type": "bytes32"
        }
      ],
      "name": "resolveWalletFromFaydaHash",
      "outputs": [
        {
          "internalType": "address",
          "name": "",
          "type": "address"
        }
      ],
      "stateMutability": "view",
      "type": "function"
    },
    {
      "inputs": [
        {
          "internalType": "uint256",
          "name": "faydaNumber",
          "type": "uint256"
        }
      ],
      "name": "resolveWalletFromFaydaNumber",
      "outputs": [
        {
          "internalType": "address",
          "name": "",
          "type": "address"
        }
      ],
      "stateMutability": "view",
      "type": "function"
    },
    {
      "inputs": [
        {
          "internalType": "bytes32",
          "name": "role",
          "type": "bytes32"
        },
        {
          "internalType": "address",
          "name": "account",
          "type": "address"
        }
      ],
      "name": "revokeRole",
      "outputs": [],
      "stateMutability": "nonpayable",
      "type": "function"
    },
    {
      "inputs": [
        {
          "internalType": "address",
          "name": "signer",
          "type": "address"
        }
      ],
      "name": "setFaydaAttester",
      "outputs": [],
      "stateMutability": "nonpayable",
      "type": "function"
    },
    {
      "inputs": [
        {
          "internalType": "bytes4",
          "name": "interfaceId",
          "type": "bytes4"
        }
      ],
      "name": "supportsInterface",
      "outputs": [
        {
          "internalType": "bool",
          "name": "",
          "type": "bool"
        }
      ],
      "stateMutability": "view",
      "type": "function"
    },
    {
      "inputs": [
        {
          "internalType": "address",
          "name": "citizen",
          "type": "address"
        }
      ],
      "name": "taxCategoryOf",
      "outputs": [
        {
          "internalType": "enum NationalIdentity.TaxCategory",
          "name": "",
          "type": "uint8"
        }
      ],
      "stateMutability": "view",
      "type": "function"
    },
    {
      "inputs": [],
      "name": "unpause",
      "outputs": [],
      "stateMutability": "nonpayable",
      "type": "function"
    }
  ],
  "bytecode": "0x6080604052346100645760017f9b779b17422d0df92223018b32b4d1fa46e071723d6817e2486d003becc55f005561003633610068565b50610040336100de565b5061004a33610171565b5061005433610204565b50604051611c0790816102988239f35b5f80fd5b6001600160a01b0381165f9081525f516020611f1f5f395f51905f52602052604090205460ff166100d9576001600160a01b03165f8181525f516020611f1f5f395f51905f5260205260408120805460ff191660011790553391905f516020611e9f5f395f51905f528180a4600190565b505f90565b6001600160a01b0381165f9081525f516020611ebf5f395f51905f52602052604090205460ff166100d9576001600160a01b03165f8181525f516020611ebf5f395f51905f5260205260408120805460ff191660011790553391907fa49807205ce4d355092ef5a8a18f56e8913cf4a201fbe287825b095693c21775905f516020611e9f5f395f51905f529080a4600190565b6001600160a01b0381165f9081525f516020611eff5f395f51905f52602052604090205460ff166100d9576001600160a01b03165f8181525f516020611eff5f395f51905f5260205260408120805460ff191660011790553391907ffc7c36207174f786648d2e624616a4b40e15fd7f0268b4e36af5057f0c43c835905f516020611e9f5f395f51905f529080a4600190565b6001600160a01b0381165f9081525f516020611edf5f395f51905f52602052604090205460ff166100d9576001600160a01b03165f8181525f516020611edf5f395f51905f5260205260408120805460ff191660011790553391907f7cb8da4815c5c7bfec597d7479bf1f02def0b6d0f50cd2ad5eb80c69ac5c1a1b905f516020611e9f5f395f51905f529080a460019056fe6080806040526004361015610012575f80fd5b5f3560e01c90816301ffc9a71461165d575080630f04912a1461160757806310e381c3146115db5780631e4c9358146115be5780632426bb3814611584578063248a9ca3146115525780632b43e332146112f55780632f2ff15d146112b857806336568abe146112745780633f4ba83a1461120e5780635138ea6a146111c45780635c975abb146111a25780635f87b2af146111685780636c0e1ccd1461109857806375b238fc1461105e5780637cbc764c14610f5c5780638456cb5914610f045780638ed64d4114610ec157806391d1485414610e79578063a217fddf14610e5f578063bb82542d14610e17578063cc7b724514610d3f578063d547741f14610cfb578063d5baa3ac14610cb4578063d8c6b3d914610c6a578063e34e3faa14610ba6578063ee93558e1461098d578063f672d4c014610953578063f9bd4269146101b05763fb6fe34214610166575f80fd5b346101ac5760203660031901126101ac576001600160a01b036101876116b0565b165f526002602052602060018060a01b03600260405f20015460181c16604051908152f35b5f80fd5b346101ac576101603660031901126101ac5760243567ffffffffffffffff81116101ac576101e29036906004016116e6565b60ff60643516606435036101ac576084359081151582036101ac5760a4359081151582036101ac57600460c43510156101ac57600660e43510156101ac57600d6101043510156101ac5761012435906001600160a01b03821682036101ac576101443567ffffffffffffffff81116101ac576102629036906004016116e6565b60027f9b779b17422d0df92223018b32b4d1fa46e071723d6817e2486d003becc55f0054146109445760027f9b779b17422d0df92223018b32b4d1fa46e071723d6817e2486d003becc55f00556102b76119e9565b60015460081c6001600160a01b03169182156108ff5783156108ca57335f526002602052600360405f200154610890576044355f908152600360205260409020546001600160a01b031661084b576004355f52600560205260ff60405f2054166108065761032660c4356116dc565b6040516004356020820152336040820152604435606082015260ff60643516608082015287151560a082015286151560c082015260ff60c4351660e082015260ff60e4351661010082015260ff610104351661012082015260018060a01b038616610140820152610140815261039e61016082611731565b602081519101207f19457468657265756d205369676e6564204d6573736167653a0a3332000000005f52601c52603c5f2067ffffffffffffffff831161067d57604051906103f6601f8501601f191660200183611731565b83825236848401116101ac575f6020856104249661041b968387013784010152611a8e565b90929192611ac8565b6001600160a01b0316036107c1576004355f52600560205260405f20600160ff19825416179055335f52600260205260405f209467ffffffffffffffff821161067d5781906104738754611753565b601f8111610771575b505f90601f831160011461070a575f926106ff575b50508160011b915f199060031b1c19161784555b604435600185015560028401916104bd60c4356116dc565b825484151560c01b60ff60c01b1660643560b81b60ff60b81b166001600160d01b031990921660c43560ff161760e43560081b61ff0016176101043560101b62ff00001617601885901b6301000000600160b81b031617919091171781151560c81b60ff60c81b16178355426003860181905560048601556006850180546001600160a01b03191633179055836106ee575b836106e5575b50826106c9575b50805461ffff60d01b19168215801560d01b60ff60d01b169190911760d89190911b60ff60d81b16179055610691575b506044355f90815260036020526040902080546001600160a01b031916331790556004546801000000000000000081101561067d5760018101806004558110156106695760045f527f8a35acfbc15ff81a39ae7d344fd709f28e8600b4aa8c65c6b64bfe7fe36bd19b0180546001600160a01b0319163317905560405161061460c4356116dc565b60c4358152604435907fdc1039b78200adc65f805a73a188310f57d38537fda3f530515310163a57e9b760203392a360017f9b779b17422d0df92223018b32b4d1fa46e071723d6817e2486d003becc55f0055005b634e487b7160e01b5f52603260045260245ffd5b634e487b7160e01b5f52604160045260245ffd5b6005429101556040514281527f7dc2f6e343e2cbc3059024808b49f5b4a3336d1e87c5d1c4aa999a71d10585af60203392a28061058c565b6106de9192506101043560e43560c435611a04565b908361055c565b15925084610555565b601260643560ff161015935061054f565b013590508680610491565b909150601f19831691875f5260205f20925f5b8181106107595750908460019594939210610740575b505050811b0184556104a5565b01355f19600384901b60f8161c19169055868080610733565b9193602060018192878701358155019501920161071d565b909150865f5260205f20601f840160051c810191602085106107b7575b90601f859493920160051c01905b8181106107a9575061047c565b5f815584935060010161079c565b909150819061078e565b60405162461bcd60e51b815260206004820152601d60248201527f496e76616c6964206174746573746174696f6e207369676e61747572650000006044820152606490fd5b60405162461bcd60e51b815260206004820152601860248201527f4174746573746174696f6e20616c7265616479207573656400000000000000006044820152606490fd5b60405162461bcd60e51b815260206004820152601b60248201527f466179646120494420616c7265616479207265676973746572656400000000006044820152606490fd5b60405162461bcd60e51b8152602060048201526012602482015271105b1c9958591e481c9959da5cdd195c995960721b6044820152606490fd5b60405162461bcd60e51b815260206004820152600d60248201526c13985b59481c995c5d5a5c9959609a1b6044820152606490fd5b60405162461bcd60e51b815260206004820152601d60248201527f4661796461206174746573746572206e6f7420636f6e666967757265640000006044820152606490fd5b633ee5aeb560e01b5f5260045ffd5b346101ac575f3660031901126101ac5760206040517f7cb8da4815c5c7bfec597d7479bf1f02def0b6d0f50cd2ad5eb80c69ac5c1a1b8152f35b346101ac5760203660031901126101ac576001600160a01b036109ae6116b0565b165f52600260205260405f206040516109c681611714565b6040518254815f6109d683611753565b8083529260018116908115610b875750600114610b46575b6109fa92500382611731565b815260018201546020820152600282015490604081019060ff8316610a1e816116dc565b825260ff8360081c166006811015610b3257606082015260ff8360101c1693600d851015610b325760c094608083015260018060a01b038460181c1660a083015260ff8460b81c168583015260e082019360ff81871c161515855260ff8160c81c16151561010084015261012083019360ff8260d01c161515855260ff61014085019260d81c1615158252610aed600384015461016086019581875260048601546101808201526101c06005870154966101a08301978852600660018060a01b0391015416910152151561178b565b5194610af8866116dc565b5115159351151590511515915192519360405195610b15816116dc565b8652602086015260408501526060840152608083015260a0820152f35b634e487b7160e01b5f52602160045260245ffd5b5090845f5260205f20905f915b818310610b6b5750509060206109fa928201016109ee565b6020919350806001915483858801015201910190918392610b53565b602092506109fa94915060ff191682840152151560051b8201016109ee565b346101ac5760203660031901126101ac57610bbf6116b0565b610bc761183a565b60018060a01b0316805f526002602052600260405f20610bec6003820154151561178b565b01805460ff8160d01c16610c325761ffff60d01b191690556040514281527f706880f42df1094db2c4679bae3c7a935123950002744abaf334ae0adec79e2a90602090a2005b60405162461bcd60e51b815260206004820152601060248201526f105b1c9958591e48185c1c1c9bdd995960821b6044820152606490fd5b346101ac5760203660031901126101ac576001600160a01b03610c8b6116b0565b165f52600260205260ff600260405f20015460081c166040516006821015610b32576020918152f35b346101ac5760203660031901126101ac576001600160a01b03610cd56116b0565b165f526002602052602060ff600260405f2001541660405190610cf7816116dc565b8152f35b346101ac5760403660031901126101ac57610d3d600435610d1a6116c6565b90610d38610d33825f525f602052600160405f20015490565b6118a9565b611969565b005b346101ac5760203660031901126101ac57610d586116b0565b610d6061183a565b6001600160a01b03165f8181526002602052604090206003810154610d8690151561178b565b60028101805460ff8160d01c16610dda57600160d01b9061ffff60d01b19161790556005429101557fbb8087caf5b27589907554bd427e789ca04e83a1276b76e723aacf558ae942126020604051428152a2005b60405162461bcd60e51b8152602060048201526015602482015274105b1c9958591e48185d5d1bcb585c1c1c9bdd9959605a1b6044820152606490fd5b346101ac5760203660031901126101ac57610e306116b0565b610e3861183a565b60018054610100600160a81b03191660089290921b610100600160a81b0316919091179055005b346101ac575f3660031901126101ac5760206040515f8152f35b346101ac5760403660031901126101ac57610e926116c6565b6004355f525f60205260405f209060018060a01b03165f52602052602060ff60405f2054166040519015158152f35b346101ac5760203660031901126101ac576001600160a01b03610ee26116b0565b165f526002602052602060ff600260405f20015460d01c166040519015158152f35b346101ac575f3660031901126101ac57610f1c61183a565b610f246119e9565b600160ff19815416176001557f62e78cea01bee320cd4e420270b5ea74000d11b0c9f74754ebdbfc544b05a2586020604051338152a1005b346101ac5760203660031901126101ac5760043567ffffffffffffffff81116101ac57366023820112156101ac5780600401359067ffffffffffffffff82116101ac573660248360051b830101116101ac57610fb661183a565b5f5b82811015610d3d576024600582901b830101356001600160a01b03811691908290036101ac57610fe661183a565b815f52600260205260405f20916110026003840154151561178b565b600283019283549360ff8560d01c16610dda576001948560d01b9061ffff60d01b19161790556005429101557fbb8087caf5b27589907554bd427e789ca04e83a1276b76e723aacf558ae942126020604051428152a201610fb8565b346101ac575f3660031901126101ac5760206040517fa49807205ce4d355092ef5a8a18f56e8913cf4a201fbe287825b095693c217758152f35b346101ac575f3660031901126101ac576110b061183a565b6040518060206004549283815201809260045f527f8a35acfbc15ff81a39ae7d344fd709f28e8600b4aa8c65c6b64bfe7fe36bd19b905f5b81811061114957505050816110fe910382611731565b604051918291602083019060208452518091526040830191905f5b818110611127575050500390f35b82516001600160a01b0316845285945060209384019390920191600101611119565b82546001600160a01b03168452602090930192600192830192016110e8565b346101ac5760203660031901126101ac576111816117cb565b6004355f526003602052602060018060a01b0360405f205416604051908152f35b346101ac575f3660031901126101ac57602060ff600154166040519015158152f35b346101ac5760203660031901126101ac576001600160a01b036111e56116b0565b165f52600260205260ff600260405f20015460101c16604051600d821015610b32576020918152f35b346101ac575f3660031901126101ac5761122661183a565b60015460ff8116156112655760ff19166001557f5db9ee0a495bf2e6ff9c91a7834c1ba4fdd244a5e8aa4e537bd38aeae4b073aa6020604051338152a1005b638dfc202b60e01b5f5260045ffd5b346101ac5760403660031901126101ac5761128d6116c6565b336001600160a01b038216036112a957610d3d90600435611969565b63334bd91960e11b5f5260045ffd5b346101ac5760403660031901126101ac57610d3d6004356112d76116c6565b906112f0610d33825f525f602052600160405f20015490565b6118e1565b346101ac5760203660031901126101ac5761130e6116b0565b61131661183a565b60018060a01b03165f52600260205260405f2060405161133581611714565b6040518254815f61134583611753565b808352926001811690811561153357506001146114f2575b61136992500382611731565b81526001820154602082019081526002830154916040810160ff841661138e816116dc565b815260ff8460081c166006811015610b3257606083015260ff8460101c1691600d831015610b32576020956101609561014094608084015260018060a01b038160181c1660a084015260c0830160ff8260b81c16815260e0840160ff8360c01c161515815261010085019060ff8460c81c161515825261012086019260ff8560d01c161515845260ff8988019560d81c161515855260ff6003870154976114688d820199808b5260048a015461018084015260058a0154996101a084019a8b52600660018060a01b03910154166101c0840152151561178b565b519a51985191611477836116dc565b5116915115159251151593511515945115159551965197604051809d819c8c83528051809d81940152018d8d015e5f8c8b8d01015260208b01526114ba816116dc565b60408a01526060890152608088015260a087015260c086015260e0850152610100840152610120830152601f01601f19168101030190f35b5090845f5260205f20905f915b8183106115175750509060206113699282010161135d565b60209193508060019154838588010152019101909183926114ff565b6020925061136994915060ff191682840152151560051b82010161135d565b346101ac5760203660031901126101ac57602061157c6004355f525f602052600160405f20015490565b604051908152f35b346101ac575f3660031901126101ac5760206040517ffc7c36207174f786648d2e624616a4b40e15fd7f0268b4e36af5057f0c43c8358152f35b346101ac575f3660031901126101ac576020600454604051908152f35b346101ac575f3660031901126101ac5760015460405160089190911c6001600160a01b03168152602090f35b346101ac5760203660031901126101ac576116206117cb565b604051602081019060043582526020815261163c604082611731565b5190205f526003602052602060018060a01b0360405f205416604051908152f35b346101ac5760203660031901126101ac576004359063ffffffff60e01b82168092036101ac57602091637965db0b60e01b811490811561169f575b5015158152f35b6301ffc9a760e01b14905083611698565b600435906001600160a01b03821682036101ac57565b602435906001600160a01b03821682036101ac57565b60041115610b3257565b9181601f840112156101ac5782359167ffffffffffffffff83116101ac57602083818601950101116101ac57565b6101e0810190811067ffffffffffffffff82111761067d57604052565b90601f8019910116810190811067ffffffffffffffff82111761067d57604052565b90600182811c92168015611781575b602083101461176d57565b634e487b7160e01b5f52602260045260245ffd5b91607f1691611762565b1561179257565b60405162461bcd60e51b815260206004820152601160248201527010da5d1a5e995b881b9bdd08199bdd5b99607a1b6044820152606490fd5b335f9081527fd580a88be50b12ba2b1290af9bfe1c5ed9efc6313473cf5cb0f79f979d4e54fe602052604090205460ff161561180357565b63e2517d3f60e01b5f52336004527f7cb8da4815c5c7bfec597d7479bf1f02def0b6d0f50cd2ad5eb80c69ac5c1a1b60245260445ffd5b335f9081527f7d7ffb7a348e1c6a02869081a26547b49160dd3df72d1d75a570eb9b698292ec602052604090205460ff161561187257565b63e2517d3f60e01b5f52336004527fa49807205ce4d355092ef5a8a18f56e8913cf4a201fbe287825b095693c2177560245260445ffd5b5f8181526020818152604080832033845290915290205460ff16156118cb5750565b63e2517d3f60e01b5f523360045260245260445ffd5b5f818152602081815260408083206001600160a01b038616845290915290205460ff16611963575f818152602081815260408083206001600160a01b0395909516808452949091528120805460ff19166001179055339291907f2f8788117e7eff1d82e926ec794901d17c78024a50270940304540a733656f0d9080a4600190565b50505f90565b5f818152602081815260408083206001600160a01b038616845290915290205460ff1615611963575f818152602081815260408083206001600160a01b0395909516808452949091528120805460ff19169055339291907ff6391f5c32d9c69d2a47ea670b442974b53935d1edc7fd64eb21e047a839171b9080a4600190565b60ff600154166119f557565b63d93c066560e01b5f5260045ffd5b91611a0e836116dc565b60028314611a615750611a20826116dc565b60038214611a4e5750600190611a35816116dc565b14611a405750600190565b6001600160a01b0316151590565b9150506006811015610b32576005101590565b925090506006811015610b3257600510159081611a7c575090565b9050600d811015610b3257600c101590565b8151919060418303611abe57611ab79250602082015190606060408401519301515f1a90611b44565b9192909190565b50505f9160029190565b611ad1816116dc565b80611ada575050565b611ae3816116dc565b60018103611afa5763f645eedf60e01b5f5260045ffd5b611b03816116dc565b60028103611b1e575063fce698f760e01b5f5260045260245ffd5b600390611b2a816116dc565b14611b325750565b6335e2f38360e21b5f5260045260245ffd5b91907f7fffffffffffffffffffffffffffffff5d576e7357a4501ddfe92f46681b20a08411611bc6579160209360809260ff5f9560405194855216868401526040830152606082015282805260015afa15611bbb575f516001600160a01b03811615611bb157905f905f90565b505f906001905f90565b6040513d5f823e3d90fd5b5050505f916003919056fea26469706673582212203a81579b8359abe34fe1c4e0cc21e91e8eef63023f4a4c68ce6fae1e80e2d10c64736f6c634300081c00332f8788117e7eff1d82e926ec794901d17c78024a50270940304540a733656f0d7d7ffb7a348e1c6a02869081a26547b49160dd3df72d1d75a570eb9b698292ecd580a88be50b12ba2b1290af9bfe1c5ed9efc6313473cf5cb0f79f979d4e54fe9750accf27f3aaa2ee9af8a0d75778e5f1905b9db8fe4b539d9e6ecc553b7f74ad3228b676f7d3cd4284a5443f17f1962b36e491b30a40b2405849e597ba5fb5",
  "linkReferences": {},
  "deployedLinkReferences": {}
}