{
  "_format": "hh-sol-artifact-1",
  "contractName": "NationalIdentity",
  "sourceName": "contracts/NationalIdentity.sol",
  "abi": [
    {
      "inputs": [],
      "stateMutability": "nonpayable",
      "type": "constructor"
    },
    {
      "inputs": [],
      "name": "AccessControlBadConfirmation",
      "type": "error"
    },
    {
      "inputs": [
        {
          "internalType": "address",
          "name": "account",
          "type": "address"
        },
        {
          "internalType": "bytes32",
          "name": "neededRole",
          "type": "bytes32"
        }
      ],
      "name": "AccessControlUnauthorizedAccount",
      "type": "error"
    },
    {
      "inputs": [],
      "name": "EnforcedPause",
      "type": "error"
    },
    {
      "inputs": [],
      "name": "ExpectedPause",
      "type": "error"
    },
    {
      "inputs": [],
      "name": "ReentrancyGuardReentrantCall",
      "type": "error"
    },
    {
      "anonymous": false,
      "inputs": [
        {
          "indexed": true,
          "internalType": "address",
          "name": "citizen",
          "type": "address"
        },
        {
          "indexed": true,
          "internalType": "address",
          "name": "verifier",
          "type": "address"
        }
      ],
      "name": "AdminVerified",
      "type": "event"
    },
    {
      "anonymous": false,
      "inputs": [
        {
          "indexed": true,
          "internalType": "address",
          "name": "citizen",
          "type": "address"
        },
        {
          "indexed": false,
          "internalType": "string",
          "name": "fullName",
          "type": "string"
        },
        {
          "indexed": false,
          "internalType": "bytes32",
          "name": "faydaHash",
          "type": "bytes32"
        }
      ],
      "name": "CitizenRegistered",
      "type": "event"
    },
    {
      "anonymous": false,
      "inputs": [
        {
          "indexed": true,
          "internalType": "address",
          "name": "citizen",
          "type": "address"
        }
      ],
      "name": "CitizenUpdated",
      "type": "event"
    },
    {
      "anonymous": false,
      "inputs": [
        {
          "indexed": true,
          "internalType": "address",
          "name": "citizen",
          "type": "address"
        },
        {
          "indexed": false,
          "internalType": "uint256",
          "name": "timestamp",
          "type": "uint256"
        }
      ],
      "name": "FaydaVerified",
      "type": "event"
    },
    {
      "anonymous": false,
      "inputs": [
        {
          "indexed": false,
          "internalType": "address",
          "name": "account",
          "type": "address"
        }
      ],
      "name": "Paused",
      "type": "event"
    },
    {
      "anonymous": false,
      "inputs": [
        {
          "indexed": true,
          "internalType": "bytes32",
          "name": "role",
          "type": "bytes32"
        },
        {
          "indexed": true,
          "internalType": "bytes32",
          "name": "previousAdminRole",
          "type": "bytes32"
        },
        {
          "indexed": true,
          "internalType": "bytes32",
          "name": "newAdminRole",
          "type": "bytes32"
        }
      ],
      "name": "RoleAdminChanged",
      "type": "event"
    },
    {
      "anonymous": false,
      "inputs": [
        {
          "indexed": true,
          "internalType": "bytes32",
          "name": "role",
          "type": "bytes32"
        },
        {
          "indexed": true,
          "internalType": "address",
          "name": "account",
          "type": "address"
        },
        {
          "indexed": true,
          "internalType": "address",
          "name": "sender",
          "type": "address"
        }
      ],
      "name": "RoleGranted",
      "type": "event"
    },
    {
      "anonymous": false,
      "inputs": [
        {
          "indexed": true,
          "internalType": "bytes32",
          "name": "role",
          "type": "bytes32"
        },
        {
          "indexed": true,
          "internalType": "address",
          "name": "account",
          "type": "address"
        },
        {
          "indexed": true,
          "internalType": "address",
          "name": "sender",
          "type": "address"
        }
      ],
      "name": "RoleRevoked",
      "type": "event"
    },
    {
      "anonymous": false,
      "inputs": [
        {
          "indexed": false,
          "internalType": "address",
          "name": "account",
          "type": "address"
        }
      ],
      "name": "Unpaused",
      "type": "event"
    },
    {
      "inputs": [],
      "name": "ADMIN_ROLE",
      "outputs": [
        {
          "internalType": "bytes32",
          "name": "",
          "type": "bytes32"
        }
      ],
      "stateMutability": "view",
      "type": "function"
    },
    {
      "inputs": [],
      "name": "DEFAULT_ADMIN_ROLE",
      "outputs": [
        {
          "internalType": "bytes32",
          "name": "",
          "type": "bytes32"
        }
      ],
      "stateMutability": "view",
      "type": "function"
    },
    {
      "inputs": [],
      "name": "EMPLOYER_ROLE",
      "outputs": [
        {
          "internalType": "bytes32",
          "name": "",
          "type": "bytes32"
        }
      ],
      "stateMutability": "view",
      "type": "function"
    },
    {
      "inputs": [],
      "name": "FAYDA_VERIFIER_ROLE",
      "outputs": [
        {
          "internalType": "bytes32",
          "name": "",
          "type": "bytes32"
        }
      ],
      "stateMutability": "view",
      "type": "function"
    },
    {
      "inputs": [],
      "name": "VERIFIER_ROLE",
      "outputs": [
        {
          "internalType": "bytes32",
          "name": "",
          "type": "bytes32"
        }
      ],
      "stateMutability": "view",
      "type": "function"
    },
    {
      "inputs": [
        {
          "internalType": "address",
          "name": "",
          "type": "address"
        }
      ],
      "name": "citizens",
      "outputs": [
        {
          "internalType": "string",
          "name": "fullName",
          "type": "string"
        },
        {
          "internalType": "bytes32",
          "name": "faydaHash",
          "type": "bytes32"
        },
        {
          "internalType": "bool",
          "name": "isFaydaVerified",
          "type": "bool"
        },
        {
          "internalType": "bool",
          "name": "isVerifiedByAdmin",
          "type": "bool"
        },
        {
          "internalType": "uint256",
          "name": "registrationTime",
          "type": "uint256"
        },
        {
          "internalType": "uint256",
          "name": "lastFaydaVerification",
          "type": "uint256"
        },
        {
          "internalType": "address",
          "name": "registeredBy",
          "type": "address"
        }
      ],
      "stateMutability": "view",
      "type": "function"
    },
    {
      "inputs": [
        {
          "internalType": "bytes32",
          "name": "",
          "type": "bytes32"
        }
      ],
      "name": "faydaHashToAddress",
      "outputs": [
        {
          "internalType": "address",
          "name": "",
          "type": "address"
        }
      ],
      "stateMutability": "view",
      "type": "function"
    },
    {
      "inputs": [],
      "name": "getAllCitizens",
      "outputs": [
        {
          "internalType": "address[]",
          "name": "",
          "type": "address[]"
        }
      ],
      "stateMutability": "view",
      "type": "function"
    },
    {
      "inputs": [
        {
          "internalType": "address",
          "name": "_citizen",
          "type": "address"
        }
      ],
      "name": "getCitizen",
      "outputs": [
        {
          "internalType": "string",
          "name": "fullName",
          "type": "string"
        },
        {
          "internalType": "bytes32",
          "name": "faydaHash",
          "type": "bytes32"
        },
        {
          "internalType": "bool",
          "name": "isFaydaVerified",
          "type": "bool"
        },
        {
          "internalType": "bool",
          "name": "isVerifiedByAdmin",
          "type": "bool"
        },
        {
          "internalType": "uint256",
          "name": "registrationTime",
          "type": "uint256"
        },
        {
          "internalType": "uint256",
          "name": "lastFaydaVerification",
          "type": "uint256"
        }
      ],
      "stateMutability": "view",
      "type": "function"
    },
    {
      "inputs": [],
      "name": "getFaydaStats",
      "outputs": [
        {
          "internalType": "uint256",
          "name": "totalRegistered",
          "type": "uint256"
        },
        {
          "internalType": "uint256",
          "name": "faydaVerified",
          "type": "uint256"
        },
        {
          "internalType": "uint256",
          "name": "adminVerified",
          "type": "uint256"
        }
      ],
      "stateMutability": "view",
      "type": "function"
    },
    {
      "inputs": [
        {
          "internalType": "bytes32",
          "name": "role",
          "type": "bytes32"
        }
      ],
      "name": "getRoleAdmin",
      "outputs": [
        {
          "internalType": "bytes32",
          "name": "",
          "type": "bytes32"
        }
      ],
      "stateMutability": "view",
      "type": "function"
    },
    {
      "inputs": [],
      "name": "getTotalCitizens",
      "outputs": [
        {
          "internalType": "uint256",
          "name": "",
          "type": "uint256"
        }
      ],
      "stateMutability": "view",
      "type": "function"
    },
    {
      "inputs": [
        {
          "internalType": "bytes32",
          "name": "role",
          "type": "bytes32"
        },
        {
          "internalType": "address",
          "name": "account",
          "type": "address"
        }
      ],
      "name": "grantRole",
      "outputs": [],
      "stateMutability": "nonpayable",
      "type": "function"
    },
    {
      "inputs": [
        {
          "internalType": "bytes32",
          "name": "role",
          "type": "bytes32"
        },
        {
          "internalType": "address",
          "name": "account",
          "type": "address"
        }
      ],
      "name": "hasRole",
      "outputs": [
        {
          "internalType": "bool",
          "name": "",
          "type": "bool"
        }
      ],
      "stateMutability": "view",
      "type": "function"
    },
    {
      "inputs": [
        {
          "internalType": "address",
          "name": "_citizen",
          "type": "address"
        }
      ],
      "name": "isCitizenVerified",
      "outputs": [
        {
          "internalType": "bool",
          "name": "",
          "type": "bool"
        }
      ],
      "stateMutability": "view",
      "type": "function"
    },
    {
      "inputs": [
        {
          "internalType": "address",
          "name": "_citizen",
          "type": "address"
        }
      ],
      "name": "isVerified",
      "outputs": [
        {
          "internalType": "bool",
          "name": "",
          "type": "bool"
        }
      ],
      "stateMutability": "view",
      "type": "function"
    },
    {
      "inputs": [],
      "name": "pause",
      "outputs": [],
      "stateMutability": "nonpayable",
      "type": "function"
    },
    {
      "inputs": [],
      "name": "paused",
      "outputs": [
        {
          "internalType": "bool",
          "name": "",
          "type": "bool"
        }
      ],
      "stateMutability": "view",
      "type": "function"
    },
    {
      "inputs": [
        {
          "internalType": "string",
          "name": "_fullName",
          "type": "string"
        },
        {
          "internalType": "uint256",
          "name": "_faydaNumber",
          "type": "uint256"
        }
      ],
      "name": "registerWithFayda",
      "outputs": [],
      "stateMutability": "nonpayable",
      "type": "function"
    },
    {
      "inputs": [
        {
          "internalType": "uint256",
          "name": "",
          "type": "uint256"
        }
      ],
      "name": "registeredAddresses",
      "outputs": [
        {
          "internalType": "address",
          "name": "",
          "type": "address"
        }
      ],
      "stateMutability": "view",
      "type": "function"
    },
    {
      "inputs": [
        {
          "internalType": "bytes32",
          "name": "role",
          "type": "bytes32"
        },
        {
          "internalType": "address",
          "name": "callerConfirmation",
          "type": "address"
        }
      ],
      "name": "renounceRole",
      "outputs": [],
      "stateMutability": "nonpayable",
      "type": "function"
    },
    {
      "inputs": [
        {
          "internalType": "bytes32",
          "name": "role",
          "type": "bytes32"
        },
        {
          "internalType": "address",
          "name": "account",
          "type": "address"
        }
      ],
      "name": "revokeRole",
      "outputs": [],
      "stateMutability": "nonpayable",
      "type": "function"
    },
    {
      "inputs": [
        {
          "internalType": "bytes4",
          "name": "interfaceId",
          "type": "bytes4"
        }
      ],
      "name": "supportsInterface",
      "outputs": [
        {
          "internalType": "bool",
          "name": "",
          "type": "bool"
        }
      ],
      "stateMutability": "view",
      "type": "function"
    },
    {
      "inputs": [],
      "name": "unpause",
      "outputs": [],
      "stateMutability": "nonpayable",
      "type": "function"
    },
    {
      "inputs": [
        {
          "internalType": "string",
          "name": "_newName",
          "type": "string"
        }
      ],
      "name": "updateName",
      "outputs": [],
      "stateMutability": "nonpayable",
      "type": "function"
    },
    {
      "inputs": [
        {
          "internalType": "address",
          "name": "_citizen",
          "type": "address"
        },
        {
          "internalType": "uint256",
          "name": "_faydaNumber",
          "type": "uint256"
        }
      ],
      "name": "verifyFaydaId",
      "outputs": [],
      "stateMutability": "nonpayable",
      "type": "function"
    },
    {
      "inputs": [
        {
          "internalType": "address",
          "name": "_citizen",
          "type": "address"
        }
      ],
      "name": "verifyIdentity",
      "outputs": [],
      "stateMutability": "nonpayable",
      "type": "function"
    }
  ],
  "bytecode": "0x60806040523480156200001157600080fd5b50600162000034620000286200012360201b60201c565b6200014e60201b60201c565b60000181905550620000506000801b336200015860201b60201c565b50620000837fa49807205ce4d355092ef5a8a18f56e8913cf4a201fbe287825b095693c21775336200015860201b60201c565b50620000b67f0ce23c3e399818cfee81a7ab0880f714e53d7672b08df0fa62f2843416e1ea09336200015860201b60201c565b50620000e97f6b159de100268188705d16be6aa26a77d58d0ae9560d7b7a9a2b69af7daf6b2b336200015860201b60201c565b506200011c7ffc7c36207174f786648d2e624616a4b40e15fd7f0268b4e36af5057f0c43c835336200015860201b60201c565b50620002cd565b60007f9b779b17422d0df92223018b32b4d1fa46e071723d6817e2486d003becc55f0060001b905090565b6000819050919050565b60006200016c83836200025b60201b60201c565b6200025057600160008085815260200190815260200160002060000160008473ffffffffffffffffffffffffffffffffffffffff1673ffffffffffffffffffffffffffffffffffffffff16815260200190815260200160002060006101000a81548160ff021916908315150217905550620001ec620002c560201b60201c565b73ffffffffffffffffffffffffffffffffffffffff168273ffffffffffffffffffffffffffffffffffffffff16847f2f8788117e7eff1d82e926ec794901d17c78024a50270940304540a733656f0d60405160405180910390a46001905062000255565b600090505b92915050565b600080600084815260200190815260200160002060000160008373ffffffffffffffffffffffffffffffffffffffff1673ffffffffffffffffffffffffffffffffffffffff16815260200190815260200160002060009054906101000a900460ff16905092915050565b600033905090565b612e7a80620002dd6000396000f3fe608060405234801561001057600080fd5b50600436106101a95760003560e01c806375b238fc116100f9578063b9209e3311610097578063cd61fe3511610071578063cd61fe35146104c3578063d4f910a7146104e1578063d547741f14610517578063e7705db614610533576101a9565b8063b9209e331461042e578063c2411dab1461045e578063c4948d0414610493576101a9565b806391d14854116100d357806391d14854146103945780639a3bdfb2146103c4578063a217fddf146103f4578063b5b90fd914610412576101a9565b806375b238fc146103505780638456cb591461036e57806384da92a714610378576101a9565b806339b1a27f116101665780635c975abb116101405780635c975abb146102c85780635d09ef46146102e65780636c0e1ccd146103025780636e9b855514610320576101a9565b806339b1a27f146102825780633ad4f9681461029e5780633f4ba83a146102be576101a9565b806301ffc9a7146101ae5780631e4c9358146101de5780632426bb38146101fc578063248a9ca31461021a5780632f2ff15d1461024a57806336568abe14610266575b600080fd5b6101c860048036038101906101c39190611e50565b610551565b6040516101d59190611e98565b60405180910390f35b6101e66105cb565b6040516101f39190611ecc565b60405180910390f35b6102046105d8565b6040516102119190611f00565b60405180910390f35b610234600480360381019061022f9190611f47565b6105fc565b6040516102419190611f00565b60405180910390f35b610264600480360381019061025f9190611fd2565b61061b565b005b610280600480360381019061027b9190611fd2565b61063d565b005b61029c60048036038101906102979190612184565b6106b8565b005b6102a6610b19565b6040516102b5939291906121e0565b60405180910390f35b6102c6610c8d565b005b6102d0610cc2565b6040516102dd9190611e98565b60405180910390f35b61030060048036038101906102fb9190612217565b610cd9565b005b61030a610ed3565b6040516103179190612315565b60405180910390f35b61033a60048036038101906103359190612337565b610f61565b6040516103479190612373565b60405180910390f35b610358610fa0565b6040516103659190611f00565b60405180910390f35b610376610fc4565b005b610392600480360381019061038d919061238e565b610ff9565b005b6103ae60048036038101906103a99190611fd2565b611160565b6040516103bb9190611e98565b60405180910390f35b6103de60048036038101906103d991906123d7565b6111ca565b6040516103eb9190611e98565b60405180910390f35b6103fc6111dc565b6040516104099190611f00565b60405180910390f35b61042c600480360381019061042791906123d7565b6111e3565b005b610448600480360381019061044391906123d7565b6113be565b6040516104559190611e98565b60405180910390f35b610478600480360381019061047391906123d7565b611563565b60405161048a96959493929190612483565b60405180910390f35b6104ad60048036038101906104a89190611f47565b611771565b6040516104ba9190612373565b60405180910390f35b6104cb6117a4565b6040516104d89190611f00565b60405180910390f35b6104fb60048036038101906104f691906123d7565b6117c8565b60405161050e97969594939291906124eb565b60405180910390f35b610531600480360381019061052c9190611fd2565b6118cc565b005b61053b6118ee565b6040516105489190611f00565b60405180910390f35b60007f7965db0b000000000000000000000000000000000000000000000000000000007bffffffffffffffffffffffffffffffffffffffffffffffffffffffff1916827bffffffffffffffffffffffffffffffffffffffffffffffffffffffff191614806105c457506105c382611912565b5b9050919050565b6000600480549050905090565b7ffc7c36207174f786648d2e624616a4b40e15fd7f0268b4e36af5057f0c43c83581565b6000806000838152602001908152602001600020600101549050919050565b610624826105fc565b61062d8161197c565b6106378383611990565b50505050565b610645611a81565b73ffffffffffffffffffffffffffffffffffffffff168173ffffffffffffffffffffffffffffffffffffffff16146106a9576040517f6697b23200000000000000000000000000000000000000000000000000000000815260040160405180910390fd5b6106b38282611a89565b505050565b6106c0611b7b565b6106c8611b9e565b600082511161070c576040517f08c379a0000000000000000000000000000000000000000000000000000000008152600401610703906125ad565b60405180910390fd5b66038d7ea4c68000811015801561072a5750662386f26fc0ffff8111155b610769576040517f08c379a00000000000000000000000000000000000000000000000000000000081526004016107609061263f565b60405180910390fd5b60008160405160200161077c9190612680565b6040516020818303038152906040528051906020012090506000600260003373ffffffffffffffffffffffffffffffffffffffff1673ffffffffffffffffffffffffffffffffffffffff1681526020019081526020016000206003015414610819576040517f08c379a0000000000000000000000000000000000000000000000000000000008152600401610810906126e7565b60405180910390fd5b600073ffffffffffffffffffffffffffffffffffffffff166003600083815260200190815260200160002060009054906101000a900473ffffffffffffffffffffffffffffffffffffffff1673ffffffffffffffffffffffffffffffffffffffff16146108bb576040517f08c379a00000000000000000000000000000000000000000000000000000000081526004016108b290612753565b60405180910390fd5b6040518060e001604052808481526020018281526020016001151581526020016000151581526020014281526020014281526020013373ffffffffffffffffffffffffffffffffffffffff16815250600260003373ffffffffffffffffffffffffffffffffffffffff1673ffffffffffffffffffffffffffffffffffffffff168152602001908152602001600020600082015181600001908161095e919061297f565b506020820151816001015560408201518160020160006101000a81548160ff02191690831515021790555060608201518160020160016101000a81548160ff0219169083151502179055506080820151816003015560a0820151816004015560c08201518160050160006101000a81548173ffffffffffffffffffffffffffffffffffffffff021916908373ffffffffffffffffffffffffffffffffffffffff160217905550905050336003600083815260200190815260200160002060006101000a81548173ffffffffffffffffffffffffffffffffffffffff021916908373ffffffffffffffffffffffffffffffffffffffff1602179055506004339080600181540180825580915050600190039060005260206000200160009091909190916101000a81548173ffffffffffffffffffffffffffffffffffffffff021916908373ffffffffffffffffffffffffffffffffffffffff1602179055503373ffffffffffffffffffffffffffffffffffffffff167fd09147cfca6d6fb8ad62e56a923d270469f12bfc30dbd65dc8736ff7c66be0bb8483604051610b04929190612a51565b60405180910390a250610b15611bdf565b5050565b6000806000600480549050925060005b600480549050811015610c87576002600060048381548110610b4e57610b4d612a81565b5b9060005260206000200160009054906101000a900473ffffffffffffffffffffffffffffffffffffffff1673ffffffffffffffffffffffffffffffffffffffff1673ffffffffffffffffffffffffffffffffffffffff16815260200190815260200160002060020160009054906101000a900460ff1615610bd8578280610bd490612adf565b9350505b6002600060048381548110610bf057610bef612a81565b5b9060005260206000200160009054906101000a900473ffffffffffffffffffffffffffffffffffffffff1673ffffffffffffffffffffffffffffffffffffffff1673ffffffffffffffffffffffffffffffffffffffff16815260200190815260200160002060020160019054906101000a900460ff1615610c7a578180610c7690612adf565b9250505b8080600101915050610b29565b50909192565b7fa49807205ce4d355092ef5a8a18f56e8913cf4a201fbe287825b095693c21775610cb78161197c565b610cbf611bfa565b50565b6000600160009054906101000a900460ff16905090565b7f6b159de100268188705d16be6aa26a77d58d0ae9560d7b7a9a2b69af7daf6b2b610d038161197c565b610d0b611b9e565b6000600260008573ffffffffffffffffffffffffffffffffffffffff1673ffffffffffffffffffffffffffffffffffffffff16815260200190815260200160002090506000816003015403610d95576040517f08c379a0000000000000000000000000000000000000000000000000000000008152600401610d8c90612b73565b60405180910390fd5b600083604051602001610da89190612680565b60405160208183030381529060405280519060200120905080826001015414610e06576040517f08c379a0000000000000000000000000000000000000000000000000000000008152600401610dfd90612bdf565b60405180910390fd5b8160020160009054906101000a900460ff1615610e58576040517f08c379a0000000000000000000000000000000000000000000000000000000008152600401610e4f90612c4b565b60405180910390fd5b60018260020160006101000a81548160ff0219169083151502179055504282600401819055508473ffffffffffffffffffffffffffffffffffffffff167fc82efce57150d98b53659e404df192edcd293652ba21a36a9402c448738548fe42604051610ec49190611ecc565b60405180910390a25050505050565b60606004805480602002602001604051908101604052809291908181526020018280548015610f5757602002820191906000526020600020905b8160009054906101000a900473ffffffffffffffffffffffffffffffffffffffff1673ffffffffffffffffffffffffffffffffffffffff1681526020019060010190808311610f0d575b5050505050905090565b60048181548110610f7157600080fd5b906000526020600020016000915054906101000a900473ffffffffffffffffffffffffffffffffffffffff1681565b7fa49807205ce4d355092ef5a8a18f56e8913cf4a201fbe287825b095693c2177581565b7fa49807205ce4d355092ef5a8a18f56e8913cf4a201fbe287825b095693c21775610fee8161197c565b610ff6611c5d565b50565b611001611b9e565b6000815111611045576040517f08c379a000000000000000000000000000000000000000000000000000000000815260040161103c906125ad565b60405180910390fd5b6000600260003373ffffffffffffffffffffffffffffffffffffffff1673ffffffffffffffffffffffffffffffffffffffff16815260200190815260200160002060030154036110ca576040517f08c379a00000000000000000000000000000000000000000000000000000000081526004016110c190612cb7565b60405180910390fd5b80600260003373ffffffffffffffffffffffffffffffffffffffff1673ffffffffffffffffffffffffffffffffffffffff1681526020019081526020016000206000019081611119919061297f565b503373ffffffffffffffffffffffffffffffffffffffff167fc9cd84037368fc04d06c312b6622afea03a8dac832c0962eb11a7e18aa0f5c2460405160405180910390a250565b600080600084815260200190815260200160002060000160008373ffffffffffffffffffffffffffffffffffffffff1673ffffffffffffffffffffffffffffffffffffffff16815260200190815260200160002060009054906101000a900460ff16905092915050565b60006111d5826113be565b9050919050565b6000801b81565b7f0ce23c3e399818cfee81a7ab0880f714e53d7672b08df0fa62f2843416e1ea0961120d8161197c565b611215611b9e565b6000600260008473ffffffffffffffffffffffffffffffffffffffff1673ffffffffffffffffffffffffffffffffffffffff1681526020019081526020016000209050600081600301540361129f576040517f08c379a000000000000000000000000000000000000000000000000000000000815260040161129690612b73565b60405180910390fd5b8060020160009054906101000a900460ff166112f0576040517f08c379a00000000000000000000000000000000000000000000000000000000081526004016112e790612d23565b60405180910390fd5b8060020160019054906101000a900460ff1615611342576040517f08c379a000000000000000000000000000000000000000000000000000000000815260040161133990612d8f565b60405180910390fd5b60018160020160016101000a81548160ff0219169083151502179055503373ffffffffffffffffffffffffffffffffffffffff168373ffffffffffffffffffffffffffffffffffffffff167fc165317a17c942b3e39bd4b1be03522505f57eb892af07ce1792f5883b4bea9b60405160405180910390a3505050565b600080600260008473ffffffffffffffffffffffffffffffffffffffff1673ffffffffffffffffffffffffffffffffffffffff1681526020019081526020016000206040518060e001604052908160008201805461141b906127a2565b80601f0160208091040260200160405190810160405280929190818152602001828054611447906127a2565b80156114945780601f1061146957610100808354040283529160200191611494565b820191906000526020600020905b81548152906001019060200180831161147757829003601f168201915b50505050508152602001600182015481526020016002820160009054906101000a900460ff161515151581526020016002820160019054906101000a900460ff1615151515815260200160038201548152602001600482015481526020016005820160009054906101000a900473ffffffffffffffffffffffffffffffffffffffff1673ffffffffffffffffffffffffffffffffffffffff1673ffffffffffffffffffffffffffffffffffffffff168152505090508060400151801561155b575080606001515b915050919050565b6060600080600080600080600260008973ffffffffffffffffffffffffffffffffffffffff1673ffffffffffffffffffffffffffffffffffffffff1681526020019081526020016000206040518060e00160405290816000820180546115c8906127a2565b80601f01602080910402602001604051908101604052809291908181526020018280546115f4906127a2565b80156116415780601f1061161657610100808354040283529160200191611641565b820191906000526020600020905b81548152906001019060200180831161162457829003601f168201915b50505050508152602001600182015481526020016002820160009054906101000a900460ff161515151581526020016002820160019054906101000a900460ff1615151515815260200160038201548152602001600482015481526020016005820160009054906101000a900473ffffffffffffffffffffffffffffffffffffffff1673ffffffffffffffffffffffffffffffffffffffff1673ffffffffffffffffffffffffffffffffffffffff16815250509050600081608001510361173d576040517f08c379a000000000000000000000000000000000000000000000000000000000815260040161173490612dfb565b60405180910390fd5b806000015181602001518260400151836060015184608001518560a001519650965096509650965096505091939550919395565b60036020528060005260406000206000915054906101000a900473ffffffffffffffffffffffffffffffffffffffff1681565b7f6b159de100268188705d16be6aa26a77d58d0ae9560d7b7a9a2b69af7daf6b2b81565b60026020528060005260406000206000915090508060000180546117eb906127a2565b80601f0160208091040260200160405190810160405280929190818152602001828054611817906127a2565b80156118645780601f1061183957610100808354040283529160200191611864565b820191906000526020600020905b81548152906001019060200180831161184757829003601f168201915b5050505050908060010154908060020160009054906101000a900460ff16908060020160019054906101000a900460ff16908060030154908060040154908060050160009054906101000a900473ffffffffffffffffffffffffffffffffffffffff16905087565b6118d5826105fc565b6118de8161197c565b6118e88383611a89565b50505050565b7f0ce23c3e399818cfee81a7ab0880f714e53d7672b08df0fa62f2843416e1ea0981565b60007f01ffc9a7000000000000000000000000000000000000000000000000000000007bffffffffffffffffffffffffffffffffffffffffffffffffffffffff1916827bffffffffffffffffffffffffffffffffffffffffffffffffffffffff1916149050919050565b61198d81611988611a81565b611cbf565b50565b600061199c8383611160565b611a7657600160008085815260200190815260200160002060000160008473ffffffffffffffffffffffffffffffffffffffff1673ffffffffffffffffffffffffffffffffffffffff16815260200190815260200160002060006101000a81548160ff021916908315150217905550611a13611a81565b73ffffffffffffffffffffffffffffffffffffffff168273ffffffffffffffffffffffffffffffffffffffff16847f2f8788117e7eff1d82e926ec794901d17c78024a50270940304540a733656f0d60405160405180910390a460019050611a7b565b600090505b92915050565b600033905090565b6000611a958383611160565b15611b7057600080600085815260200190815260200160002060000160008473ffffffffffffffffffffffffffffffffffffffff1673ffffffffffffffffffffffffffffffffffffffff16815260200190815260200160002060006101000a81548160ff021916908315150217905550611b0d611a81565b73ffffffffffffffffffffffffffffffffffffffff168273ffffffffffffffffffffffffffffffffffffffff16847ff6391f5c32d9c69d2a47ea670b442974b53935d1edc7fd64eb21e047a839171b60405160405180910390a460019050611b75565b600090505b92915050565b611b83611d10565b6002611b95611b90611d51565b611d7c565b60000181905550565b611ba6610cc2565b15611bdd576040517fd93c066500000000000000000000000000000000000000000000000000000000815260040160405180910390fd5b565b6001611bf1611bec611d51565b611d7c565b60000181905550565b611c02611d86565b6000600160006101000a81548160ff0219169083151502179055507f5db9ee0a495bf2e6ff9c91a7834c1ba4fdd244a5e8aa4e537bd38aeae4b073aa611c46611a81565b604051611c539190612373565b60405180910390a1565b611c65611b9e565b60018060006101000a81548160ff0219169083151502179055507f62e78cea01bee320cd4e420270b5ea74000d11b0c9f74754ebdbfc544b05a258611ca8611a81565b604051611cb59190612373565b60405180910390a1565b611cc98282611160565b611d0c5780826040517fe2517d3f000000000000000000000000000000000000000000000000000000008152600401611d03929190612e1b565b60405180910390fd5b5050565b611d18611dc6565b15611d4f576040517f3ee5aeb500000000000000000000000000000000000000000000000000000000815260040160405180910390fd5b565b60007f9b779b17422d0df92223018b32b4d1fa46e071723d6817e2486d003becc55f0060001b905090565b6000819050919050565b611d8e610cc2565b611dc4576040517f8dfc202b00000000000000000000000000000000000000000000000000000000815260040160405180910390fd5b565b60006002611dda611dd5611d51565b611d7c565b6000015414905090565b6000604051905090565b600080fd5b600080fd5b60007fffffffff0000000000000000000000000000000000000000000000000000000082169050919050565b611e2d81611df8565b8114611e3857600080fd5b50565b600081359050611e4a81611e24565b92915050565b600060208284031215611e6657611e65611dee565b5b6000611e7484828501611e3b565b91505092915050565b60008115159050919050565b611e9281611e7d565b82525050565b6000602082019050611ead6000830184611e89565b92915050565b6000819050919050565b611ec681611eb3565b82525050565b6000602082019050611ee16000830184611ebd565b92915050565b6000819050919050565b611efa81611ee7565b82525050565b6000602082019050611f156000830184611ef1565b92915050565b611f2481611ee7565b8114611f2f57600080fd5b50565b600081359050611f4181611f1b565b92915050565b600060208284031215611f5d57611f5c611dee565b5b6000611f6b84828501611f32565b91505092915050565b600073ffffffffffffffffffffffffffffffffffffffff82169050919050565b6000611f9f82611f74565b9050919050565b611faf81611f94565b8114611fba57600080fd5b50565b600081359050611fcc81611fa6565b92915050565b60008060408385031215611fe957611fe8611dee565b5b6000611ff785828601611f32565b925050602061200885828601611fbd565b9150509250929050565b600080fd5b600080fd5b6000601f19601f8301169050919050565b7f4e487b7100000000000000000000000000000000000000000000000000000000600052604160045260246000fd5b6120658261201c565b810181811067ffffffffffffffff821117156120845761208361202d565b5b80604052505050565b6000612097611de4565b90506120a3828261205c565b919050565b600067ffffffffffffffff8211156120c3576120c261202d565b5b6120cc8261201c565b9050602081019050919050565b82818337600083830152505050565b60006120fb6120f6846120a8565b61208d565b90508281526020810184848401111561211757612116612017565b5b6121228482856120d9565b509392505050565b600082601f83011261213f5761213e612012565b5b813561214f8482602086016120e8565b91505092915050565b61216181611eb3565b811461216c57600080fd5b50565b60008135905061217e81612158565b92915050565b6000806040838503121561219b5761219a611dee565b5b600083013567ffffffffffffffff8111156121b9576121b8611df3565b5b6121c58582860161212a565b92505060206121d68582860161216f565b9150509250929050565b60006060820190506121f56000830186611ebd565b6122026020830185611ebd565b61220f6040830184611ebd565b949350505050565b6000806040838503121561222e5761222d611dee565b5b600061223c85828601611fbd565b925050602061224d8582860161216f565b9150509250929050565b600081519050919050565b600082825260208201905092915050565b6000819050602082019050919050565b61228c81611f94565b82525050565b600061229e8383612283565b60208301905092915050565b6000602082019050919050565b60006122c282612257565b6122cc8185612262565b93506122d783612273565b8060005b838110156123085781516122ef8882612292565b97506122fa836122aa565b9250506001810190506122db565b5085935050505092915050565b6000602082019050818103600083015261232f81846122b7565b905092915050565b60006020828403121561234d5761234c611dee565b5b600061235b8482850161216f565b91505092915050565b61236d81611f94565b82525050565b60006020820190506123886000830184612364565b92915050565b6000602082840312156123a4576123a3611dee565b5b600082013567ffffffffffffffff8111156123c2576123c1611df3565b5b6123ce8482850161212a565b91505092915050565b6000602082840312156123ed576123ec611dee565b5b60006123fb84828501611fbd565b91505092915050565b600081519050919050565b600082825260208201905092915050565b60005b8381101561243e578082015181840152602081019050612423565b60008484015250505050565b600061245582612404565b61245f818561240f565b935061246f818560208601612420565b6124788161201c565b840191505092915050565b600060c082019050818103600083015261249d818961244a565b90506124ac6020830188611ef1565b6124b96040830187611e89565b6124c66060830186611e89565b6124d36080830185611ebd565b6124e060a0830184611ebd565b979650505050505050565b600060e0820190508181036000830152612505818a61244a565b90506125146020830189611ef1565b6125216040830188611e89565b61252e6060830187611e89565b61253b6080830186611ebd565b61254860a0830185611ebd565b61255560c0830184612364565b98975050505050505050565b7f4e616d6520726571756972656400000000000000000000000000000000000000600082015250565b6000612597600d8361240f565b91506125a282612561565b602082019050919050565b600060208201905081810360008301526125c68161258a565b9050919050565b7f496e76616c696420466179646120494420286d7573742062652031362064696760008201527f6974732900000000000000000000000000000000000000000000000000000000602082015250565b600061262960248361240f565b9150612634826125cd565b604082019050919050565b600060208201905081810360008301526126588161261c565b9050919050565b6000819050919050565b61267a61267582611eb3565b61265f565b82525050565b600061268c8284612669565b60208201915081905092915050565b7f416c726561647920726567697374657265640000000000000000000000000000600082015250565b60006126d160128361240f565b91506126dc8261269b565b602082019050919050565b60006020820190508181036000830152612700816126c4565b9050919050565b7f466179646120494420616c726561647920726567697374657265640000000000600082015250565b600061273d601b8361240f565b915061274882612707565b602082019050919050565b6000602082019050818103600083015261276c81612730565b9050919050565b7f4e487b7100000000000000000000000000000000000000000000000000000000600052602260045260246000fd5b600060028204905060018216806127ba57607f821691505b6020821081036127cd576127cc612773565b5b50919050565b60008190508160005260206000209050919050565b60006020601f8301049050919050565b600082821b905092915050565b6000600883026128357fffffffffffffffffffffffffffffffffffffffffffffffffffffffffffffffff826127f8565b61283f86836127f8565b95508019841693508086168417925050509392505050565b6000819050919050565b600061287c61287761287284611eb3565b612857565b611eb3565b9050919050565b6000819050919050565b61289683612861565b6128aa6128a282612883565b848454612805565b825550505050565b600090565b6128bf6128b2565b6128ca81848461288d565b505050565b5b818110156128ee576128e36000826128b7565b6001810190506128d0565b5050565b601f82111561293357612904816127d3565b61290d846127e8565b8101602085101561291c578190505b612930612928856127e8565b8301826128cf565b50505b505050565b600082821c905092915050565b600061295660001984600802612938565b1980831691505092915050565b600061296f8383612945565b9150826002028217905092915050565b61298882612404565b67ffffffffffffffff8111156129a1576129a061202d565b5b6129ab82546127a2565b6129b68282856128f2565b600060209050601f8311600181146129e957600084156129d7578287015190505b6129e18582612963565b865550612a49565b601f1984166129f7866127d3565b60005b82811015612a1f578489015182556001820191506020850194506020810190506129fa565b86831015612a3c5784890151612a38601f891682612945565b8355505b6001600288020188555050505b505050505050565b60006040820190508181036000830152612a6b818561244a565b9050612a7a6020830184611ef1565b9392505050565b7f4e487b7100000000000000000000000000000000000000000000000000000000600052603260045260246000fd5b7f4e487b7100000000000000000000000000000000000000000000000000000000600052601160045260246000fd5b6000612aea82611eb3565b91507fffffffffffffffffffffffffffffffffffffffffffffffffffffffffffffffff8203612b1c57612b1b612ab0565b5b600182019050919050565b7f436974697a656e206e6f74207265676973746572656400000000000000000000600082015250565b6000612b5d60168361240f565b9150612b6882612b27565b602082019050919050565b60006020820190508181036000830152612b8c81612b50565b9050919050565b7f4661796461204944206d69736d61746368000000000000000000000000000000600082015250565b6000612bc960118361240f565b9150612bd482612b93565b602082019050919050565b60006020820190508181036000830152612bf881612bbc565b9050919050565b7f416c726561647920466179646120766572696669656400000000000000000000600082015250565b6000612c3560168361240f565b9150612c4082612bff565b602082019050919050565b60006020820190508181036000830152612c6481612c28565b9050919050565b7f4e6f742072656769737465726564000000000000000000000000000000000000600082015250565b6000612ca1600e8361240f565b9150612cac82612c6b565b602082019050919050565b60006020820190508181036000830152612cd081612c94565b9050919050565b7f4d75737420626520466179646120766572696669656420666972737400000000600082015250565b6000612d0d601c8361240f565b9150612d1882612cd7565b602082019050919050565b60006020820190508181036000830152612d3c81612d00565b9050919050565b7f416c72656164792076657269666965642062792061646d696e00000000000000600082015250565b6000612d7960198361240f565b9150612d8482612d43565b602082019050919050565b60006020820190508181036000830152612da881612d6c565b9050919050565b7f436974697a656e206e6f7420666f756e64000000000000000000000000000000600082015250565b6000612de560118361240f565b9150612df082612daf565b602082019050919050565b60006020820190508181036000830152612e1481612dd8565b9050919050565b6000604082019050612e306000830185612364565b612e3d6020830184611ef1565b939250505056fea264697066735822122047eb65841b984674c8029fd2890498cc425fed7a8c698a3bee541a898581cf2764736f6c63430008180033",
  "linkReferences": {},
  "deployedLinkReferences": {}
}