{"contracts/NationalIdentity.sol":{"NationalIdentity":{"abi":[{"inputs":[],"stateMutability":"nonpayable","type":"constructor"},{"inputs":[],"name":"AccessControlBadConfirmation","type":"error"},{"inputs":[{"internalType":"address","name":"account","type":"address"},{"internalType":"bytes32","name":"neededRole","type":"bytes32"}],"name":"AccessControlUnauthorizedAccount","type":"error"},{"inputs":[],"name":"ECDSAInvalidSignature","type":"error"},{"inputs":[{"internalType":"uint256","name":"length","type":"uint256"}],"name":"ECDSAInvalidSignatureLength","type":"error"},{"inputs":[{"internalType":"bytes32","name":"s","type":"bytes32"}],"name":"ECDSAInvalidSignatureS","type":"error"},{"inputs":[],"name":"EnforcedPause","type":"error"},{"inputs":[],"name":"ExpectedPause","type":"error"},{"inputs":[],"name":"ReentrancyGuardReentrantCall","type":"error"},{"anonymous":false,"inputs":[{"indexed":true,"internalType":"address","name":"citizen","type":"address"},{"indexed":false,"internalType":"uint256","name":"timestamp","type":"uint256"}],"name":"CitizenAutoApproved","type":"event"},{"anonymous":false,"inputs":[{"indexed":true,"internalType":"address","name":"citizen","type":"address"},{"indexed":false,"internalType":"uint256","name":"timestamp","type":"uint256"}],"name":"CitizenManualApproved","type":"event"},{"anonymous":false,"inputs":[{"indexed":true,"internalType":"address","name":"citizen","type":"address"},{"indexed":false,"internalType":"uint256","name":"timestamp","type":"uint256"}],"name":"CitizenManualRejected","type":"event"},{"anonymous":false,"inputs":[{"indexed":true,"internalType":"address","name":"citizen","type":"address"},{"indexed":true,"internalType":"bytes32","name":"faydaHash","type":"bytes32"},{"indexed":false,"internalType":"enum NationalIdentity.TaxCategory","name":"taxCategory","type":"uint8"}],"name":"CitizenRegistered","type":"event"},{"anonymous":false,"inputs":[{"indexed":false,"internalType":"address","name":"account","type":"address"}],"name":"Paused","type":"event"},{"anonymous":false,"inputs":[{"indexed":true,"internalType":"bytes32","name":"role","type":"bytes32"},{"indexed":true,"internalType":"bytes32","name":"previousAdminRole","type":"bytes32"},{"indexed":true,"internalType":"bytes32","name":"newAdminRole","type":"bytes32"}],"name":"RoleAdminChanged","type":"event"},{"anonymous":false,"inputs":[{"indexed":true,"internalType":"bytes32","name":"role","type":"bytes32"},{"indexed":true,"internalType":"address","name":"account","type":"address"},{"indexed":true,"internalType":"address","name":"sender","type":"address"}],"name":"RoleGranted","type":"event"},{"anonymous":false,"inputs":[{"indexed":true,"internalType":"bytes32","name":"role","type":"bytes32"},{"indexed":true,"internalType":"address","name":"account","type":"address"},{"indexed":true,"internalType":"address","name":"sender","type":"address"}],"name":"RoleRevoked","type":"event"},{"anonymous":false,"inputs":[{"indexed":false,"internalType":"address","name":"account","type":"address"}],"name":"Unpaused","type":"event"},{"inputs":[],"name":"ADMIN_ROLE","outputs":[{"internalType":"bytes32","name":"","type":"bytes32"}],"stateMutability":"view","type":"function"},{"inputs":[],"name":"DEFAULT_ADMIN_ROLE","outputs":[{"internalType":"bytes32","name":"","type":"bytes32"}],"stateMutability":"view","type":"function"},{"inputs":[],"name":"EMPLOYER_ROLE","outputs":[{"internalType":"bytes32","name":"","type":"bytes32"}],"stateMutability":"view","type":"function"},{"inputs":[],"name":"TAX_COLLECTOR_ROLE","outputs":[{"internalType":"bytes32","name":"","type":"bytes32"}],"stateMutability":"view","type":"function"},{"inputs":[{"internalType":"address[]","name":"citizenWallets","type":"address[]"}],"name":"batchManualApprove","outputs":[],"stateMutability":"nonpayable","type":"function"},{"inputs":[{"internalType":"address","name":"citizen","type":"address"}],"name":"businessTypeOf","outputs":[{"internalType":"enum NationalIdentity.BusinessType","name":"","type":"uint8"}],"stateMutability":"view","type":"function"},{"inputs":[],"name":"faydaAttester","outputs":[{"internalType":"address","name":"","type":"address"}],"stateMutability":"view","type":"function"},{"inputs":[],"name":"getAllCitizens","outputs":[{"internalType":"address[]","name":"","type":"address[]"}],"stateMutability":"view","type":"function"},{"inputs":[{"internalType":"address","name":"citizen","type":"address"}],"name":"getCitizenAdmin","outputs":[{"internalType":"string","name":"fullName","type":"string"},{"internalType":"bytes32","name":"faydaHash","type":"bytes32"},{"internalType":"enum NationalIdentity.TaxCategory","name":"taxCategory","type":"uint8"},{"internalType":"uint8","name":"age","type":"uint8"},{"internalType":"bool","name":"isFaydaVerified","type":"bool"},{"internalType":"bool","name":"isOnSanctionsList","type":"bool"},{"internalType":"bool","name":"isAutoApproved","type":"bool"},{"internalType":"bool","name":"needsManualReview","type":"bool"},{"internalType":"uint256","name":"approvalTimestamp","type":"uint256"},{"internalType":"uint256","name":"registrationTime","type":"uint256"}],"stateMutability":"view","type":"function"},{"inputs":[{"internalType":"address","name":"citizen","type":"address"}],"name":"getCitizenPublic","outputs":[{"internalType":"enum NationalIdentity.TaxCategory","name":"taxCategory","type":"uint8"},{"internalType":"bool","name":"isFaydaVerified","type":"bool"},{"internalType":"bool","name":"isAutoApproved","type":"bool"},{"internalType":"bool","name":"needsManualReview","type":"bool"},{"internalType":"uint256","name":"approvalTimestamp","type":"uint256"},{"internalType":"uint256","name":"registrationTime","type":"uint256"}],"stateMutability":"view","type":"function"},{"inputs":[{"internalType":"bytes32","name":"role","type":"bytes32"}],"name":"getRoleAdmin","outputs":[{"internalType":"bytes32","name":"","type":"bytes32"}],"stateMutability":"view","type":"function"},{"inputs":[],"name":"getTotalCitizens","outputs":[{"internalType":"uint256","name":"","type":"uint256"}],"stateMutability":"view","type":"function"},{"inputs":[{"internalType":"bytes32","name":"role","type":"bytes32"},{"internalType":"address","name":"account","type":"address"}],"name":"grantRole","outputs":[],"stateMutability":"nonpayable","type":"function"},{"inputs":[{"internalType":"bytes32","name":"role","type":"bytes32"},{"internalType":"address","name":"account","type":"address"}],"name":"hasRole","outputs":[{"internalType":"bool","name":"","type":"bool"}],"stateMutability":"view","type":"function"},{"inputs":[{"internalType":"address","name":"citizen","type":"address"}],"name":"isAutoApprovedCitizen","outputs":[{"internalType":"bool","name":"","type":"bool"}],"stateMutability":"view","type":"function"},{"inputs":[{"internalType":"address","name":"citizen","type":"address"}],"name":"linkedBankAccountOf","outputs":[{"internalType":"address","name":"","type":"address"}],"stateMutability":"view","type":"function"},{"inputs":[{"internalType":"address","name":"citizen","type":"address"}],"name":"locationOf","outputs":[{"internalType":"enum NationalIdentity.Location","name":"","type":"uint8"}],"stateMutability":"view","type":"function"},{"inputs":[{"internalType":"address","name":"citizen","type":"address"}],"name":"manualApprove","outputs":[],"stateMutability":"nonpayable","type":"function"},{"inputs":[{"internalType":"address","name":"citizen","type":"address"}],"name":"manualReject","outputs":[],"stateMutability":"nonpayable","type":"function"},{"inputs":[],"name":"pause","outputs":[],"stateMutability":"nonpayable","type":"function"},{"inputs":[],"name":"paused","outputs":[{"internalType":"bool","name":"","type":"bool"}],"stateMutability":"view","type":"function"},{"inputs":[{"internalType":"bytes32","name":"attestationId","type":"bytes32"},{"internalType":"string","name":"_fullName","type":"string"},{"internalType":"bytes32","name":"_faydaHash","type":"bytes32"},{"internalType":"uint8","name":"_age","type":"uint8"},{"internalType":"bool","name":"_faydaVerified","type":"bool"},{"internalType":"bool","name":"_onSanctionsList","type":"bool"},{"internalType":"enum NationalIdentity.TaxCategory","name":"_taxCategory","type":"uint8"},{"internalType":"enum NationalIdentity.BusinessType","name":"_businessType","type":"uint8"},{"internalType":"enum NationalIdentity.Location","name":"_area","type":"uint8"},{"internalType":"address","name":"_linkedBankAccount","type":"address"},{"internalType":"bytes","name":"signature","type":"bytes"}],"name":"registerAndAutoApprove","outputs":[],"stateMutability":"nonpayable","type":"function"},{"inputs":[{"internalType":"bytes32","name":"role","type":"bytes32"},{"internalType":"address","name":"callerConfirmation","type":"address"}],"name":"renounceRole","outputs":[],"stateMutability":"nonpayable","type":"function"},{"inputs":[{"internalType":"bytes32","name":"faydaHash","type":"bytes32"}],"name":"resolveWalletFromFaydaHash","outputs":[{"internalType":"address","name":"","type":"address"}],"stateMutability":"view","type":"function"},{"inputs":[{"internalType":"uint256","name":"faydaNumber","type":"uint256"}],"name":"resolveWalletFromFaydaNumber","outputs":[{"internalType":"address","name":"","type":"address"}],"stateMutability":"view","type":"function"},{"inputs":[{"internalType":"bytes32","name":"role","type":"bytes32"},{"internalType":"address","name":"account","type":"address"}],"name":"revokeRole","outputs":[],"stateMutability":"nonpayable","type":"function"},{"inputs":[{"internalType":"address","name":"signer","type":"address"}],"name":"setFaydaAttester","outputs":[],"stateMutability":"nonpayable","type":"function"},{"inputs":[{"internalType":"bytes4","name":"interfaceId","type":"bytes4"}],"name":"supportsInterface","outputs":[{"internalType":"bool","name":"","type":"bool"}],"stateMutability":"view","type":"function"},{"inputs":[{"internalType":"address","name":"citizen","type":"address"}],"name":"taxCategoryOf","outputs":[{"internalType":"enum NationalIdentity.TaxCategory","name":"","type":"uint8"}],"stateMutability":"view","type":"function"},{"inputs":[],"name":"unpause","outputs":[],"stateMutability":"nonpayable","type":"function"}],"evm":{"bytecode":{"linkReferences":{},"object":"6080604052346100645760017f9b779b17422d0df92223018b32b4d1fa46e071723d6817e2486d003becc55f005561003633610068565b50610040336100de565b5061004a33610171565b5061005433610204565b50604051611c1f90816102988239f35b5f80fd5b6001600160a01b0381165f9081525f516020611f375f395f51905f52602052604090205460ff166100d9576001600160a01b03165f8181525f516020611f375f395f51905f5260205260408120805460ff191660011790553391905f516020611eb75f395f51905f528180a4600190565b505f90565b6001600160a01b0381165f9081525f516020611ed75f395f51905f52602052604090205460ff166100d9576001600160a01b03165f8181525f516020611ed75f395f51905f5260205260408120805460ff191660011790553391907fa49807205ce4d355092ef5a8a18f56e8913cf4a201fbe287825b095693c21775905f516020611eb75f395f51905f529080a4600190565b6001600160a01b0381165f9081525f516020611f175f395f51905f52602052604090205460ff166100d9576001600160a01b03165f8181525f516020611f175f395f51905f5260205260408120805460ff191660011790553391907ffc7c36207174f786648d2e624616a4b40e15fd7f0268b4e36af5057f0c43c835905f516020611eb75f395f51905f529080a4600190565b6001600160a01b0381165f9081525f516020611ef75f395f51905f52602052604090205460ff166100d9576001600160a01b03165f8181525f516020611ef75f395f51905f5260205260408120805460ff191660011790553391907f7cb8da4815c5c7bfec597d7479bf1f02def0b6d0f50cd2ad5eb80c69ac5c1a1b905f516020611eb75f395f51905f529080a460019056fe6080806040526004361015610012575f80fd5b5f3560e01c90816301ffc9a71461165b575080630f04912a1461160557806310e381c3146115d95780631e4c9358146115bc5780632426bb3814611582578063248a9ca3146115505780632b43e332146113045780632f2ff15d146112c757806336568abe146112835780633f4ba83a1461121d5780635138ea6a146111d75780635c975abb146111b55780635f87b2af1461117b5780636c0e1ccd146110ab57806375b238fc146110715780637cbc764c14610f6f5780638456cb5914610f175780638ed64d4114610ed457806391d1485414610e8c578063a217fddf14610e72578063bb82542d14610e2a578063cc7b724514610d52578063d547741f14610d0e578063d5baa3ac14610ccb578063d8c6b3d914610c81578063e34e3faa14610bbd578063ee93558e146109bb578063f672d4c014610981578063f9bd4269146101b05763fb6fe34214610166575f80fd5b346101ac5760203660031901126101ac576001600160a01b036101876116ae565b165f526002602052602060018060a01b03600260405f20015460181c16604051908152f35b5f80fd5b346101ac576101603660031901126101ac5760243567ffffffffffffffff81116101ac576101e2903690600401611702565b60ff60643516606435036101ac576084359081151582036101ac5760a4359081151582036101ac57600460c43510156101ac57600560e43510156101ac5760056101043510156101ac5761012435906001600160a01b03821682036101ac576101443567ffffffffffffffff81116101ac57610262903690600401611702565b60027f9b779b17422d0df92223018b32b4d1fa46e071723d6817e2486d003becc55f0054146109725760027f9b779b17422d0df92223018b32b4d1fa46e071723d6817e2486d003becc55f00556102b7611a05565b60015460081c6001600160a01b031691821561092d5783156108f857335f526002602052600360405f2001546108be576044355f908152600360205260409020546001600160a01b0316610879576004355f52600560205260ff60405f2054166108345761032660c4356116da565b61033160e4356116f8565b61033d610104356116f8565b6040516004356020820152336040820152604435606082015260ff60643516608082015287151560a082015286151560c082015260ff60c4351660e082015260ff60e4351661010082015260ff610104351661012082015260018060a01b03861661014082015261014081526103b56101608261174d565b602081519101207f19457468657265756d205369676e6564204d6573736167653a0a3332000000005f52601c52603c5f2067ffffffffffffffff83116106ab576040519061040d601f8501601f19166020018361174d565b83825236848401116101ac575f60208561043b96610432968387013784010152611aa6565b90929192611ae0565b6001600160a01b0316036107ef576004355f52600560205260405f20600160ff19825416179055335f52600260205260405f209467ffffffffffffffff82116106ab57819061048a875461176f565b601f811161079f575b505f90601f8311600114610738575f9261072d575b50508160011b915f199060031b1c19161784555b604435600185015560028401916104d460c4356116da565b82546104e160e4356116f8565b6104ed610104356116f8565b84151560c01b60ff60c01b1660643560b81b60ff60b81b166001600160d01b031990921660c43560ff161760e43560081b61ff0016176101043560101b62ff00001617601885901b6301000000600160b81b031617919091171781151560c81b60ff60c81b16178355426003860181905560048601556006850180546001600160a01b031916331790558361071c575b83610713575b50826106f7575b50805461ffff60d01b19168215801560d01b60ff60d01b169190911760d89190911b60ff60d81b161790556106bf575b506044355f90815260036020526040902080546001600160a01b03191633179055600454680100000000000000008110156106ab5760018101806004558110156106975760045f527f8a35acfbc15ff81a39ae7d344fd709f28e8600b4aa8c65c6b64bfe7fe36bd19b0180546001600160a01b0319163317905560405161064260c4356116da565b60c4358152604435907fdc1039b78200adc65f805a73a188310f57d38537fda3f530515310163a57e9b760203392a360017f9b779b17422d0df92223018b32b4d1fa46e071723d6817e2486d003becc55f0055005b634e487b7160e01b5f52603260045260245ffd5b634e487b7160e01b5f52604160045260245ffd5b6005429101556040514281527f7dc2f6e343e2cbc3059024808b49f5b4a3336d1e87c5d1c4aa999a71d10585af60203392a2806105ba565b61070c9192506101043560e43560c435611a20565b908361058a565b15925084610583565b601260643560ff161015935061057d565b0135905086806104a8565b909150601f19831691875f5260205f20925f5b818110610787575090846001959493921061076e575b505050811b0184556104bc565b01355f19600384901b60f8161c19169055868080610761565b9193602060018192878701358155019501920161074b565b909150865f5260205f20601f840160051c810191602085106107e5575b90601f859493920160051c01905b8181106107d75750610493565b5f81558493506001016107ca565b90915081906107bc565b60405162461bcd60e51b815260206004820152601d60248201527f496e76616c6964206174746573746174696f6e207369676e61747572650000006044820152606490fd5b60405162461bcd60e51b815260206004820152601860248201527f4174746573746174696f6e20616c7265616479207573656400000000000000006044820152606490fd5b60405162461bcd60e51b815260206004820152601b60248201527f466179646120494420616c7265616479207265676973746572656400000000006044820152606490fd5b60405162461bcd60e51b8152602060048201526012602482015271105b1c9958591e481c9959da5cdd195c995960721b6044820152606490fd5b60405162461bcd60e51b815260206004820152600d60248201526c13985b59481c995c5d5a5c9959609a1b6044820152606490fd5b60405162461bcd60e51b815260206004820152601d60248201527f4661796461206174746573746572206e6f7420636f6e666967757265640000006044820152606490fd5b633ee5aeb560e01b5f5260045ffd5b346101ac575f3660031901126101ac5760206040517f7cb8da4815c5c7bfec597d7479bf1f02def0b6d0f50cd2ad5eb80c69ac5c1a1b8152f35b346101ac5760203660031901126101ac576001600160a01b036109dc6116ae565b165f52600260205260405f206040516109f481611730565b604051915f928154610a058161176f565b8083529060018116908115610b995750600114610b60575b50610a2c8160c095038261174d565b825260018101546020830152600281015491604081019160ff8416610a50816116da565b835260ff8460081c16610a62816116f8565b606083015260ff8460101c16610a77816116f8565b608083015260018060a01b038460181c1660a083015260ff8460b81c168583015260e082019360ff81871c161515855260ff8160c81c16151561010084015261012083019360ff8260d01c161515855260ff61014085019260d81c1615158252610b1b600384015461016086019581875260048601546101808201526101c06005870154966101a08301978852600660018060a01b039101541691015215156117a7565b5194610b26866116da565b5115159351151590511515915192519360405195610b43816116da565b8652602086015260408501526060840152608083015260a0820152f35b9350815f5260205f205f905b858210610b83575081016020019350610a2c610a1d565b6001816020925483858701015201910190610b6c565b60ff191660208085019190915291151560051b83019091019450610a2c9050610a1d565b346101ac5760203660031901126101ac57610bd66116ae565b610bde611856565b60018060a01b0316805f526002602052600260405f20610c03600382015415156117a7565b01805460ff8160d01c16610c495761ffff60d01b191690556040514281527f706880f42df1094db2c4679bae3c7a935123950002744abaf334ae0adec79e2a90602090a2005b60405162461bcd60e51b815260206004820152601060248201526f105b1c9958591e48185c1c1c9bdd995960821b6044820152606490fd5b346101ac5760203660031901126101ac576001600160a01b03610ca26116ae565b165f526002602052602060ff600260405f20015460081c1660405190610cc7816116f8565b8152f35b346101ac5760203660031901126101ac576001600160a01b03610cec6116ae565b165f526002602052602060ff600260405f2001541660405190610cc7816116da565b346101ac5760403660031901126101ac57610d50600435610d2d6116c4565b90610d4b610d46825f525f602052600160405f20015490565b6118c5565b611985565b005b346101ac5760203660031901126101ac57610d6b6116ae565b610d73611856565b6001600160a01b03165f8181526002602052604090206003810154610d999015156117a7565b60028101805460ff8160d01c16610ded57600160d01b9061ffff60d01b19161790556005429101557fbb8087caf5b27589907554bd427e789ca04e83a1276b76e723aacf558ae942126020604051428152a2005b60405162461bcd60e51b8152602060048201526015602482015274105b1c9958591e48185d5d1bcb585c1c1c9bdd9959605a1b6044820152606490fd5b346101ac5760203660031901126101ac57610e436116ae565b610e4b611856565b60018054610100600160a81b03191660089290921b610100600160a81b0316919091179055005b346101ac575f3660031901126101ac5760206040515f8152f35b346101ac5760403660031901126101ac57610ea56116c4565b6004355f525f60205260405f209060018060a01b03165f52602052602060ff60405f2054166040519015158152f35b346101ac5760203660031901126101ac576001600160a01b03610ef56116ae565b165f526002602052602060ff600260405f20015460d01c166040519015158152f35b346101ac575f3660031901126101ac57610f2f611856565b610f37611a05565b600160ff19815416176001557f62e78cea01bee320cd4e420270b5ea74000d11b0c9f74754ebdbfc544b05a2586020604051338152a1005b346101ac5760203660031901126101ac5760043567ffffffffffffffff81116101ac57366023820112156101ac5780600401359067ffffffffffffffff82116101ac573660248360051b830101116101ac57610fc9611856565b5f5b82811015610d50576024600582901b830101356001600160a01b03811691908290036101ac57610ff9611856565b815f52600260205260405f2091611015600384015415156117a7565b600283019283549360ff8560d01c16610ded576001948560d01b9061ffff60d01b19161790556005429101557fbb8087caf5b27589907554bd427e789ca04e83a1276b76e723aacf558ae942126020604051428152a201610fcb565b346101ac575f3660031901126101ac5760206040517fa49807205ce4d355092ef5a8a18f56e8913cf4a201fbe287825b095693c217758152f35b346101ac575f3660031901126101ac576110c3611856565b6040518060206004549283815201809260045f527f8a35acfbc15ff81a39ae7d344fd709f28e8600b4aa8c65c6b64bfe7fe36bd19b905f5b81811061115c575050508161111191038261174d565b604051918291602083019060208452518091526040830191905f5b81811061113a575050500390f35b82516001600160a01b031684528594506020938401939092019160010161112c565b82546001600160a01b03168452602090930192600192830192016110fb565b346101ac5760203660031901126101ac576111946117e7565b6004355f526003602052602060018060a01b0360405f205416604051908152f35b346101ac575f3660031901126101ac57602060ff600154166040519015158152f35b346101ac5760203660031901126101ac576001600160a01b036111f86116ae565b165f526002602052602060ff600260405f20015460101c1660405190610cc7816116f8565b346101ac575f3660031901126101ac57611235611856565b60015460ff8116156112745760ff19166001557f5db9ee0a495bf2e6ff9c91a7834c1ba4fdd244a5e8aa4e537bd38aeae4b073aa6020604051338152a1005b638dfc202b60e01b5f5260045ffd5b346101ac5760403660031901126101ac5761129c6116c4565b336001600160a01b038216036112b857610d5090600435611985565b63334bd91960e11b5f5260045ffd5b346101ac5760403660031901126101ac57610d506004356112e66116c4565b906112ff610d46825f525f602052600160405f20015490565b6118fd565b346101ac5760203660031901126101ac5761131d6116ae565b611325611856565b60018060a01b03165f526002602052602060405f2060405161134681611730565b604051915f9281546113578161176f565b80835290600181169081156115365750600114611503575b5090816113846101409361016096038261174d565b835260018101549285810193845260028201549160ff83169260408301936113ab816116da565b845260ff8160081c166113bd816116f8565b606084015260ff8160101c166113d2816116f8565b608084015260018060a01b038160181c1660a084015260c0830160ff8260b81c16815260e0840160ff8360c01c161515815261010085019060ff8460c81c161515825261012086019260ff8560d01c161515845260ff8988019560d81c161515855260ff6003870154976114798d820199808b5260048a015461018084015260058a0154996101a084019a8b52600660018060a01b03910154166101c084015215156117a7565b519a51985191611488836116da565b5116915115159251151593511515945115159551965197604051809d819c8c83528051809d81940152018d8d015e5f8c8b8d01015260208b01526114cb816116da565b60408a01526060890152608088015260a087015260c086015260e0850152610100840152610120830152601f01601f19168101030190f35b9350815f52845f205f905b85821061152257508101850193508061136f565b80548383018801529086019060010161150e565b60ff19168784015250151560051b8101850193508061136f565b346101ac5760203660031901126101ac57602061157a6004355f525f602052600160405f20015490565b604051908152f35b346101ac575f3660031901126101ac5760206040517ffc7c36207174f786648d2e624616a4b40e15fd7f0268b4e36af5057f0c43c8358152f35b346101ac575f3660031901126101ac576020600454604051908152f35b346101ac575f3660031901126101ac5760015460405160089190911c6001600160a01b03168152602090f35b346101ac5760203660031901126101ac5761161e6117e7565b604051602081019060043582526020815261163a60408261174d565b5190205f526003602052602060018060a01b0360405f205416604051908152f35b346101ac5760203660031901126101ac576004359063ffffffff60e01b82168092036101ac57602091637965db0b60e01b811490811561169d575b5015158152f35b6301ffc9a760e01b14905083611696565b600435906001600160a01b03821682036101ac57565b602435906001600160a01b03821682036101ac57565b600411156116e457565b634e487b7160e01b5f52602160045260245ffd5b600511156116e457565b9181601f840112156101ac5782359167ffffffffffffffff83116101ac57602083818601950101116101ac57565b6101e0810190811067ffffffffffffffff8211176106ab57604052565b90601f8019910116810190811067ffffffffffffffff8211176106ab57604052565b90600182811c9216801561179d575b602083101461178957565b634e487b7160e01b5f52602260045260245ffd5b91607f169161177e565b156117ae57565b60405162461bcd60e51b815260206004820152601160248201527010da5d1a5e995b881b9bdd08199bdd5b99607a1b6044820152606490fd5b335f9081527fd580a88be50b12ba2b1290af9bfe1c5ed9efc6313473cf5cb0f79f979d4e54fe602052604090205460ff161561181f57565b63e2517d3f60e01b5f52336004527f7cb8da4815c5c7bfec597d7479bf1f02def0b6d0f50cd2ad5eb80c69ac5c1a1b60245260445ffd5b335f9081527f7d7ffb7a348e1c6a02869081a26547b49160dd3df72d1d75a570eb9b698292ec602052604090205460ff161561188e57565b63e2517d3f60e01b5f52336004527fa49807205ce4d355092ef5a8a18f56e8913cf4a201fbe287825b095693c2177560245260445ffd5b5f8181526020818152604080832033845290915290205460ff16156118e75750565b63e2517d3f60e01b5f523360045260245260445ffd5b5f818152602081815260408083206001600160a01b038616845290915290205460ff1661197f575f818152602081815260408083206001600160a01b0395909516808452949091528120805460ff19166001179055339291907f2f8788117e7eff1d82e926ec794901d17c78024a50270940304540a733656f0d9080a4600190565b50505f90565b5f818152602081815260408083206001600160a01b038616845290915290205460ff161561197f575f818152602081815260408083206001600160a01b0395909516808452949091528120805460ff19169055339291907ff6391f5c32d9c69d2a47ea670b442974b53935d1edc7fd64eb21e047a839171b9080a4600190565b60ff60015416611a1157565b63d93c066560e01b5f5260045ffd5b91611a2a836116da565b60028314611a7e5750611a3c826116da565b60038214611a6a5750600190611a51816116da565b14611a5c5750600190565b6001600160a01b0316151590565b905060049150611a79816116f8565b141590565b925060049150611a8d816116f8565b14159081611a99575090565b60049150611a79816116f8565b8151919060418303611ad657611acf9250602082015190606060408401519301515f1a90611b5c565b9192909190565b50505f9160029190565b611ae9816116da565b80611af2575050565b611afb816116da565b60018103611b125763f645eedf60e01b5f5260045ffd5b611b1b816116da565b60028103611b36575063fce698f760e01b5f5260045260245ffd5b600390611b42816116da565b14611b4a5750565b6335e2f38360e21b5f5260045260245ffd5b91907f7fffffffffffffffffffffffffffffff5d576e7357a4501ddfe92f46681b20a08411611bde579160209360809260ff5f9560405194855216868401526040830152606082015282805260015afa15611bd3575f516001600160a01b03811615611bc957905f905f90565b505f906001905f90565b6040513d5f823e3d90fd5b5050505f916003919056fea264697066735822122096c1c985b52d0a149bae17083b53774784ddfa1c2833064932f5f3cb1b2bf20e64736f6c634300081c00332f8788117e7eff1d82e926ec794901d17c78024a50270940304540a733656f0d7d7ffb7a348e1c6a02869081a26547b49160dd3df72d1d75a570eb9b698292ecd580a88be50b12ba2b1290af9bfe1c5ed9efc6313473cf5cb0f79f979d4e54fe9750accf27f3aaa2ee9af8a0d75778e5f1905b9db8fe4b539d9e6ecc553b7f74ad3228b676f7d3cd4284a5443f17f1962b36e491b30a40b2405849e597ba5fb5","opcodes":"PUSH1 0x80 PUSH1 0x40 MSTORE CALLVALUE PUSH2 0x64 JUMPI PUSH1 0x1 PUSH32 0x9B779B17422D0DF92223018B32B4D1FA46E071723D6817E2486D003BECC55F00 SSTORE PUSH2 0x36 CALLER PUSH2 0x68 JUMP JUMPDEST POP PUSH2 0x40 CALLER PUSH2 0xDE JUMP JUMPDEST POP PUSH2 0x4A CALLER PUSH2 0x171 JUMP JUMPDEST POP PUSH2 0x54 CALLER PUSH2 0x204 JUMP JUMPDEST POP PUSH1 0x40 MLOAD PUSH2 0x1C1F SWAP1 DUP2 PUSH2 0x298 DUP3 CODECOPY RETURN JUMPDEST PUSH0 DUP1 REVERT JUMPDEST PUSH1 0x1 PUSH1 0x1 PUSH1 0xA0 SHL SUB DUP2 AND PUSH0 SWAP1 DUP2 MSTORE PUSH0 MLOAD PUSH1 0x20 PUSH2 0x1F37 PUSH0 CODECOPY PUSH0 MLOAD SWAP1 PUSH0 MSTORE PUSH1 0x20 MSTORE PUSH1 0x40 SWAP1 KECCAK256 SLOAD PUSH1 0xFF AND PUSH2 0xD9 JUMPI PUSH1 0x1 PUSH1 0x1 PUSH1 0xA0 SHL SUB AND PUSH0 DUP2 DUP2 MSTORE PUSH0 MLOAD PUSH1 0x20 PUSH2 0x1F37 PUSH0 CODECOPY PUSH0 MLOAD SWAP1 PUSH0 MSTORE PUSH1 0x20 MSTORE PUSH1 0x40 DUP2 KECCAK256 DUP1 SLOAD PUSH1 0xFF NOT AND PUSH1 0x1 OR SWAP1 SSTORE CALLER SWAP2 SWAP1 PUSH0 MLOAD PUSH1 0x20 PUSH2 0x1EB7 PUSH0 CODECOPY PUSH0 MLOAD SWAP1 PUSH0 MSTORE DUP2 DUP1 LOG4 PUSH1 0x1 SWAP1 JUMP JUMPDEST POP PUSH0 SWAP1 JUMP JUMPDEST PUSH1 0x1 PUSH1 0x1 PUSH1 0xA0 SHL SUB DUP2 AND PUSH0 SWAP1 DUP2 MSTORE PUSH0 MLOAD PUSH1 0x20 PUSH2 0x1ED7 PUSH0 CODECOPY PUSH0 MLOAD SWAP1 PUSH0 MSTORE PUSH1 0x20 MSTORE PUSH1 0x40 SWAP1 KECCAK256 SLOAD PUSH1 0xFF AND PUSH2 0xD9 JUMPI PUSH1 0x1 PUSH1 0x1 PUSH1 0xA0 SHL SUB AND PUSH0 DUP2 DUP2 MSTORE PUSH0 MLOAD PUSH1 0x20 PUSH2 0x1ED7 PUSH0 CODECOPY PUSH0 MLOAD SWAP1 PUSH0 MSTORE PUSH1 0x20 MSTORE PUSH1 0x40 DUP2 KECCAK256 DUP1 SLOAD PUSH1 0xFF NOT AND PUSH1 0x1 OR SWAP1 SSTORE CALLER SWAP2 SWAP1 PUSH32 0xA49807205CE4D355092EF5A8A18F56E8913CF4A201FBE287825B095693C21775 SWAP1 PUSH0 MLOAD PUSH1 0x20 PUSH2 0x1EB7 PUSH0 CODECOPY PUSH0 MLOAD SWAP1 PUSH0 MSTORE SWAP1 DUP1 LOG4 PUSH1 0x1 SWAP1 JUMP JUMPDEST PUSH1 0x1 PUSH1 0x1 PUSH1 0xA0 SHL SUB DUP2 AND PUSH0 SWAP1 DUP2 MSTORE PUSH0 MLOAD PUSH1 0x20 PUSH2 0x1F17 PUSH0 CODECOPY PUSH0 MLOAD SWAP1 PUSH0 MSTORE PUSH1 0x20 MSTORE PUSH1 0x40 SWAP1 KECCAK256 SLOAD PUSH1 0xFF AND PUSH2 0xD9 JUMPI PUSH1 0x1 PUSH1 0x1 PUSH1 0xA0 SHL SUB AND PUSH0 DUP2 DUP2 MSTORE PUSH0 MLOAD PUSH1 0x20 PUSH2 0x1F17 PUSH0 CODECOPY PUSH0 MLOAD SWAP1 PUSH0 MSTORE PUSH1 0x20 MSTORE PUSH1 0x40 DUP2 KECCAK256 DUP1 SLOAD PUSH1 0xFF NOT AND PUSH1 0x1 OR SWAP1 SSTORE CALLER SWAP2 SWAP1 PUSH32 0xFC7C36207174F786648D2E624616A4B40E15FD7F0268B4E36AF5057F0C43C835 SWAP1 PUSH0 MLOAD PUSH1 0x20 PUSH2 0x1EB7 PUSH0 CODECOPY PUSH0 MLOAD SWAP1 PUSH0 MSTORE SWAP1 DUP1 LOG4 PUSH1 0x1 SWAP1 JUMP JUMPDEST PUSH1 0x1 PUSH1 0x1 PUSH1 0xA0 SHL SUB DUP2 AND PUSH0 SWAP1 DUP2 MSTORE PUSH0 MLOAD PUSH1 0x20 PUSH2 0x1EF7 PUSH0 CODECOPY PUSH0 MLOAD SWAP1 PUSH0 MSTORE PUSH1 0x20 MSTORE PUSH1 0x40 SWAP1 KECCAK256 SLOAD PUSH1 0xFF AND PUSH2 0xD9 JUMPI PUSH1 0x1 PUSH1 0x1 PUSH1 0xA0 SHL SUB AND PUSH0 DUP2 DUP2 MSTORE PUSH0 MLOAD PUSH1 0x20 PUSH2 0x1EF7 PUSH0 CODECOPY PUSH0 MLOAD SWAP1 PUSH0 MSTORE PUSH1 0x20 MSTORE PUSH1 0x40 DUP2 KECCAK256 DUP1 SLOAD PUSH1 0xFF NOT AND PUSH1 0x1 OR SWAP1 SSTORE CALLER SWAP2 SWAP1 PUSH32 0x7CB8DA4815C5C7BFEC597D7479BF1F02DEF0B6D0F50CD2AD5EB80C69AC5C1A1B SWAP1 PUSH0 MLOAD PUSH1 0x20 PUSH2 0x1EB7 PUSH0 CODECOPY PUSH0 MLOAD SWAP1 PUSH0 MSTORE SWAP1 DUP1 LOG4 PUSH1 0x1 SWAP1 JUMP INVALID PUSH1 0x80 DUP1 PUSH1 0x40 MSTORE PUSH1 0x4 CALLDATASIZE LT ISZERO PUSH2 0x12 JUMPI PUSH0 DUP1 REVERT JUMPDEST PUSH0 CALLDATALOAD PUSH1 0xE0 SHR SWAP1 DUP2 PUSH4 0x1FFC9A7 EQ PUSH2 0x165B JUMPI POP DUP1 PUSH4 0xF04912A EQ PUSH2 0x1605 JUMPI DUP1 PUSH4 0x10E381C3 EQ PUSH2 0x15D9 JUMPI DUP1 PUSH4 0x1E4C9358 EQ PUSH2 0x15BC JUMPI DUP1 PUSH4 0x2426BB38 EQ PUSH2 0x1582 JUMPI DUP1 PUSH4 0x248A9CA3 EQ PUSH2 0x1550 JUMPI DUP1 PUSH4 0x2B43E332 EQ PUSH2 0x1304 JUMPI DUP1 PUSH4 0x2F2FF15D EQ PUSH2 0x12C7 JUMPI DUP1 PUSH4 0x36568ABE EQ PUSH2 0x1283 JUMPI DUP1 PUSH4 0x3F4BA83A EQ PUSH2 0x121D JUMPI DUP1 PUSH4 0x5138EA6A EQ PUSH2 0x11D7 JUMPI DUP1 PUSH4 0x5C975ABB EQ PUSH2 0x11B5 JUMPI DUP1 PUSH4 0x5F87B2AF EQ PUSH2 0x117B JUMPI DUP1 PUSH4 0x6C0E1CCD EQ PUSH2 0x10AB JUMPI DUP1 PUSH4 0x75B238FC EQ PUSH2 0x1071 JUMPI DUP1 PUSH4 0x7CBC764C EQ PUSH2 0xF6F JUMPI DUP1 PUSH4 0x8456CB59 EQ PUSH2 0xF17 JUMPI DUP1 PUSH4 0x8ED64D41 EQ PUSH2 0xED4 JUMPI DUP1 PUSH4 0x91D14854 EQ PUSH2 0xE8C JUMPI DUP1 PUSH4 0xA217FDDF EQ PUSH2 0xE72 JUMPI DUP1 PUSH4 0xBB82542D EQ PUSH2 0xE2A JUMPI DUP1 PUSH4 0xCC7B7245 EQ PUSH2 0xD52 JUMPI DUP1 PUSH4 0xD547741F EQ PUSH2 0xD0E JUMPI DUP1 PUSH4 0xD5BAA3AC EQ PUSH2 0xCCB JUMPI DUP1 PUSH4 0xD8C6B3D9 EQ PUSH2 0xC81 JUMPI DUP1 PUSH4 0xE34E3FAA EQ PUSH2 0xBBD JUMPI DUP1 PUSH4 0xEE93558E EQ PUSH2 0x9BB JUMPI DUP1 PUSH4 0xF672D4C0 EQ PUSH2 0x981 JUMPI DUP1 PUSH4 0xF9BD4269 EQ PUSH2 0x1B0 JUMPI PUSH4 0xFB6FE342 EQ PUSH2 0x166 JUMPI PUSH0 DUP1 REVERT JUMPDEST CALLVALUE PUSH2 0x1AC JUMPI PUSH1 0x20 CALLDATASIZE PUSH1 0x3 NOT ADD SLT PUSH2 0x1AC JUMPI PUSH1 0x1 PUSH1 0x1 PUSH1 0xA0 SHL SUB PUSH2 0x187 PUSH2 0x16AE JUMP JUMPDEST AND PUSH0 MSTORE PUSH1 0x2 PUSH1 0x20 MSTORE PUSH1 0x20 PUSH1 0x1 DUP1 PUSH1 0xA0 SHL SUB PUSH1 0x2 PUSH1 0x40 PUSH0 KECCAK256 ADD SLOAD PUSH1 0x18 SHR AND PUSH1 0x40 MLOAD SWAP1 DUP2 MSTORE RETURN JUMPDEST PUSH0 DUP1 REVERT JUMPDEST CALLVALUE PUSH2 0x1AC JUMPI PUSH2 0x160 CALLDATASIZE PUSH1 0x3 NOT ADD SLT PUSH2 0x1AC JUMPI PUSH1 0x24 CALLDATALOAD PUSH8 0xFFFFFFFFFFFFFFFF DUP2 GT PUSH2 0x1AC JUMPI PUSH2 0x1E2 SWAP1 CALLDATASIZE SWAP1 PUSH1 0x4 ADD PUSH2 0x1702 JUMP JUMPDEST PUSH1 0xFF PUSH1 0x64 CALLDATALOAD AND PUSH1 0x64 CALLDATALOAD SUB PUSH2 0x1AC JUMPI PUSH1 0x84 CALLDATALOAD SWAP1 DUP2 ISZERO ISZERO DUP3 SUB PUSH2 0x1AC JUMPI PUSH1 0xA4 CALLDATALOAD SWAP1 DUP2 ISZERO ISZERO DUP3 SUB PUSH2 0x1AC JUMPI PUSH1 0x4 PUSH1 0xC4 CALLDATALOAD LT ISZERO PUSH2 0x1AC JUMPI PUSH1 0x5 PUSH1 0xE4 CALLDATALOAD LT ISZERO PUSH2 0x1AC JUMPI PUSH1 0x5 PUSH2 0x104 CALLDATALOAD LT ISZERO PUSH2 0x1AC JUMPI PUSH2 0x124 CALLDATALOAD SWAP1 PUSH1 0x1 PUSH1 0x1 PUSH1 0xA0 SHL SUB DUP3 AND DUP3 SUB PUSH2 0x1AC JUMPI PUSH2 0x144 CALLDATALOAD PUSH8 0xFFFFFFFFFFFFFFFF DUP2 GT PUSH2 0x1AC JUMPI PUSH2 0x262 SWAP1 CALLDATASIZE SWAP1 PUSH1 0x4 ADD PUSH2 0x1702 JUMP JUMPDEST PUSH1 0x2 PUSH32 0x9B779B17422D0DF92223018B32B4D1FA46E071723D6817E2486D003BECC55F00 SLOAD EQ PUSH2 0x972 JUMPI PUSH1 0x2 PUSH32 0x9B779B17422D0DF92223018B32B4D1FA46E071723D6817E2486D003BECC55F00 SSTORE PUSH2 0x2B7 PUSH2 0x1A05 JUMP JUMPDEST PUSH1 0x1 SLOAD PUSH1 0x8 SHR PUSH1 0x1 PUSH1 0x1 PUSH1 0xA0 SHL SUB AND SWAP2 DUP3 ISZERO PUSH2 0x92D JUMPI DUP4 ISZERO PUSH2 0x8F8 JUMPI CALLER PUSH0 MSTORE PUSH1 0x2 PUSH1 0x20 MSTORE PUSH1 0x3 PUSH1 0x40 PUSH0 KECCAK256 ADD SLOAD PUSH2 0x8BE JUMPI PUSH1 0x44 CALLDATALOAD PUSH0 SWAP1 DUP2 MSTORE PUSH1 0x3 PUSH1 0x20 MSTORE PUSH1 0x40 SWAP1 KECCAK256 SLOAD PUSH1 0x1 PUSH1 0x1 PUSH1 0xA0 SHL SUB AND PUSH2 0x879 JUMPI PUSH1 0x4 CALLDATALOAD PUSH0 MSTORE PUSH1 0x5 PUSH1 0x20 MSTORE PUSH1 0xFF PUSH1 0x40 PUSH0 KECCAK256 SLOAD AND PUSH2 0x834 JUMPI PUSH2 0x326 PUSH1 0xC4 CALLDATALOAD PUSH2 0x16DA JUMP JUMPDEST PUSH2 0x331 PUSH1 0xE4 CALLDATALOAD PUSH2 0x16F8 JUMP JUMPDEST PUSH2 0x33D PUSH2 0x104 CALLDATALOAD PUSH2 0x16F8 JUMP JUMPDEST PUSH1 0x40 MLOAD PUSH1 0x4 CALLDATALOAD PUSH1 0x20 DUP3 ADD MSTORE CALLER PUSH1 0x40 DUP3 ADD MSTORE PUSH1 0x44 CALLDATALOAD PUSH1 0x60 DUP3 ADD MSTORE PUSH1 0xFF PUSH1 0x64 CALLDATALOAD AND PUSH1 0x80 DUP3 ADD MSTORE DUP8 ISZERO ISZERO PUSH1 0xA0 DUP3 ADD MSTORE DUP7 ISZERO ISZERO PUSH1 0xC0 DUP3 ADD MSTORE PUSH1 0xFF PUSH1 0xC4 CALLDATALOAD AND PUSH1 0xE0 DUP3 ADD MSTORE PUSH1 0xFF PUSH1 0xE4 CALLDATALOAD AND PUSH2 0x100 DUP3 ADD MSTORE PUSH1 0xFF PUSH2 0x104 CALLDATALOAD AND PUSH2 0x120 DUP3 ADD MSTORE PUSH1 0x1 DUP1 PUSH1 0xA0 SHL SUB DUP7 AND PUSH2 0x140 DUP3 ADD MSTORE PUSH2 0x140 DUP2 MSTORE PUSH2 0x3B5 PUSH2 0x160 DUP3 PUSH2 0x174D JUMP JUMPDEST PUSH1 0x20 DUP2 MLOAD SWAP2 ADD KECCAK256 PUSH32 0x19457468657265756D205369676E6564204D6573736167653A0A333200000000 PUSH0 MSTORE PUSH1 0x1C MSTORE PUSH1 0x3C PUSH0 KECCAK256 PUSH8 0xFFFFFFFFFFFFFFFF DUP4 GT PUSH2 0x6AB JUMPI PUSH1 0x40 MLOAD SWAP1 PUSH2 0x40D PUSH1 0x1F DUP6 ADD PUSH1 0x1F NOT AND PUSH1 0x20 ADD DUP4 PUSH2 0x174D JUMP JUMPDEST DUP4 DUP3 MSTORE CALLDATASIZE DUP5 DUP5 ADD GT PUSH2 0x1AC JUMPI PUSH0 PUSH1 0x20 DUP6 PUSH2 0x43B SWAP7 PUSH2 0x432 SWAP7 DUP4 DUP8 ADD CALLDATACOPY DUP5 ADD ADD MSTORE PUSH2 0x1AA6 JUMP JUMPDEST SWAP1 SWAP3 SWAP2 SWAP3 PUSH2 0x1AE0 JUMP JUMPDEST PUSH1 0x1 PUSH1 0x1 PUSH1 0xA0 SHL SUB AND SUB PUSH2 0x7EF JUMPI PUSH1 0x4 CALLDATALOAD PUSH0 MSTORE PUSH1 0x5 PUSH1 0x20 MSTORE PUSH1 0x40 PUSH0 KECCAK256 PUSH1 0x1 PUSH1 0xFF NOT DUP3 SLOAD AND OR SWAP1 SSTORE CALLER PUSH0 MSTORE PUSH1 0x2 PUSH1 0x20 MSTORE PUSH1 0x40 PUSH0 KECCAK256 SWAP5 PUSH8 0xFFFFFFFFFFFFFFFF DUP3 GT PUSH2 0x6AB JUMPI DUP2 SWAP1 PUSH2 0x48A DUP8 SLOAD PUSH2 0x176F JUMP JUMPDEST PUSH1 0x1F DUP2 GT PUSH2 0x79F JUMPI JUMPDEST POP PUSH0 SWAP1 PUSH1 0x1F DUP4 GT PUSH1 0x1 EQ PUSH2 0x738 JUMPI PUSH0 SWAP3 PUSH2 0x72D JUMPI JUMPDEST POP POP DUP2 PUSH1 0x1 SHL SWAP2 PUSH0 NOT SWAP1 PUSH1 0x3 SHL SHR NOT AND OR DUP5 SSTORE JUMPDEST PUSH1 0x44 CALLDATALOAD PUSH1 0x1 DUP6 ADD SSTORE PUSH1 0x2 DUP5 ADD SWAP2 PUSH2 0x4D4 PUSH1 0xC4 CALLDATALOAD PUSH2 0x16DA JUMP JUMPDEST DUP3 SLOAD PUSH2 0x4E1 PUSH1 0xE4 CALLDATALOAD PUSH2 0x16F8 JUMP JUMPDEST PUSH2 0x4ED PUSH2 0x104 CALLDATALOAD PUSH2 0x16F8 JUMP JUMPDEST DUP5 ISZERO ISZERO PUSH1 0xC0 SHL PUSH1 0xFF PUSH1 0xC0 SHL AND PUSH1 0x64 CALLDATALOAD PUSH1 0xB8 SHL PUSH1 0xFF PUSH1 0xB8 SHL AND PUSH1 0x1 PUSH1 0x1 PUSH1 0xD0 SHL SUB NOT SWAP1 SWAP3 AND PUSH1 0xC4 CALLDATALOAD PUSH1 0xFF AND OR PUSH1 0xE4 CALLDATALOAD PUSH1 0x8 SHL PUSH2 0xFF00 AND OR PUSH2 0x104 CALLDATALOAD PUSH1 0x10 SHL PUSH3 0xFF0000 AND OR PUSH1 0x18 DUP6 SWAP1 SHL PUSH4 0x1000000 PUSH1 0x1 PUSH1 0xB8 SHL SUB AND OR SWAP2 SWAP1 SWAP2 OR OR DUP2 ISZERO ISZERO PUSH1 0xC8 SHL PUSH1 0xFF PUSH1 0xC8 SHL AND OR DUP4 SSTORE TIMESTAMP PUSH1 0x3 DUP7 ADD DUP2 SWAP1 SSTORE PUSH1 0x4 DUP7 ADD SSTORE PUSH1 0x6 DUP6 ADD DUP1 SLOAD PUSH1 0x1 PUSH1 0x1 PUSH1 0xA0 SHL SUB NOT AND CALLER OR SWAP1 SSTORE DUP4 PUSH2 0x71C JUMPI JUMPDEST DUP4 PUSH2 0x713 JUMPI JUMPDEST POP DUP3 PUSH2 0x6F7 JUMPI JUMPDEST POP DUP1 SLOAD PUSH2 0xFFFF PUSH1 0xD0 SHL NOT AND DUP3 ISZERO DUP1 ISZERO PUSH1 0xD0 SHL PUSH1 0xFF PUSH1 0xD0 SHL AND SWAP2 SWAP1 SWAP2 OR PUSH1 0xD8 SWAP2 SWAP1 SWAP2 SHL PUSH1 0xFF PUSH1 0xD8 SHL AND OR SWAP1 SSTORE PUSH2 0x6BF JUMPI JUMPDEST POP PUSH1 0x44 CALLDATALOAD PUSH0 SWAP1 DUP2 MSTORE PUSH1 0x3 PUSH1 0x20 MSTORE PUSH1 0x40 SWAP1 KECCAK256 DUP1 SLOAD PUSH1 0x1 PUSH1 0x1 PUSH1 0xA0 SHL SUB NOT AND CALLER OR SWAP1 SSTORE PUSH1 0x4 SLOAD PUSH9 0x10000000000000000 DUP2 LT ISZERO PUSH2 0x6AB JUMPI PUSH1 0x1 DUP2 ADD DUP1 PUSH1 0x4 SSTORE DUP2 LT ISZERO PUSH2 0x697 JUMPI PUSH1 0x4 PUSH0 MSTORE PUSH32 0x8A35ACFBC15FF81A39AE7D344FD709F28E8600B4AA8C65C6B64BFE7FE36BD19B ADD DUP1 SLOAD PUSH1 0x1 PUSH1 0x1 PUSH1 0xA0 SHL SUB NOT AND CALLER OR SWAP1 SSTORE PUSH1 0x40 MLOAD PUSH2 0x642 PUSH1 0xC4 CALLDATALOAD PUSH2 0x16DA JUMP JUMPDEST PUSH1 0xC4 CALLDATALOAD DUP2 MSTORE PUSH1 0x44 CALLDATALOAD SWAP1 PUSH32 0xDC1039B78200ADC65F805A73A188310F57D38537FDA3F530515310163A57E9B7 PUSH1 0x20 CALLER SWAP3 LOG3 PUSH1 0x1 PUSH32 0x9B779B17422D0DF92223018B32B4D1FA46E071723D6817E2486D003BECC55F00 SSTORE STOP JUMPDEST PUSH4 0x4E487B71 PUSH1 0xE0 SHL PUSH0 MSTORE PUSH1 0x32 PUSH1 0x4 MSTORE PUSH1 0x24 PUSH0 REVERT JUMPDEST PUSH4 0x4E487B71 PUSH1 0xE0 SHL PUSH0 MSTORE PUSH1 0x41 PUSH1 0x4 MSTORE PUSH1 0x24 PUSH0 REVERT JUMPDEST PUSH1 0x5 TIMESTAMP SWAP2 ADD SSTORE PUSH1 0x40 MLOAD TIMESTAMP DUP2 MSTORE PUSH32 0x7DC2F6E343E2CBC3059024808B49F5B4A3336D1E87C5D1C4AA999A71D10585AF PUSH1 0x20 CALLER SWAP3 LOG2 DUP1 PUSH2 0x5BA JUMP JUMPDEST PUSH2 0x70C SWAP2 SWAP3 POP PUSH2 0x104 CALLDATALOAD PUSH1 0xE4 CALLDATALOAD PUSH1 0xC4 CALLDATALOAD PUSH2 0x1A20 JUMP JUMPDEST SWAP1 DUP4 PUSH2 0x58A JUMP JUMPDEST ISZERO SWAP3 POP DUP5 PUSH2 0x583 JUMP JUMPDEST PUSH1 0x12 PUSH1 0x64 CALLDATALOAD PUSH1 0xFF AND LT ISZERO SWAP4 POP PUSH2 0x57D JUMP JUMPDEST ADD CALLDATALOAD SWAP1 POP DUP7 DUP1 PUSH2 0x4A8 JUMP JUMPDEST SWAP1 SWAP2 POP PUSH1 0x1F NOT DUP4 AND SWAP2 DUP8 PUSH0 MSTORE PUSH1 0x20 PUSH0 KECCAK256 SWAP3 PUSH0 JUMPDEST DUP2 DUP2 LT PUSH2 0x787 JUMPI POP SWAP1 DUP5 PUSH1 0x1 SWAP6 SWAP5 SWAP4 SWAP3 LT PUSH2 0x76E JUMPI JUMPDEST POP POP POP DUP2 SHL ADD DUP5 SSTORE PUSH2 0x4BC JUMP JUMPDEST ADD CALLDATALOAD PUSH0 NOT PUSH1 0x3 DUP5 SWAP1 SHL PUSH1 0xF8 AND SHR NOT AND SWAP1 SSTORE DUP7 DUP1 DUP1 PUSH2 0x761 JUMP JUMPDEST SWAP2 SWAP4 PUSH1 0x20 PUSH1 0x1 DUP2 SWAP3 DUP8 DUP8 ADD CALLDATALOAD DUP2 SSTORE ADD SWAP6 ADD SWAP3 ADD PUSH2 0x74B JUMP JUMPDEST SWAP1 SWAP2 POP DUP7 PUSH0 MSTORE PUSH1 0x20 PUSH0 KECCAK256 PUSH1 0x1F DUP5 ADD PUSH1 0x5 SHR DUP2 ADD SWAP2 PUSH1 0x20 DUP6 LT PUSH2 0x7E5 JUMPI JUMPDEST SWAP1 PUSH1 0x1F DUP6 SWAP5 SWAP4 SWAP3 ADD PUSH1 0x5 SHR ADD SWAP1 JUMPDEST DUP2 DUP2 LT PUSH2 0x7D7 JUMPI POP PUSH2 0x493 JUMP JUMPDEST PUSH0 DUP2 SSTORE DUP5 SWAP4 POP PUSH1 0x1 ADD PUSH2 0x7CA JUMP JUMPDEST SWAP1 SWAP2 POP DUP2 SWAP1 PUSH2 0x7BC JUMP JUMPDEST PUSH1 0x40 MLOAD PUSH3 0x461BCD PUSH1 0xE5 SHL DUP2 MSTORE PUSH1 0x20 PUSH1 0x4 DUP3 ADD MSTORE PUSH1 0x1D PUSH1 0x24 DUP3 ADD MSTORE PUSH32 0x496E76616C6964206174746573746174696F6E207369676E6174757265000000 PUSH1 0x44 DUP3 ADD MSTORE PUSH1 0x64 SWAP1 REVERT JUMPDEST PUSH1 0x40 MLOAD PUSH3 0x461BCD PUSH1 0xE5 SHL DUP2 MSTORE PUSH1 0x20 PUSH1 0x4 DUP3 ADD MSTORE PUSH1 0x18 PUSH1 0x24 DUP3 ADD MSTORE PUSH32 0x4174746573746174696F6E20616C726561647920757365640000000000000000 PUSH1 0x44 DUP3 ADD MSTORE PUSH1 0x64 SWAP1 REVERT JUMPDEST PUSH1 0x40 MLOAD PUSH3 0x461BCD PUSH1 0xE5 SHL DUP2 MSTORE PUSH1 0x20 PUSH1 0x4 DUP3 ADD MSTORE PUSH1 0x1B PUSH1 0x24 DUP3 ADD MSTORE PUSH32 0x466179646120494420616C726561647920726567697374657265640000000000 PUSH1 0x44 DUP3 ADD MSTORE PUSH1 0x64 SWAP1 REVERT JUMPDEST PUSH1 0x40 MLOAD PUSH3 0x461BCD PUSH1 0xE5 SHL DUP2 MSTORE PUSH1 0x20 PUSH1 0x4 DUP3 ADD MSTORE PUSH1 0x12 PUSH1 0x24 DUP3 ADD MSTORE PUSH18 0x105B1C9958591E481C9959DA5CDD195C9959 PUSH1 0x72 SHL PUSH1 0x44 DUP3 ADD MSTORE PUSH1 0x64 SWAP1 REVERT JUMPDEST PUSH1 0x40 MLOAD PUSH3 0x461BCD PUSH1 0xE5 SHL DUP2 MSTORE PUSH1 0x20 PUSH1 0x4 DUP3 ADD MSTORE PUSH1 0xD PUSH1 0x24 DUP3 ADD MSTORE PUSH13 0x13985B59481C995C5D5A5C9959 PUSH1 0x9A SHL PUSH1 0x44 DUP3 ADD MSTORE PUSH1 0x64 SWAP1 REVERT JUMPDEST PUSH1 0x40 MLOAD PUSH3 0x461BCD PUSH1 0xE5 SHL DUP2 MSTORE PUSH1 0x20 PUSH1 0x4 DUP3 ADD MSTORE PUSH1 0x1D PUSH1 0x24 DUP3 ADD MSTORE PUSH32 0x4661796461206174746573746572206E6F7420636F6E66696775726564000000 PUSH1 0x44 DUP3 ADD MSTORE PUSH1 0x64 SWAP1 REVERT JUMPDEST PUSH4 0x3EE5AEB5 PUSH1 0xE0 SHL PUSH0 MSTORE PUSH1 0x4 PUSH0 REVERT JUMPDEST CALLVALUE PUSH2 0x1AC JUMPI PUSH0 CALLDATASIZE PUSH1 0x3 NOT ADD SLT PUSH2 0x1AC JUMPI PUSH1 0x20 PUSH1 0x40 MLOAD PUSH32 0x7CB8DA4815C5C7BFEC597D7479BF1F02DEF0B6D0F50CD2AD5EB80C69AC5C1A1B DUP2 MSTORE RETURN JUMPDEST CALLVALUE PUSH2 0x1AC JUMPI PUSH1 0x20 CALLDATASIZE PUSH1 0x3 NOT ADD SLT PUSH2 0x1AC JUMPI PUSH1 0x1 PUSH1 0x1 PUSH1 0xA0 SHL SUB PUSH2 0x9DC PUSH2 0x16AE JUMP JUMPDEST AND PUSH0 MSTORE PUSH1 0x2 PUSH1 0x20 MSTORE PUSH1 0x40 PUSH0 KECCAK256 PUSH1 0x40 MLOAD PUSH2 0x9F4 DUP2 PUSH2 0x1730 JUMP JUMPDEST PUSH1 0x40 MLOAD SWAP2 PUSH0 SWAP3 DUP2 SLOAD PUSH2 0xA05 DUP2 PUSH2 0x176F JUMP JUMPDEST DUP1 DUP4 MSTORE SWAP1 PUSH1 0x1 DUP2 AND SWAP1 DUP2 ISZERO PUSH2 0xB99 JUMPI POP PUSH1 0x1 EQ PUSH2 0xB60 JUMPI JUMPDEST POP PUSH2 0xA2C DUP2 PUSH1 0xC0 SWAP6 SUB DUP3 PUSH2 0x174D JUMP JUMPDEST DUP3 MSTORE PUSH1 0x1 DUP2 ADD SLOAD PUSH1 0x20 DUP4 ADD MSTORE PUSH1 0x2 DUP2 ADD SLOAD SWAP2 PUSH1 0x40 DUP2 ADD SWAP2 PUSH1 0xFF DUP5 AND PUSH2 0xA50 DUP2 PUSH2 0x16DA JUMP JUMPDEST DUP4 MSTORE PUSH1 0xFF DUP5 PUSH1 0x8 SHR AND PUSH2 0xA62 DUP2 PUSH2 0x16F8 JUMP JUMPDEST PUSH1 0x60 DUP4 ADD MSTORE PUSH1 0xFF DUP5 PUSH1 0x10 SHR AND PUSH2 0xA77 DUP2 PUSH2 0x16F8 JUMP JUMPDEST PUSH1 0x80 DUP4 ADD MSTORE PUSH1 0x1 DUP1 PUSH1 0xA0 SHL SUB DUP5 PUSH1 0x18 SHR AND PUSH1 0xA0 DUP4 ADD MSTORE PUSH1 0xFF DUP5 PUSH1 0xB8 SHR AND DUP6 DUP4 ADD MSTORE PUSH1 0xE0 DUP3 ADD SWAP4 PUSH1 0xFF DUP2 DUP8 SHR AND ISZERO ISZERO DUP6 MSTORE PUSH1 0xFF DUP2 PUSH1 0xC8 SHR AND ISZERO ISZERO PUSH2 0x100 DUP5 ADD MSTORE PUSH2 0x120 DUP4 ADD SWAP4 PUSH1 0xFF DUP3 PUSH1 0xD0 SHR AND ISZERO ISZERO DUP6 MSTORE PUSH1 0xFF PUSH2 0x140 DUP6 ADD SWAP3 PUSH1 0xD8 SHR AND ISZERO ISZERO DUP3 MSTORE PUSH2 0xB1B PUSH1 0x3 DUP5 ADD SLOAD PUSH2 0x160 DUP7 ADD SWAP6 DUP2 DUP8 MSTORE PUSH1 0x4 DUP7 ADD SLOAD PUSH2 0x180 DUP3 ADD MSTORE PUSH2 0x1C0 PUSH1 0x5 DUP8 ADD SLOAD SWAP7 PUSH2 0x1A0 DUP4 ADD SWAP8 DUP9 MSTORE PUSH1 0x6 PUSH1 0x1 DUP1 PUSH1 0xA0 SHL SUB SWAP2 ADD SLOAD AND SWAP2 ADD MSTORE ISZERO ISZERO PUSH2 0x17A7 JUMP JUMPDEST MLOAD SWAP5 PUSH2 0xB26 DUP7 PUSH2 0x16DA JUMP JUMPDEST MLOAD ISZERO ISZERO SWAP4 MLOAD ISZERO ISZERO SWAP1 MLOAD ISZERO ISZERO SWAP2 MLOAD SWAP3 MLOAD SWAP4 PUSH1 0x40 MLOAD SWAP6 PUSH2 0xB43 DUP2 PUSH2 0x16DA JUMP JUMPDEST DUP7 MSTORE PUSH1 0x20 DUP7 ADD MSTORE PUSH1 0x40 DUP6 ADD MSTORE PUSH1 0x60 DUP5 ADD MSTORE PUSH1 0x80 DUP4 ADD MSTORE PUSH1 0xA0 DUP3 ADD MSTORE RETURN JUMPDEST SWAP4 POP DUP2 PUSH0 MSTORE PUSH1 0x20 PUSH0 KECCAK256 PUSH0 SWAP1 JUMPDEST DUP6 DUP3 LT PUSH2 0xB83 JUMPI POP DUP2 ADD PUSH1 0x20 ADD SWAP4 POP PUSH2 0xA2C PUSH2 0xA1D JUMP JUMPDEST PUSH1 0x1 DUP2 PUSH1 0x20 SWAP3 SLOAD DUP4 DUP6 DUP8 ADD ADD MSTORE ADD SWAP2 ADD SWAP1 PUSH2 0xB6C JUMP JUMPDEST PUSH1 0xFF NOT AND PUSH1 0x20 DUP1 DUP6 ADD SWAP2 SWAP1 SWAP2 MSTORE SWAP2 ISZERO ISZERO PUSH1 0x5 SHL DUP4 ADD SWAP1 SWAP2 ADD SWAP5 POP PUSH2 0xA2C SWAP1 POP PUSH2 0xA1D JUMP JUMPDEST CALLVALUE PUSH2 0x1AC JUMPI PUSH1 0x20 CALLDATASIZE PUSH1 0x3 NOT ADD SLT PUSH2 0x1AC JUMPI PUSH2 0xBD6 PUSH2 0x16AE JUMP JUMPDEST PUSH2 0xBDE PUSH2 0x1856 JUMP JUMPDEST PUSH1 0x1 DUP1 PUSH1 0xA0 SHL SUB AND DUP1 PUSH0 MSTORE PUSH1 0x2 PUSH1 0x20 MSTORE PUSH1 0x2 PUSH1 0x40 PUSH0 KECCAK256 PUSH2 0xC03 PUSH1 0x3 DUP3 ADD SLOAD ISZERO ISZERO PUSH2 0x17A7 JUMP JUMPDEST ADD DUP1 SLOAD PUSH1 0xFF DUP2 PUSH1 0xD0 SHR AND PUSH2 0xC49 JUMPI PUSH2 0xFFFF PUSH1 0xD0 SHL NOT AND SWAP1 SSTORE PUSH1 0x40 MLOAD TIMESTAMP DUP2 MSTORE PUSH32 0x706880F42DF1094DB2C4679BAE3C7A935123950002744ABAF334AE0ADEC79E2A SWAP1 PUSH1 0x20 SWAP1 LOG2 STOP JUMPDEST PUSH1 0x40 MLOAD PUSH3 0x461BCD PUSH1 0xE5 SHL DUP2 MSTORE PUSH1 0x20 PUSH1 0x4 DUP3 ADD MSTORE PUSH1 0x10 PUSH1 0x24 DUP3 ADD MSTORE PUSH16 0x105B1C9958591E48185C1C1C9BDD9959 PUSH1 0x82 SHL PUSH1 0x44 DUP3 ADD MSTORE PUSH1 0x64 SWAP1 REVERT JUMPDEST CALLVALUE PUSH2 0x1AC JUMPI PUSH1 0x20 CALLDATASIZE PUSH1 0x3 NOT ADD SLT PUSH2 0x1AC JUMPI PUSH1 0x1 PUSH1 0x1 PUSH1 0xA0 SHL SUB PUSH2 0xCA2 PUSH2 0x16AE JUMP JUMPDEST AND PUSH0 MSTORE PUSH1 0x2 PUSH1 0x20 MSTORE PUSH1 0x20 PUSH1 0xFF PUSH1 0x2 PUSH1 0x40 PUSH0 KECCAK256 ADD SLOAD PUSH1 0x8 SHR AND PUSH1 0x40 MLOAD SWAP1 PUSH2 0xCC7 DUP2 PUSH2 0x16F8 JUMP JUMPDEST DUP2 MSTORE RETURN JUMPDEST CALLVALUE PUSH2 0x1AC JUMPI PUSH1 0x20 CALLDATASIZE PUSH1 0x3 NOT ADD SLT PUSH2 0x1AC JUMPI PUSH1 0x1 PUSH1 0x1 PUSH1 0xA0 SHL SUB PUSH2 0xCEC PUSH2 0x16AE JUMP JUMPDEST AND PUSH0 MSTORE PUSH1 0x2 PUSH1 0x20 MSTORE PUSH1 0x20 PUSH1 0xFF PUSH1 0x2 PUSH1 0x40 PUSH0 KECCAK256 ADD SLOAD AND PUSH1 0x40 MLOAD SWAP1 PUSH2 0xCC7 DUP2 PUSH2 0x16DA JUMP JUMPDEST CALLVALUE PUSH2 0x1AC JUMPI PUSH1 0x40 CALLDATASIZE PUSH1 0x3 NOT ADD SLT PUSH2 0x1AC JUMPI PUSH2 0xD50 PUSH1 0x4 CALLDATALOAD PUSH2 0xD2D PUSH2 0x16C4 JUMP JUMPDEST SWAP1 PUSH2 0xD4B PUSH2 0xD46 DUP3 PUSH0 MSTORE PUSH0 PUSH1 0x20 MSTORE PUSH1 0x1 PUSH1 0x40 PUSH0 KECCAK256 ADD SLOAD SWAP1 JUMP JUMPDEST PUSH2 0x18C5 JUMP JUMPDEST PUSH2 0x1985 JUMP JUMPDEST STOP JUMPDEST CALLVALUE PUSH2 0x1AC JUMPI PUSH1 0x20 CALLDATASIZE PUSH1 0x3 NOT ADD SLT PUSH2 0x1AC JUMPI PUSH2 0xD6B PUSH2 0x16AE JUMP JUMPDEST PUSH2 0xD73 PUSH2 0x1856 JUMP JUMPDEST PUSH1 0x1 PUSH1 0x1 PUSH1 0xA0 SHL SUB AND PUSH0 DUP2 DUP2 MSTORE PUSH1 0x2 PUSH1 0x20 MSTORE PUSH1 0x40 SWAP1 KECCAK256 PUSH1 0x3 DUP2 ADD SLOAD PUSH2 0xD99 SWAP1 ISZERO ISZERO PUSH2 0x17A7 JUMP JUMPDEST PUSH1 0x2 DUP2 ADD DUP1 SLOAD PUSH1 0xFF DUP2 PUSH1 0xD0 SHR AND PUSH2 0xDED JUMPI PUSH1 0x1 PUSH1 0xD0 SHL SWAP1 PUSH2 0xFFFF PUSH1 0xD0 SHL NOT AND OR SWAP1 SSTORE PUSH1 0x5 TIMESTAMP SWAP2 ADD SSTORE PUSH32 0xBB8087CAF5B27589907554BD427E789CA04E83A1276B76E723AACF558AE94212 PUSH1 0x20 PUSH1 0x40 MLOAD TIMESTAMP DUP2 MSTORE LOG2 STOP JUMPDEST PUSH1 0x40 MLOAD PUSH3 0x461BCD PUSH1 0xE5 SHL DUP2 MSTORE PUSH1 0x20 PUSH1 0x4 DUP3 ADD MSTORE PUSH1 0x15 PUSH1 0x24 DUP3 ADD MSTORE PUSH21 0x105B1C9958591E48185D5D1BCB585C1C1C9BDD9959 PUSH1 0x5A SHL PUSH1 0x44 DUP3 ADD MSTORE PUSH1 0x64 SWAP1 REVERT JUMPDEST CALLVALUE PUSH2 0x1AC JUMPI PUSH1 0x20 CALLDATASIZE PUSH1 0x3 NOT ADD SLT PUSH2 0x1AC JUMPI PUSH2 0xE43 PUSH2 0x16AE JUMP JUMPDEST PUSH2 0xE4B PUSH2 0x1856 JUMP JUMPDEST PUSH1 0x1 DUP1 SLOAD PUSH2 0x100 PUSH1 0x1 PUSH1 0xA8 SHL SUB NOT AND PUSH1 0x8 SWAP3 SWAP1 SWAP3 SHL PUSH2 0x100 PUSH1 0x1 PUSH1 0xA8 SHL SUB AND SWAP2 SWAP1 SWAP2 OR SWAP1 SSTORE STOP JUMPDEST CALLVALUE PUSH2 0x1AC JUMPI PUSH0 CALLDATASIZE PUSH1 0x3 NOT ADD SLT PUSH2 0x1AC JUMPI PUSH1 0x20 PUSH1 0x40 MLOAD PUSH0 DUP2 MSTORE RETURN JUMPDEST CALLVALUE PUSH2 0x1AC JUMPI PUSH1 0x40 CALLDATASIZE PUSH1 0x3 NOT ADD SLT PUSH2 0x1AC JUMPI PUSH2 0xEA5 PUSH2 0x16C4 JUMP JUMPDEST PUSH1 0x4 CALLDATALOAD PUSH0 MSTORE PUSH0 PUSH1 0x20 MSTORE PUSH1 0x40 PUSH0 KECCAK256 SWAP1 PUSH1 0x1 DUP1 PUSH1 0xA0 SHL SUB AND PUSH0 MSTORE PUSH1 0x20 MSTORE PUSH1 0x20 PUSH1 0xFF PUSH1 0x40 PUSH0 KECCAK256 SLOAD AND PUSH1 0x40 MLOAD SWAP1 ISZERO ISZERO DUP2 MSTORE RETURN JUMPDEST CALLVALUE PUSH2 0x1AC JUMPI PUSH1 0x20 CALLDATASIZE PUSH1 0x3 NOT ADD SLT PUSH2 0x1AC JUMPI PUSH1 0x1 PUSH1 0x1 PUSH1 0xA0 SHL SUB PUSH2 0xEF5 PUSH2 0x16AE JUMP JUMPDEST AND PUSH0 MSTORE PUSH1 0x2 PUSH1 0x20 MSTORE PUSH1 0x20 PUSH1 0xFF PUSH1 0x2 PUSH1 0x40 PUSH0 KECCAK256 ADD SLOAD PUSH1 0xD0 SHR AND PUSH1 0x40 MLOAD SWAP1 ISZERO ISZERO DUP2 MSTORE RETURN JUMPDEST CALLVALUE PUSH2 0x1AC JUMPI PUSH0 CALLDATASIZE PUSH1 0x3 NOT ADD SLT PUSH2 0x1AC JUMPI PUSH2 0xF2F PUSH2 0x1856 JUMP JUMPDEST PUSH2 0xF37 PUSH2 0x1A05 JUMP JUMPDEST PUSH1 0x1 PUSH1 0xFF NOT DUP2 SLOAD AND OR PUSH1 0x1 SSTORE PUSH32 0x62E78CEA01BEE320CD4E420270B5EA74000D11B0C9F74754EBDBFC544B05A258 PUSH1 0x20 PUSH1 0x40 MLOAD CALLER DUP2 MSTORE LOG1 STOP JUMPDEST CALLVALUE PUSH2 0x1AC JUMPI PUSH1 0x20 CALLDATASIZE PUSH1 0x3 NOT ADD SLT PUSH2 0x1AC JUMPI PUSH1 0x4 CALLDATALOAD PUSH8 0xFFFFFFFFFFFFFFFF DUP2 GT PUSH2 0x1AC JUMPI CALLDATASIZE PUSH1 0x23 DUP3 ADD SLT ISZERO PUSH2 0x1AC JUMPI DUP1 PUSH1 0x4 ADD CALLDATALOAD SWAP1 PUSH8 0xFFFFFFFFFFFFFFFF DUP3 GT PUSH2 0x1AC JUMPI CALLDATASIZE PUSH1 0x24 DUP4 PUSH1 0x5 SHL DUP4 ADD ADD GT PUSH2 0x1AC JUMPI PUSH2 0xFC9 PUSH2 0x1856 JUMP JUMPDEST PUSH0 JUMPDEST DUP3 DUP2 LT ISZERO PUSH2 0xD50 JUMPI PUSH1 0x24 PUSH1 0x5 DUP3 SWAP1 SHL DUP4 ADD ADD CALLDATALOAD PUSH1 0x1 PUSH1 0x1 PUSH1 0xA0 SHL SUB DUP2 AND SWAP2 SWAP1 DUP3 SWAP1 SUB PUSH2 0x1AC JUMPI PUSH2 0xFF9 PUSH2 0x1856 JUMP JUMPDEST DUP2 PUSH0 MSTORE PUSH1 0x2 PUSH1 0x20 MSTORE PUSH1 0x40 PUSH0 KECCAK256 SWAP2 PUSH2 0x1015 PUSH1 0x3 DUP5 ADD SLOAD ISZERO ISZERO PUSH2 0x17A7 JUMP JUMPDEST PUSH1 0x2 DUP4 ADD SWAP3 DUP4 SLOAD SWAP4 PUSH1 0xFF DUP6 PUSH1 0xD0 SHR AND PUSH2 0xDED JUMPI PUSH1 0x1 SWAP5 DUP6 PUSH1 0xD0 SHL SWAP1 PUSH2 0xFFFF PUSH1 0xD0 SHL NOT AND OR SWAP1 SSTORE PUSH1 0x5 TIMESTAMP SWAP2 ADD SSTORE PUSH32 0xBB8087CAF5B27589907554BD427E789CA04E83A1276B76E723AACF558AE94212 PUSH1 0x20 PUSH1 0x40 MLOAD TIMESTAMP DUP2 MSTORE LOG2 ADD PUSH2 0xFCB JUMP JUMPDEST CALLVALUE PUSH2 0x1AC JUMPI PUSH0 CALLDATASIZE PUSH1 0x3 NOT ADD SLT PUSH2 0x1AC JUMPI PUSH1 0x20 PUSH1 0x40 MLOAD PUSH32 0xA49807205CE4D355092EF5A8A18F56E8913CF4A201FBE287825B095693C21775 DUP2 MSTORE RETURN JUMPDEST CALLVALUE PUSH2 0x1AC JUMPI PUSH0 CALLDATASIZE PUSH1 0x3 NOT ADD SLT PUSH2 0x1AC JUMPI PUSH2 0x10C3 PUSH2 0x1856 JUMP JUMPDEST PUSH1 0x40 MLOAD DUP1 PUSH1 0x20 PUSH1 0x4 SLOAD SWAP3 DUP4 DUP2 MSTORE ADD DUP1 SWAP3 PUSH1 0x4 PUSH0 MSTORE PUSH32 0x8A35ACFBC15FF81A39AE7D344FD709F28E8600B4AA8C65C6B64BFE7FE36BD19B SWAP1 PUSH0 JUMPDEST DUP2 DUP2 LT PUSH2 0x115C JUMPI POP POP POP DUP2 PUSH2 0x1111 SWAP2 SUB DUP3 PUSH2 0x174D JUMP JUMPDEST PUSH1 0x40 MLOAD SWAP2 DUP3 SWAP2 PUSH1 0x20 DUP4 ADD SWAP1 PUSH1 0x20 DUP5 MSTORE MLOAD DUP1 SWAP2 MSTORE PUSH1 0x40 DUP4 ADD SWAP2 SWAP1 PUSH0 JUMPDEST DUP2 DUP2 LT PUSH2 0x113A JUMPI POP POP POP SUB SWAP1 RETURN JUMPDEST DUP3 MLOAD PUSH1 0x1 PUSH1 0x1 PUSH1 0xA0 SHL SUB AND DUP5 MSTORE DUP6 SWAP5 POP PUSH1 0x20 SWAP4 DUP5 ADD SWAP4 SWAP1 SWAP3 ADD SWAP2 PUSH1 0x1 ADD PUSH2 0x112C JUMP JUMPDEST DUP3 SLOAD PUSH1 0x1 PUSH1 0x1 PUSH1 0xA0 SHL SUB AND DUP5 MSTORE PUSH1 0x20 SWAP1 SWAP4 ADD SWAP3 PUSH1 0x1 SWAP3 DUP4 ADD SWAP3 ADD PUSH2 0x10FB JUMP JUMPDEST CALLVALUE PUSH2 0x1AC JUMPI PUSH1 0x20 CALLDATASIZE PUSH1 0x3 NOT ADD SLT PUSH2 0x1AC JUMPI PUSH2 0x1194 PUSH2 0x17E7 JUMP JUMPDEST PUSH1 0x4 CALLDATALOAD PUSH0 MSTORE PUSH1 0x3 PUSH1 0x20 MSTORE PUSH1 0x20 PUSH1 0x1 DUP1 PUSH1 0xA0 SHL SUB PUSH1 0x40 PUSH0 KECCAK256 SLOAD AND PUSH1 0x40 MLOAD SWAP1 DUP2 MSTORE RETURN JUMPDEST CALLVALUE PUSH2 0x1AC JUMPI PUSH0 CALLDATASIZE PUSH1 0x3 NOT ADD SLT PUSH2 0x1AC JUMPI PUSH1 0x20 PUSH1 0xFF PUSH1 0x1 SLOAD AND PUSH1 0x40 MLOAD SWAP1 ISZERO ISZERO DUP2 MSTORE RETURN JUMPDEST CALLVALUE PUSH2 0x1AC JUMPI PUSH1 0x20 CALLDATASIZE PUSH1 0x3 NOT ADD SLT PUSH2 0x1AC JUMPI PUSH1 0x1 PUSH1 0x1 PUSH1 0xA0 SHL SUB PUSH2 0x11F8 PUSH2 0x16AE JUMP JUMPDEST AND PUSH0 MSTORE PUSH1 0x2 PUSH1 0x20 MSTORE PUSH1 0x20 PUSH1 0xFF PUSH1 0x2 PUSH1 0x40 PUSH0 KECCAK256 ADD SLOAD PUSH1 0x10 SHR AND PUSH1 0x40 MLOAD SWAP1 PUSH2 0xCC7 DUP2 PUSH2 0x16F8 JUMP JUMPDEST CALLVALUE PUSH2 0x1AC JUMPI PUSH0 CALLDATASIZE PUSH1 0x3 NOT ADD SLT PUSH2 0x1AC JUMPI PUSH2 0x1235 PUSH2 0x1856 JUMP JUMPDEST PUSH1 0x1 SLOAD PUSH1 0xFF DUP2 AND ISZERO PUSH2 0x1274 JUMPI PUSH1 0xFF NOT AND PUSH1 0x1 SSTORE PUSH32 0x5DB9EE0A495BF2E6FF9C91A7834C1BA4FDD244A5E8AA4E537BD38AEAE4B073AA PUSH1 0x20 PUSH1 0x40 MLOAD CALLER DUP2 MSTORE LOG1 STOP JUMPDEST PUSH4 0x8DFC202B PUSH1 0xE0 SHL PUSH0 MSTORE PUSH1 0x4 PUSH0 REVERT JUMPDEST CALLVALUE PUSH2 0x1AC JUMPI PUSH1 0x40 CALLDATASIZE PUSH1 0x3 NOT ADD SLT PUSH2 0x1AC JUMPI PUSH2 0x129C PUSH2 0x16C4 JUMP JUMPDEST CALLER PUSH1 0x1 PUSH1 0x1 PUSH1 0xA0 SHL SUB DUP3 AND SUB PUSH2 0x12B8 JUMPI PUSH2 0xD50 SWAP1 PUSH1 0x4 CALLDATALOAD PUSH2 0x1985 JUMP JUMPDEST PUSH4 0x334BD919 PUSH1 0xE1 SHL PUSH0 MSTORE PUSH1 0x4 PUSH0 REVERT JUMPDEST CALLVALUE PUSH2 0x1AC JUMPI PUSH1 0x40 CALLDATASIZE PUSH1 0x3 NOT ADD SLT PUSH2 0x1AC JUMPI PUSH2 0xD50 PUSH1 0x4 CALLDATALOAD PUSH2 0x12E6 PUSH2 0x16C4 JUMP JUMPDEST SWAP1 PUSH2 0x12FF PUSH2 0xD46 DUP3 PUSH0 MSTORE PUSH0 PUSH1 0x20 MSTORE PUSH1 0x1 PUSH1 0x40 PUSH0 KECCAK256 ADD SLOAD SWAP1 JUMP JUMPDEST PUSH2 0x18FD JUMP JUMPDEST CALLVALUE PUSH2 0x1AC JUMPI PUSH1 0x20 CALLDATASIZE PUSH1 0x3 NOT ADD SLT PUSH2 0x1AC JUMPI PUSH2 0x131D PUSH2 0x16AE JUMP JUMPDEST PUSH2 0x1325 PUSH2 0x1856 JUMP JUMPDEST PUSH1 0x1 DUP1 PUSH1 0xA0 SHL SUB AND PUSH0 MSTORE PUSH1 0x2 PUSH1 0x20 MSTORE PUSH1 0x20 PUSH1 0x40 PUSH0 KECCAK256 PUSH1 0x40 MLOAD PUSH2 0x1346 DUP2 PUSH2 0x1730 JUMP JUMPDEST PUSH1 0x40 MLOAD SWAP2 PUSH0 SWAP3 DUP2 SLOAD PUSH2 0x1357 DUP2 PUSH2 0x176F JUMP JUMPDEST DUP1 DUP4 MSTORE SWAP1 PUSH1 0x1 DUP2 AND SWAP1 DUP2 ISZERO PUSH2 0x1536 JUMPI POP PUSH1 0x1 EQ PUSH2 0x1503 JUMPI JUMPDEST POP SWAP1 DUP2 PUSH2 0x1384 PUSH2 0x140 SWAP4 PUSH2 0x160 SWAP7 SUB DUP3 PUSH2 0x174D JUMP JUMPDEST DUP4 MSTORE PUSH1 0x1 DUP2 ADD SLOAD SWAP3 DUP6 DUP2 ADD SWAP4 DUP5 MSTORE PUSH1 0x2 DUP3 ADD SLOAD SWAP2 PUSH1 0xFF DUP4 AND SWAP3 PUSH1 0x40 DUP4 ADD SWAP4 PUSH2 0x13AB DUP2 PUSH2 0x16DA JUMP JUMPDEST DUP5 MSTORE PUSH1 0xFF DUP2 PUSH1 0x8 SHR AND PUSH2 0x13BD DUP2 PUSH2 0x16F8 JUMP JUMPDEST PUSH1 0x60 DUP5 ADD MSTORE PUSH1 0xFF DUP2 PUSH1 0x10 SHR AND PUSH2 0x13D2 DUP2 PUSH2 0x16F8 JUMP JUMPDEST PUSH1 0x80 DUP5 ADD MSTORE PUSH1 0x1 DUP1 PUSH1 0xA0 SHL SUB DUP2 PUSH1 0x18 SHR AND PUSH1 0xA0 DUP5 ADD MSTORE PUSH1 0xC0 DUP4 ADD PUSH1 0xFF DUP3 PUSH1 0xB8 SHR AND DUP2 MSTORE PUSH1 0xE0 DUP5 ADD PUSH1 0xFF DUP4 PUSH1 0xC0 SHR AND ISZERO ISZERO DUP2 MSTORE PUSH2 0x100 DUP6 ADD SWAP1 PUSH1 0xFF DUP5 PUSH1 0xC8 SHR AND ISZERO ISZERO DUP3 MSTORE PUSH2 0x120 DUP7 ADD SWAP3 PUSH1 0xFF DUP6 PUSH1 0xD0 SHR AND ISZERO ISZERO DUP5 MSTORE PUSH1 0xFF DUP10 DUP9 ADD SWAP6 PUSH1 0xD8 SHR AND ISZERO ISZERO DUP6 MSTORE PUSH1 0xFF PUSH1 0x3 DUP8 ADD SLOAD SWAP8 PUSH2 0x1479 DUP14 DUP3 ADD SWAP10 DUP1 DUP12 MSTORE PUSH1 0x4 DUP11 ADD SLOAD PUSH2 0x180 DUP5 ADD MSTORE PUSH1 0x5 DUP11 ADD SLOAD SWAP10 PUSH2 0x1A0 DUP5 ADD SWAP11 DUP12 MSTORE PUSH1 0x6 PUSH1 0x1 DUP1 PUSH1 0xA0 SHL SUB SWAP2 ADD SLOAD AND PUSH2 0x1C0 DUP5 ADD MSTORE ISZERO ISZERO PUSH2 0x17A7 JUMP JUMPDEST MLOAD SWAP11 MLOAD SWAP9 MLOAD SWAP2 PUSH2 0x1488 DUP4 PUSH2 0x16DA JUMP JUMPDEST MLOAD AND SWAP2 MLOAD ISZERO ISZERO SWAP3 MLOAD ISZERO ISZERO SWAP4 MLOAD ISZERO ISZERO SWAP5 MLOAD ISZERO ISZERO SWAP6 MLOAD SWAP7 MLOAD SWAP8 PUSH1 0x40 MLOAD DUP1 SWAP14 DUP2 SWAP13 DUP13 DUP4 MSTORE DUP1 MLOAD DUP1 SWAP14 DUP2 SWAP5 ADD MSTORE ADD DUP14 DUP14 ADD MCOPY PUSH0 DUP13 DUP12 DUP14 ADD ADD MSTORE PUSH1 0x20 DUP12 ADD MSTORE PUSH2 0x14CB DUP2 PUSH2 0x16DA JUMP JUMPDEST PUSH1 0x40 DUP11 ADD MSTORE PUSH1 0x60 DUP10 ADD MSTORE PUSH1 0x80 DUP9 ADD MSTORE PUSH1 0xA0 DUP8 ADD MSTORE PUSH1 0xC0 DUP7 ADD MSTORE PUSH1 0xE0 DUP6 ADD MSTORE PUSH2 0x100 DUP5 ADD MSTORE PUSH2 0x120 DUP4 ADD MSTORE PUSH1 0x1F ADD PUSH1 0x1F NOT AND DUP2 ADD SUB ADD SWAP1 RETURN JUMPDEST SWAP4 POP DUP2 PUSH0 MSTORE DUP5 PUSH0 KECCAK256 PUSH0 SWAP1 JUMPDEST DUP6 DUP3 LT PUSH2 0x1522 JUMPI POP DUP2 ADD DUP6 ADD SWAP4 POP DUP1 PUSH2 0x136F JUMP JUMPDEST DUP1 SLOAD DUP4 DUP4 ADD DUP9 ADD MSTORE SWAP1 DUP7 ADD SWAP1 PUSH1 0x1 ADD PUSH2 0x150E JUMP JUMPDEST PUSH1 0xFF NOT AND DUP8 DUP5 ADD MSTORE POP ISZERO ISZERO PUSH1 0x5 SHL DUP2 ADD DUP6 ADD SWAP4 POP DUP1 PUSH2 0x136F JUMP JUMPDEST CALLVALUE PUSH2 0x1AC JUMPI PUSH1 0x20 CALLDATASIZE PUSH1 0x3 NOT ADD SLT PUSH2 0x1AC JUMPI PUSH1 0x20 PUSH2 0x157A PUSH1 0x4 CALLDATALOAD PUSH0 MSTORE PUSH0 PUSH1 0x20 MSTORE PUSH1 0x1 PUSH1 0x40 PUSH0 KECCAK256 ADD SLOAD SWAP1 JUMP JUMPDEST PUSH1 0x40 MLOAD SWAP1 DUP2 MSTORE RETURN JUMPDEST CALLVALUE PUSH2 0x1AC JUMPI PUSH0 CALLDATASIZE PUSH1 0x3 NOT ADD SLT PUSH2 0x1AC JUMPI PUSH1 0x20 PUSH1 0x40 MLOAD PUSH32 0xFC7C36207174F786648D2E624616A4B40E15FD7F0268B4E36AF5057F0C43C835 DUP2 MSTORE RETURN JUMPDEST CALLVALUE PUSH2 0x1AC JUMPI PUSH0 CALLDATASIZE PUSH1 0x3 NOT ADD SLT PUSH2 0x1AC JUMPI PUSH1 0x20 PUSH1 0x4 SLOAD PUSH1 0x40 MLOAD SWAP1 DUP2 MSTORE RETURN JUMPDEST CALLVALUE PUSH2 0x1AC JUMPI PUSH0 CALLDATASIZE PUSH1 0x3 NOT ADD SLT PUSH2 0x1AC JUMPI PUSH1 0x1 SLOAD PUSH1 0x40 MLOAD PUSH1 0x8 SWAP2 SWAP1 SWAP2 SHR PUSH1 0x1 PUSH1 0x1 PUSH1 0xA0 SHL SUB AND DUP2 MSTORE PUSH1 0x20 SWAP1 RETURN JUMPDEST CALLVALUE PUSH2 0x1AC JUMPI PUSH1 0x20 CALLDATASIZE PUSH1 0x3 NOT ADD SLT PUSH2 0x1AC JUMPI PUSH2 0x161E PUSH2 0x17E7 JUMP JUMPDEST PUSH1 0x40 MLOAD PUSH1 0x20 DUP2 ADD SWAP1 PUSH1 0x4 CALLDATALOAD DUP3 MSTORE PUSH1 0x20 DUP2 MSTORE PUSH2 0x163A PUSH1 0x40 DUP3 PUSH2 0x174D JUMP JUMPDEST MLOAD SWAP1 KECCAK256 PUSH0 MSTORE PUSH1 0x3 PUSH1 0x20 MSTORE PUSH1 0x20 PUSH1 0x1 DUP1 PUSH1 0xA0 SHL SUB PUSH1 0x40 PUSH0 KECCAK256 SLOAD AND PUSH1 0x40 MLOAD SWAP1 DUP2 MSTORE RETURN JUMPDEST CALLVALUE PUSH2 0x1AC JUMPI PUSH1 0x20 CALLDATASIZE PUSH1 0x3 NOT ADD SLT PUSH2 0x1AC JUMPI PUSH1 0x4 CALLDATALOAD SWAP1 PUSH4 0xFFFFFFFF PUSH1 0xE0 SHL DUP3 AND DUP1 SWAP3 SUB PUSH2 0x1AC JUMPI PUSH1 0x20 SWAP2 PUSH4 0x7965DB0B PUSH1 0xE0 SHL DUP2 EQ SWAP1 DUP2 ISZERO PUSH2 0x169D JUMPI JUMPDEST POP ISZERO ISZERO DUP2 MSTORE RETURN JUMPDEST PUSH4 0x1FFC9A7 PUSH1 0xE0 SHL EQ SWAP1 POP DUP4 PUSH2 0x1696 JUMP JUMPDEST PUSH1 0x4 CALLDATALOAD SWAP1 PUSH1 0x1 PUSH1 0x1 PUSH1 0xA0 SHL SUB DUP3 AND DUP3 SUB PUSH2 0x1AC JUMPI JUMP JUMPDEST PUSH1 0x24 CALLDATALOAD SWAP1 PUSH1 0x1 PUSH1 0x1 PUSH1 0xA0 SHL SUB DUP3 AND DUP3 SUB PUSH2 0x1AC JUMPI JUMP JUMPDEST PUSH1 0x4 GT ISZERO PUSH2 0x16E4 JUMPI JUMP JUMPDEST PUSH4 0x4E487B71 PUSH1 0xE0 SHL PUSH0 MSTORE PUSH1 0x21 PUSH1 0x4 MSTORE PUSH1 0x24 PUSH0 REVERT JUMPDEST PUSH1 0x5 GT ISZERO PUSH2 0x16E4 JUMPI JUMP JUMPDEST SWAP2 DUP2 PUSH1 0x1F DUP5 ADD SLT ISZERO PUSH2 0x1AC JUMPI DUP3 CALLDATALOAD SWAP2 PUSH8 0xFFFFFFFFFFFFFFFF DUP4 GT PUSH2 0x1AC JUMPI PUSH1 0x20 DUP4 DUP2 DUP7 ADD SWAP6 ADD ADD GT PUSH2 0x1AC JUMPI JUMP JUMPDEST PUSH2 0x1E0 DUP2 ADD SWAP1 DUP2 LT PUSH8 0xFFFFFFFFFFFFFFFF DUP3 GT OR PUSH2 0x6AB JUMPI PUSH1 0x40 MSTORE JUMP JUMPDEST SWAP1 PUSH1 0x1F DUP1 NOT SWAP2 ADD AND DUP2 ADD SWAP1 DUP2 LT PUSH8 0xFFFFFFFFFFFFFFFF DUP3 GT OR PUSH2 0x6AB JUMPI PUSH1 0x40 MSTORE JUMP JUMPDEST SWAP1 PUSH1 0x1 DUP3 DUP2 SHR SWAP3 AND DUP1 ISZERO PUSH2 0x179D JUMPI JUMPDEST PUSH1 0x20 DUP4 LT EQ PUSH2 0x1789 JUMPI JUMP JUMPDEST PUSH4 0x4E487B71 PUSH1 0xE0 SHL PUSH0 MSTORE PUSH1 0x22 PUSH1 0x4 MSTORE PUSH1 0x24 PUSH0 REVERT JUMPDEST SWAP2 PUSH1 0x7F AND SWAP2 PUSH2 0x177E JUMP JUMPDEST ISZERO PUSH2 0x17AE JUMPI JUMP JUMPDEST PUSH1 0x40 MLOAD PUSH3 0x461BCD PUSH1 0xE5 SHL DUP2 MSTORE PUSH1 0x20 PUSH1 0x4 DUP3 ADD MSTORE PUSH1 0x11 PUSH1 0x24 DUP3 ADD MSTORE PUSH17 0x10DA5D1A5E995B881B9BDD08199BDD5B99 PUSH1 0x7A SHL PUSH1 0x44 DUP3 ADD MSTORE PUSH1 0x64 SWAP1 REVERT JUMPDEST CALLER PUSH0 SWAP1 DUP2 MSTORE PUSH32 0xD580A88BE50B12BA2B1290AF9BFE1C5ED9EFC6313473CF5CB0F79F979D4E54FE PUSH1 0x20 MSTORE PUSH1 0x40 SWAP1 KECCAK256 SLOAD PUSH1 0xFF AND ISZERO PUSH2 0x181F JUMPI JUMP JUMPDEST PUSH4 0xE2517D3F PUSH1 0xE0 SHL PUSH0 MSTORE CALLER PUSH1 0x4 MSTORE PUSH32 0x7CB8DA4815C5C7BFEC597D7479BF1F02DEF0B6D0F50CD2AD5EB80C69AC5C1A1B PUSH1 0x24 MSTORE PUSH1 0x44 PUSH0 REVERT JUMPDEST CALLER PUSH0 SWAP1 DUP2 MSTORE PUSH32 0x7D7FFB7A348E1C6A02869081A26547B49160DD3DF72D1D75A570EB9B698292EC PUSH1 0x20 MSTORE PUSH1 0x40 SWAP1 KECCAK256 SLOAD PUSH1 0xFF AND ISZERO PUSH2 0x188E JUMPI JUMP JUMPDEST PUSH4 0xE2517D3F PUSH1 0xE0 SHL PUSH0 MSTORE CALLER PUSH1 0x4 MSTORE PUSH32 0xA49807205CE4D355092EF5A8A18F56E8913CF4A201FBE287825B095693C21775 PUSH1 0x24 MSTORE PUSH1 0x44 PUSH0 REVERT JUMPDEST PUSH0 DUP2 DUP2 MSTORE PUSH1 0x20 DUP2 DUP2 MSTORE PUSH1 0x40 DUP1 DUP4 KECCAK256 CALLER DUP5 MSTORE SWAP1 SWAP2 MSTORE SWAP1 KECCAK256 SLOAD PUSH1 0xFF AND ISZERO PUSH2 0x18E7 JUMPI POP JUMP JUMPDEST PUSH4 0xE2517D3F PUSH1 0xE0 SHL PUSH0 MSTORE CALLER PUSH1 0x4 MSTORE PUSH1 0x24 MSTORE PUSH1 0x44 PUSH0 REVERT JUMPDEST PUSH0 DUP2 DUP2 MSTORE PUSH1 0x20 DUP2 DUP2 MSTORE PUSH1 0x40 DUP1 DUP4 KECCAK256 PUSH1 0x1 PUSH1 0x1 PUSH1 0xA0 SHL SUB DUP7 AND DUP5 MSTORE SWAP1 SWAP2 MSTORE SWAP1 KECCAK256 SLOAD PUSH1 0xFF AND PUSH2 0x197F JUMPI PUSH0 DUP2 DUP2 MSTORE PUSH1 0x20 DUP2 DUP2 MSTORE PUSH1 0x40 DUP1 DUP4 KECCAK256 PUSH1 0x1 PUSH1 0x1 PUSH1 0xA0 SHL SUB SWAP6 SWAP1 SWAP6 AND DUP1 DUP5 MSTORE SWAP5 SWAP1 SWAP2 MSTORE DUP2 KECCAK256 DUP1 SLOAD PUSH1 0xFF NOT AND PUSH1 0x1 OR SWAP1 SSTORE CALLER SWAP3 SWAP2 SWAP1 PUSH32 0x2F8788117E7EFF1D82E926EC794901D17C78024A50270940304540A733656F0D SWAP1 DUP1 LOG4 PUSH1 0x1 SWAP1 JUMP JUMPDEST POP POP PUSH0 SWAP1 JUMP JUMPDEST PUSH0 DUP2 DUP2 MSTORE PUSH1 0x20 DUP2 DUP2 MSTORE PUSH1 0x40 DUP1 DUP4 KECCAK256 PUSH1 0x1 PUSH1 0x1 PUSH1 0xA0 SHL SUB DUP7 AND DUP5 MSTORE SWAP1 SWAP2 MSTORE SWAP1 KECCAK256 SLOAD PUSH1 0xFF AND ISZERO PUSH2 0x197F JUMPI PUSH0 DUP2 DUP2 MSTORE PUSH1 0x20 DUP2 DUP2 MSTORE PUSH1 0x40 DUP1 DUP4 KECCAK256 PUSH1 0x1 PUSH1 0x1 PUSH1 0xA0 SHL SUB SWAP6 SWAP1 SWAP6 AND DUP1 DUP5 MSTORE SWAP5 SWAP1 SWAP2 MSTORE DUP2 KECCAK256 DUP1 SLOAD PUSH1 0xFF NOT AND SWAP1 SSTORE CALLER SWAP3 SWAP2 SWAP1 PUSH32 0xF6391F5C32D9C69D2A47EA670B442974B53935D1EDC7FD64EB21E047A839171B SWAP1 DUP1 LOG4 PUSH1 0x1 SWAP1 JUMP JUMPDEST PUSH1 0xFF PUSH1 0x1 SLOAD AND PUSH2 0x1A11 JUMPI JUMP JUMPDEST PUSH4 0xD93C0665 PUSH1 0xE0 SHL PUSH0 MSTORE PUSH1 0x4 PUSH0 REVERT JUMPDEST SWAP2 PUSH2 0x1A2A DUP4 PUSH2 0x16DA JUMP JUMPDEST PUSH1 0x2 DUP4 EQ PUSH2 0x1A7E JUMPI POP PUSH2 0x1A3C DUP3 PUSH2 0x16DA JUMP JUMPDEST PUSH1 0x3 DUP3 EQ PUSH2 0x1A6A JUMPI POP PUSH1 0x1 SWAP1 PUSH2 0x1A51 DUP2 PUSH2 0x16DA JUMP JUMPDEST EQ PUSH2 0x1A5C JUMPI POP PUSH1 0x1 SWAP1 JUMP JUMPDEST PUSH1 0x1 PUSH1 0x1 PUSH1 0xA0 SHL SUB AND ISZERO ISZERO SWAP1 JUMP JUMPDEST SWAP1 POP PUSH1 0x4 SWAP2 POP PUSH2 0x1A79 DUP2 PUSH2 0x16F8 JUMP JUMPDEST EQ ISZERO SWAP1 JUMP JUMPDEST SWAP3 POP PUSH1 0x4 SWAP2 POP PUSH2 0x1A8D DUP2 PUSH2 0x16F8 JUMP JUMPDEST EQ ISZERO SWAP1 DUP2 PUSH2 0x1A99 JUMPI POP SWAP1 JUMP JUMPDEST PUSH1 0x4 SWAP2 POP PUSH2 0x1A79 DUP2 PUSH2 0x16F8 JUMP JUMPDEST DUP2 MLOAD SWAP2 SWAP1 PUSH1 0x41 DUP4 SUB PUSH2 0x1AD6 JUMPI PUSH2 0x1ACF SWAP3 POP PUSH1 0x20 DUP3 ADD MLOAD SWAP1 PUSH1 0x60 PUSH1 0x40 DUP5 ADD MLOAD SWAP4 ADD MLOAD PUSH0 BYTE SWAP1 PUSH2 0x1B5C JUMP JUMPDEST SWAP2 SWAP3 SWAP1 SWAP2 SWAP1 JUMP JUMPDEST POP POP PUSH0 SWAP2 PUSH1 0x2 SWAP2 SWAP1 JUMP JUMPDEST PUSH2 0x1AE9 DUP2 PUSH2 0x16DA JUMP JUMPDEST DUP1 PUSH2 0x1AF2 JUMPI POP POP JUMP JUMPDEST PUSH2 0x1AFB DUP2 PUSH2 0x16DA JUMP JUMPDEST PUSH1 0x1 DUP2 SUB PUSH2 0x1B12 JUMPI PUSH4 0xF645EEDF PUSH1 0xE0 SHL PUSH0 MSTORE PUSH1 0x4 PUSH0 REVERT JUMPDEST PUSH2 0x1B1B DUP2 PUSH2 0x16DA JUMP JUMPDEST PUSH1 0x2 DUP2 SUB PUSH2 0x1B36 JUMPI POP PUSH4 0xFCE698F7 PUSH1 0xE0 SHL PUSH0 MSTORE PUSH1 0x4 MSTORE PUSH1 0x24 PUSH0 REVERT JUMPDEST PUSH1 0x3 SWAP1 PUSH2 0x1B42 DUP2 PUSH2 0x16DA JUMP JUMPDEST EQ PUSH2 0x1B4A JUMPI POP JUMP JUMPDEST PUSH4 0x35E2F383 PUSH1 0xE2 SHL PUSH0 MSTORE PUSH1 0x4 MSTORE PUSH1 0x24 PUSH0 REVERT JUMPDEST SWAP2 SWAP1 PUSH32 0x7FFFFFFFFFFFFFFFFFFFFFFFFFFFFFFF5D576E7357A4501DDFE92F46681B20A0 DUP5 GT PUSH2 0x1BDE JUMPI SWAP2 PUSH1 0x20 SWAP4 PUSH1 0x80 SWAP3 PUSH1 0xFF PUSH0 SWAP6 PUSH1 0x40 MLOAD SWAP5 DUP6 MSTORE AND DUP7 DUP5 ADD MSTORE PUSH1 0x40 DUP4 ADD MSTORE PUSH1 0x60 DUP3 ADD MSTORE DUP3 DUP1 MSTORE PUSH1 0x1 GAS STATICCALL ISZERO PUSH2 0x1BD3 JUMPI PUSH0 MLOAD PUSH1 0x1 PUSH1 0x1 PUSH1 0xA0 SHL SUB DUP2 AND ISZERO PUSH2 0x1BC9 JUMPI SWAP1 PUSH0 SWAP1 PUSH0 SWAP1 JUMP JUMPDEST POP PUSH0 SWAP1 PUSH1 0x1 SWAP1 PUSH0 SWAP1 JUMP JUMPDEST PUSH1 0x40 MLOAD RETURNDATASIZE PUSH0 DUP3 RETURNDATACOPY RETURNDATASIZE SWAP1 REVERT JUMPDEST POP POP POP PUSH0 SWAP2 PUSH1 0x3 SWAP2 SWAP1 JUMP INVALID LOG2 PUSH5 0x6970667358 0x22 SLT KECCAK256 SWAP7 0xC1 0xC9 DUP6 0xB5 0x2D EXP EQ SWAP12 0xAE OR ADDMOD EXTCODESIZE MSTORE8 PUSH24 0x4784DDFA1C2833064932F5F3CB1B2BF20E64736F6C634300 ADDMOD SHR STOP CALLER 0x2F DUP8 DUP9 GT PUSH31 0x7EFF1D82E926EC794901D17C78024A50270940304540A733656F0D7D7FFB7A CALLVALUE DUP15 SHR PUSH11 0x2869081A26547B49160DD RETURNDATASIZE 0xF7 0x2D SAR PUSH22 0xA570EB9B698292ECD580A88BE50B12BA2B1290AF9BFE SHR MCOPY 0xD9 0xEF 0xC6 BALANCE CALLVALUE PUSH20 0xCF5CB0F79F979D4E54FE9750ACCF27F3AAA2EE9A 0xF8 LOG0 0xD7 JUMPI PUSH25 0xE5F1905B9DB8FE4B539D9E6ECC553B7F74AD3228B676F7D3CD TIMESTAMP DUP5 0xA5 PREVRANDAO EXTCODEHASH OR CALL SWAP7 0x2B CALLDATASIZE 0xE4 SWAP2 0xB3 EXP BLOCKHASH 0xB2 BLOCKHASH PC BLOBHASH 0xE5 SWAP8 0xBA PUSH0 0xB5 "},"methodIdentifiers":{"ADMIN_ROLE()":"75b238fc","DEFAULT_ADMIN_ROLE()":"a217fddf","EMPLOYER_ROLE()":"2426bb38","TAX_COLLECTOR_ROLE()":"f672d4c0","batchManualApprove(address[])":"7cbc764c","businessTypeOf(address)":"d8c6b3d9","faydaAttester()":"10e381c3","getAllCitizens()":"6c0e1ccd","getCitizenAdmin(address)":"2b43e332","getCitizenPublic(address)":"ee93558e","getRoleAdmin(bytes32)":"248a9ca3","getTotalCitizens()":"1e4c9358","grantRole(bytes32,address)":"2f2ff15d","hasRole(bytes32,address)":"91d14854","isAutoApprovedCitizen(address)":"8ed64d41","linkedBankAccountOf(address)":"fb6fe342","locationOf(address)":"5138ea6a","manualApprove(address)":"cc7b7245","manualReject(address)":"e34e3faa","pause()":"8456cb59","paused()":"5c975abb","registerAndAutoApprove(bytes32,string,bytes32,uint8,bool,bool,uint8,uint8,uint8,address,bytes)":"f9bd4269","renounceRole(bytes32,address)":"36568abe","resolveWalletFromFaydaHash(bytes32)":"5f87b2af","resolveWalletFromFaydaNumber(uint256)":"0f04912a","revokeRole(bytes32,address)":"d547741f","setFaydaAttester(address)":"bb82542d","supportsInterface(bytes4)":"01ffc9a7","taxCategoryOf(address)":"d5baa3ac","unpause()":"3f4ba83a"}}}}}