{"contracts/StaticTaxHandler.sol":{"StaticTaxHandler":{"abi":[{"inputs":[{"internalType":"address","name":"_identityContract","type":"address"}],"stateMutability":"nonpayable","type":"constructor"},{"inputs":[],"name":"AccessControlBadConfirmation","type":"error"},{"inputs":[{"internalType":"address","name":"account","type":"address"},{"internalType":"bytes32","name":"neededRole","type":"bytes32"}],"name":"AccessControlUnauthorizedAccount","type":"error"},{"inputs":[{"internalType":"address","name":"owner","type":"address"}],"name":"OwnableInvalidOwner","type":"error"},{"inputs":[{"internalType":"address","name":"account","type":"address"}],"name":"OwnableUnauthorizedAccount","type":"error"},{"inputs":[],"name":"ReentrancyGuardReentrantCall","type":"error"},{"anonymous":false,"inputs":[{"indexed":true,"internalType":"address","name":"business","type":"address"},{"indexed":false,"internalType":"uint256","name":"annualDepositsWei","type":"uint256"},{"indexed":false,"internalType":"uint256","name":"timestamp","type":"uint256"}],"name":"DepositsUpdated","type":"event"},{"anonymous":false,"inputs":[{"indexed":true,"internalType":"address","name":"employer","type":"address"},{"indexed":true,"internalType":"address","name":"employee","type":"address"},{"indexed":false,"internalType":"uint256","name":"amountWei","type":"uint256"},{"indexed":false,"internalType":"uint256","name":"timestamp","type":"uint256"}],"name":"EmployerWithholding","type":"event"},{"anonymous":false,"inputs":[{"indexed":true,"internalType":"address","name":"employee","type":"address"},{"indexed":false,"internalType":"uint256","name":"annualTaxWei","type":"uint256"},{"indexed":false,"internalType":"uint256","name":"timestamp","type":"uint256"}],"name":"GovernmentWithholdingUpdated","type":"event"},{"anonymous":false,"inputs":[{"indexed":true,"internalType":"address","name":"previousOwner","type":"address"},{"indexed":true,"internalType":"address","name":"newOwner","type":"address"}],"name":"OwnershipTransferred","type":"event"},{"anonymous":false,"inputs":[{"indexed":true,"internalType":"bytes32","name":"role","type":"bytes32"},{"indexed":true,"internalType":"bytes32","name":"previousAdminRole","type":"bytes32"},{"indexed":true,"internalType":"bytes32","name":"newAdminRole","type":"bytes32"}],"name":"RoleAdminChanged","type":"event"},{"anonymous":false,"inputs":[{"indexed":true,"internalType":"bytes32","name":"role","type":"bytes32"},{"indexed":true,"internalType":"address","name":"account","type":"address"},{"indexed":true,"internalType":"address","name":"sender","type":"address"}],"name":"RoleGranted","type":"event"},{"anonymous":false,"inputs":[{"indexed":true,"internalType":"bytes32","name":"role","type":"bytes32"},{"indexed":true,"internalType":"address","name":"account","type":"address"},{"indexed":true,"internalType":"address","name":"sender","type":"address"}],"name":"RoleRevoked","type":"event"},{"anonymous":false,"inputs":[{"indexed":true,"internalType":"address","name":"citizen","type":"address"},{"indexed":false,"internalType":"uint256","name":"amountWei","type":"uint256"},{"indexed":false,"internalType":"enum NationalIdentity.TaxCategory","name":"category","type":"uint8"},{"indexed":false,"internalType":"uint256","name":"timestamp","type":"uint256"}],"name":"TaxPaid","type":"event"},{"inputs":[],"name":"BANK_ORACLE_ROLE","outputs":[{"internalType":"bytes32","name":"","type":"bytes32"}],"stateMutability":"view","type":"function"},{"inputs":[],"name":"CATEGORY_A_RATE_BPS","outputs":[{"internalType":"uint256","name":"","type":"uint256"}],"stateMutability":"view","type":"function"},{"inputs":[],"name":"DEFAULT_ADMIN_ROLE","outputs":[{"internalType":"bytes32","name":"","type":"bytes32"}],"stateMutability":"view","type":"function"},{"inputs":[],"name":"ETB_TO_WEI","outputs":[{"internalType":"uint256","name":"","type":"uint256"}],"stateMutability":"view","type":"function"},{"inputs":[],"name":"GOVERNMENT_ORACLE_ROLE","outputs":[{"internalType":"bytes32","name":"","type":"bytes32"}],"stateMutability":"view","type":"function"},{"inputs":[],"name":"TAX_COLLECTOR_ROLE","outputs":[{"internalType":"bytes32","name":"","type":"bytes32"}],"stateMutability":"view","type":"function"},{"inputs":[{"internalType":"address","name":"business","type":"address"}],"name":"calculateTaxForCategoryA","outputs":[{"internalType":"uint256","name":"","type":"uint256"}],"stateMutability":"view","type":"function"},{"inputs":[{"internalType":"enum NationalIdentity.BusinessType","name":"businessType","type":"uint8"},{"internalType":"enum NationalIdentity.Location","name":"area","type":"uint8"}],"name":"calculateTaxForCategoryB","outputs":[{"internalType":"uint256","name":"","type":"uint256"}],"stateMutability":"pure","type":"function"},{"inputs":[{"internalType":"address","name":"employee","type":"address"}],"name":"calculateTaxForGovernment","outputs":[{"internalType":"uint256","name":"","type":"uint256"}],"stateMutability":"view","type":"function"},{"inputs":[{"internalType":"enum NationalIdentity.BusinessType","name":"businessType","type":"uint8"}],"name":"calculateTaxForMicro","outputs":[{"internalType":"uint256","name":"","type":"uint256"}],"stateMutability":"pure","type":"function"},{"inputs":[{"internalType":"address","name":"","type":"address"}],"name":"categoryADepositsAnnualWei","outputs":[{"internalType":"uint256","name":"","type":"uint256"}],"stateMutability":"view","type":"function"},{"inputs":[{"internalType":"address","name":"employee","type":"address"}],"name":"employerWithhold","outputs":[],"stateMutability":"payable","type":"function"},{"inputs":[{"internalType":"bytes32","name":"role","type":"bytes32"}],"name":"getRoleAdmin","outputs":[{"internalType":"bytes32","name":"","type":"bytes32"}],"stateMutability":"view","type":"function"},{"inputs":[{"internalType":"address","name":"citizen","type":"address"}],"name":"getTaxRecord","outputs":[{"internalType":"bool","name":"exists","type":"bool"},{"internalType":"uint256","name":"totalTaxPaid","type":"uint256"},{"internalType":"uint256","name":"lastPaymentTimestamp","type":"uint256"}],"stateMutability":"view","type":"function"},{"inputs":[{"internalType":"address","name":"","type":"address"}],"name":"governmentTaxAnnualWei","outputs":[{"internalType":"uint256","name":"","type":"uint256"}],"stateMutability":"view","type":"function"},{"inputs":[{"internalType":"bytes32","name":"role","type":"bytes32"},{"internalType":"address","name":"account","type":"address"}],"name":"grantRole","outputs":[],"stateMutability":"nonpayable","type":"function"},{"inputs":[{"internalType":"bytes32","name":"role","type":"bytes32"},{"internalType":"address","name":"account","type":"address"}],"name":"hasRole","outputs":[{"internalType":"bool","name":"","type":"bool"}],"stateMutability":"view","type":"function"},{"inputs":[],"name":"identityContract","outputs":[{"internalType":"contract NationalIdentity","name":"","type":"address"}],"stateMutability":"view","type":"function"},{"inputs":[],"name":"owner","outputs":[{"internalType":"address","name":"","type":"address"}],"stateMutability":"view","type":"function"},{"inputs":[],"name":"payTax","outputs":[],"stateMutability":"payable","type":"function"},{"inputs":[],"name":"renounceOwnership","outputs":[],"stateMutability":"nonpayable","type":"function"},{"inputs":[{"internalType":"bytes32","name":"role","type":"bytes32"},{"internalType":"address","name":"callerConfirmation","type":"address"}],"name":"renounceRole","outputs":[],"stateMutability":"nonpayable","type":"function"},{"inputs":[{"internalType":"bytes32","name":"role","type":"bytes32"},{"internalType":"address","name":"account","type":"address"}],"name":"revokeRole","outputs":[],"stateMutability":"nonpayable","type":"function"},{"inputs":[{"internalType":"bytes4","name":"interfaceId","type":"bytes4"}],"name":"supportsInterface","outputs":[{"internalType":"bool","name":"","type":"bool"}],"stateMutability":"view","type":"function"},{"inputs":[{"internalType":"address","name":"citizen","type":"address"}],"name":"taxDueNow","outputs":[{"internalType":"uint256","name":"","type":"uint256"}],"stateMutability":"view","type":"function"},{"inputs":[],"name":"totalTaxCollected","outputs":[{"internalType":"uint256","name":"","type":"uint256"}],"stateMutability":"view","type":"function"},{"inputs":[{"internalType":"address","name":"newOwner","type":"address"}],"name":"transferOwnership","outputs":[],"stateMutability":"nonpayable","type":"function"},{"inputs":[{"internalType":"address","name":"business","type":"address"},{"internalType":"uint256","name":"annualDepositsWei","type":"uint256"}],"name":"updateDepositsFromBank","outputs":[],"stateMutability":"nonpayable","type":"function"},{"inputs":[{"internalType":"address","name":"employee","type":"address"},{"internalType":"uint256","name":"annualTaxWei","type":"uint256"}],"name":"updateGovernmentWithholding","outputs":[],"stateMutability":"nonpayable","type":"function"},{"inputs":[{"internalType":"uint256","name":"amountWei","type":"uint256"}],"name":"withdrawRevenue","outputs":[],"stateMutability":"nonpayable","type":"function"},{"stateMutability":"payable","type":"receive"}],"evm":{"bytecode":{"linkReferences":{},"object":"60803461011d57601f611c3238819003918201601f19168301916001600160401b038311848410176101215780849260209460405283398101031261011d57516001600160a01b0381169081900361011d57331561010a575f8054336001600160a01b0319821681178355916001600160a01b03909116907f8be0079c531659141344cd1fd0a4f28419497f9722a3daafe3b4186f6b6457e09080a360017f9b779b17422d0df92223018b32b4d1fa46e071723d6817e2486d003becc55f0055600280546001600160a01b0319169190911790556100dc33610135565b506100e6336101ab565b506100f03361023e565b506100fa336102d1565b5060405161182d90816103658239f35b631e4fbdf760e01b5f525f60045260245ffd5b5f80fd5b634e487b7160e01b5f52604160045260245ffd5b6001600160a01b0381165f9081525f516020611bb25f395f51905f52602052604090205460ff166101a6576001600160a01b03165f8181525f516020611bb25f395f51905f5260205260408120805460ff191660011790553391905f516020611b925f395f51905f528180a4600190565b505f90565b6001600160a01b0381165f9081525f516020611bd25f395f51905f52602052604090205460ff166101a6576001600160a01b03165f8181525f516020611bd25f395f51905f5260205260408120805460ff191660011790553391907fbcc3263fd89c254886b4ab68b74b8b9b572a1de9bca610a7430280b4e771685f905f516020611b925f395f51905f529080a4600190565b6001600160a01b0381165f9081525f516020611bf25f395f51905f52602052604090205460ff166101a6576001600160a01b03165f8181525f516020611bf25f395f51905f5260205260408120805460ff191660011790553391907f9a656cc4e193e90c1efe4d1101966e3d66af824943c2bbd0ff5e34006d95b407905f516020611b925f395f51905f529080a4600190565b6001600160a01b0381165f9081525f516020611c125f395f51905f52602052604090205460ff166101a6576001600160a01b03165f8181525f516020611c125f395f51905f5260205260408120805460ff191660011790553391907f7cb8da4815c5c7bfec597d7479bf1f02def0b6d0f50cd2ad5eb80c69ac5c1a1b905f516020611b925f395f51905f529080a460019056fe608080604052600436101561001c575b50361561001a575f80fd5b005b5f3560e01c908163011f6626146110155750806301ffc9a714610fbf5780630ceff20414610f385780631a26fa0714610f15578063248a9ca314610eea5780632912ba5f14610c855780632f2ff15d14610c475780633321a65414610c0d57806336568abe14610bc95780635155c1bf14610ab7578063570846501461074c57806363fe1e081461071257806367031bae146106ea578063715018a61461069357806372f348f41461065d57806384c646c3146106355780638da5cb5b1461060e57806391d14854146105c55780639af82ce914610499578063a217fddf1461047f578063bb5c9b1114610454578063c2e2131414610433578063d547741f146103f0578063d8454a82146103d3578063dbb68800146102c1578063e1a84a30146102a5578063e4c085171461026d578063f19ceb6514610235578063f2fde38b146101b05763f672d4c014610172575f61000f565b346101ac575f3660031901126101ac5760206040517f7cb8da4815c5c7bfec597d7479bf1f02def0b6d0f50cd2ad5eb80c69ac5c1a1b8152f35b5f80fd5b346101ac5760203660031901126101ac576101c9611049565b6101d161139c565b6001600160a01b03168015610222575f80546001600160a01b03198116831782556001600160a01b0316907f8be0079c531659141344cd1fd0a4f28419497f9722a3daafe3b4186f6b6457e09080a3005b631e4fbdf760e01b5f525f60045260245ffd5b346101ac5760203660031901126101ac576001600160a01b03610256611049565b165f526006602052602060405f2054604051908152f35b346101ac5760203660031901126101ac576001600160a01b0361028e611049565b165f526005602052602060405f2054604051908152f35b346101ac575f3660031901126101ac576020604051610bb88152f35b346101ac5760403660031901126101ac576102da611049565b335f9081527fc24b2b6a100b77449eeed463f23b50ca60fb6c7685397bcfcec89dc3798f76bd6020526040902054602435919060ff161561039c576001600160a01b03169081156103645760407fbc4582036727a979a4f409a0a187e072bf4347aa206c08fac3213169d8c72fbf91835f52600560205280825f20558151908152426020820152a2005b60405162461bcd60e51b815260206004820152601060248201526f496e76616c696420627573696e65737360801b6044820152606490fd5b63e2517d3f60e01b5f52336004527fbcc3263fd89c254886b4ab68b74b8b9b572a1de9bca610a7430280b4e771685f60245260445ffd5b346101ac575f3660031901126101ac576020600454604051908152f35b346101ac5760403660031901126101ac5761001a60043561040f61105f565b9061042e610429825f526001602052600160405f20015490565b611407565b6114cd565b346101ac575f3660031901126101ac57602060405166038d7ea4c680008152f35b346101ac5760203660031901126101ac576020610477610472611049565b61136b565b604051908152f35b346101ac575f3660031901126101ac5760206040515f8152f35b346101ac5760203660031901126101ac576001600160a01b036104ba611049565b16338114801561058e575b1561053f575f52600360205260405f2060405190606082019082821067ffffffffffffffff83111761052b57606092604092835281549081815260ff60026001850154948560208501520154161515938491015260405192835260208301526040820152f35b634e487b7160e01b5f52604160045260245ffd5b60405162461bcd60e51b815260206004820152602160248201527f4e6f7420617574686f72697a656420746f207669657720746178207265636f726044820152601960fa1b6064820152608490fd5b50335f9081527ff7b30e9391563b8f655fa894c906bc634ddd86942c22ec7b124a942f29ab1e4a602052604090205460ff166104c5565b346101ac5760403660031901126101ac576105de61105f565b6004355f52600160205260405f209060018060a01b03165f52602052602060ff60405f2054166040519015158152f35b346101ac575f3660031901126101ac575f546040516001600160a01b039091168152602090f35b346101ac5760203660031901126101ac5760043560058110156101ac57610477602091611340565b346101ac5760403660031901126101ac5760043560058110156101ac576024359060058210156101ac57602091610477916112df565b346101ac575f3660031901126101ac576106ab61139c565b5f80546001600160a01b0319811682556001600160a01b03167f8be0079c531659141344cd1fd0a4f28419497f9722a3daafe3b4186f6b6457e08280a3005b346101ac575f3660031901126101ac576002546040516001600160a01b039091168152602090f35b346101ac575f3660031901126101ac5760206040517fbcc3263fd89c254886b4ab68b74b8b9b572a1de9bca610a7430280b4e771685f8152f35b60203660031901126101ac57610760611049565b6107686113c2565b600254604051630484d76760e31b81526001600160a01b0390911690602081600481855afa90811561095d575f91610a85575b5060405190632474521560e21b82526004820152336024820152602081604481855afa90811561095d575f91610a66575b5015610a2157604051638ed64d4160e01b81526001600160a01b038316600482018190529290602081602481865afa90811561095d575f916109f2575b50156109ad57610818906110c7565b906108248215156112a6565b8134106109685760206024916040519283809263356ea8eb60e21b82528760048301525afa90811561095d575f9161092e575b50825f526003602052600260405f206108718482546113fa565b815542600182015501600160ff19825416179055610891826004546113fa565b600455604051828152600482101561091a57606081859360207f45980aba8f38590c22918ce65d0f60c46a1e100ab9826ae1fe3a802fe1cbc41b940152426040820152a26040519081524260208201527f020f67c07682f5b64947342b7bad80dfdb7628405c6478ada34d4ec1e808795560403392a360015f5160206117d85f395f51905f5255005b634e487b7160e01b5f52602160045260245ffd5b610950915060203d602011610956575b6109488183611075565b810190611097565b83610857565b503d61093e565b6040513d5f823e3d90fd5b60405162461bcd60e51b815260206004820152601f60248201527f496e73756666696369656e742077697468686f6c64696e6720616d6f756e74006044820152606490fd5b60405162461bcd60e51b815260206004820152601a60248201527f456d706c6f796565206e6f74206175746f2d617070726f7665640000000000006044820152606490fd5b610a14915060203d602011610a1a575b610a0c8183611075565b81019061128e565b84610809565b503d610a02565b60405162461bcd60e51b815260206004820152601a60248201527f4e6f7420616e20617574686f72697a656420656d706c6f7965720000000000006044820152606490fd5b610a7f915060203d602011610a1a57610a0c8183611075565b836107cc565b90506020813d602011610aaf575b81610aa060209383611075565b810103126101ac57518361079b565b3d9150610a93565b346101ac5760403660031901126101ac57610ad0611049565b335f9081527fe0df82fdaef9a02b76124741ffe2d6678e9ab779c07569704d6c9f7fef3ef85e6020526040902054602435919060ff1615610b92576001600160a01b0316908115610b5a5760407fd483bbabdc89d89a0f5359309de7afa5116c3b488e13b21b9012a98c6ca4911b91835f52600660205280825f20558151908152426020820152a2005b60405162461bcd60e51b815260206004820152601060248201526f496e76616c696420656d706c6f79656560801b6044820152606490fd5b63e2517d3f60e01b5f52336004527f9a656cc4e193e90c1efe4d1101966e3d66af824943c2bbd0ff5e34006d95b40760245260445ffd5b346101ac5760403660031901126101ac57610be261105f565b336001600160a01b03821603610bfe5761001a906004356114cd565b63334bd91960e11b5f5260045ffd5b346101ac575f3660031901126101ac5760206040517f9a656cc4e193e90c1efe4d1101966e3d66af824943c2bbd0ff5e34006d95b4078152f35b346101ac5760403660031901126101ac5761001a600435610c6661105f565b90610c80610429825f526001602052600160405f20015490565b611441565b5f3660031901126101ac57610c986113c2565b600254604051638ed64d4160e01b81523360048201526001600160a01b0390911690602081602481855afa90811561095d575f91610ecb575b5015610e865760206024916040519283809263356ea8eb60e21b82523360048301525afa90811561095d575f91610e67575b506004811015908161091a57600281148015610e5a575b15610e0157610d28336110c7565b91610d348315156112a6565b823410610dc557335f526003602052600260405f20610d548582546113fa565b815542600182015501600160ff19825416179055610d74836004546113fa565b60045560405192835261091a5760208201524260408201527f45980aba8f38590c22918ce65d0f60c46a1e100ab9826ae1fe3a802fe1cbc41b60603392a260015f5160206117d85f395f51905f5255005b60405162461bcd60e51b8152602060048201526014602482015273125b9cdd59999a58da595b9d081c185e5b595b9d60621b6044820152606490fd5b60405162461bcd60e51b815260206004820152602b60248201527f436974697a656e207061796d656e74732064697361626c656420666f7220746860448201526a69732063617465676f727960a81b6064820152608490fd5b505f915060038114610d1a565b610e80915060203d602011610956576109488183611075565b81610d03565b60405162461bcd60e51b815260206004820152601960248201527f436974697a656e206e6f74206175746f2d617070726f766564000000000000006044820152606490fd5b610ee4915060203d602011610a1a57610a0c8183611075565b82610cd1565b346101ac5760203660031901126101ac5760206104776004355f526001602052600160405f20015490565b346101ac5760203660031901126101ac576020610477610f33611049565b6110c7565b346101ac5760203660031901126101ac57600435610f5461139c565b478111610f83575f8080809360018060a01b03825416828215610f7a575bf11561095d57005b506108fc610f72565b60405162461bcd60e51b8152602060048201526014602482015273496e73756666696369656e742062616c616e636560601b6044820152606490fd5b346101ac5760203660031901126101ac5760043563ffffffff60e01b81168091036101ac57602090637965db0b60e01b8114908115611004575b506040519015158152f35b6301ffc9a760e01b14905082610ff9565b346101ac5760203660031901126101ac576020906001600160a01b03611039611049565b165f526006825260405f20548152f35b600435906001600160a01b03821682036101ac57565b602435906001600160a01b03821682036101ac57565b90601f8019910116810190811067ffffffffffffffff82111761052b57604052565b908160209103126101ac575160048110156101ac5790565b908160209103126101ac575160058110156101ac5790565b60025460405163356ea8eb60e21b81526001600160a01b0383811660048301819052921692602082602481875afa91821561095d575f9261126d575b50600482101561091a57811561125a576001821461124d57506002146111895760209060246040518094819363d8c6b3d960e01b835260048301525afa801561095d57611157915f9161115a575b50611340565b90565b61117c915060203d602011611182575b6111748183611075565b8101906110af565b5f611151565b503d61116a565b60405163d8c6b3d960e01b8152600481018290529190602083602481855afa92831561095d575f9361122b575b5060209060246040518094819363289c753560e11b835260048301525afa90811561095d575f916111ec575b50611157916112df565b90506020813d602011611223575b8161120760209383611075565b810103126101ac57519060058210156101ac57906111576111e2565b3d91506111fa565b602091935061124690823d8411611182576111748183611075565b92906111b6565b915050611157915061136b565b505090505f52600660205260405f205490565b61128791925060203d602011610956576109488183611075565b905f611103565b908160209103126101ac575180151581036101ac5790565b156112ad57565b60405162461bcd60e51b815260206004820152600a6024820152694e6f207461782064756560b01b6044820152606490fd5b906112f4906112ee818461155b565b92611679565b9081810291818304149015171561132c57612710900466038d7ea4c6800081029080820466038d7ea4c68000149015171561132c5790565b634e487b7160e01b5f52601160045260245ffd5b61134990611776565b66038d7ea4c6800081029080820466038d7ea4c68000149015171561132c5790565b60018060a01b03165f52600560205260405f2054610bb8810290808204610bb8149015171561132c57612710900490565b5f546001600160a01b031633036113af57565b63118cdaa760e01b5f523360045260245ffd5b60025f5160206117d85f395f51905f5254146113eb5760025f5160206117d85f395f51905f5255565b633ee5aeb560e01b5f5260045ffd5b9190820180921161132c57565b5f81815260016020908152604080832033845290915290205460ff161561142b5750565b63e2517d3f60e01b5f523360045260245260445ffd5b5f8181526001602090815260408083206001600160a01b038616845290915290205460ff166114c7575f8181526001602081815260408084206001600160a01b0396909616808552959091528220805460ff19169091179055339291907f2f8788117e7eff1d82e926ec794901d17c78024a50270940304540a733656f0d9080a4600190565b50505f90565b5f8181526001602090815260408083206001600160a01b038616845290915290205460ff16156114c7575f8181526001602090815260408083206001600160a01b0395909516808452949091528120805460ff19169055339291907ff6391f5c32d9c69d2a47ea670b442974b53935d1edc7fd64eb21e047a839171b9080a4600190565b6005111561091a57565b61156481611551565b8061161c5750621e8480905b61157981611551565b80156116055761158881611551565b600181146115ea5761159981611551565b600281146115cf576003906115ad81611551565b146115b55790565b600b810290808204600b149015171561132c57600a900490565b50600c810290808204600c149015171561132c57600a900490565b50600f810290808204600f149015171561132c57600a900490565b508060011b908082046002149015171561132c5790565b61162581611551565b600181036116385750623567e090611570565b61164181611551565b6002810361165457506244aa2090611570565b60039061166081611551565b0361166f576216e36090611570565b622625a090611570565b906116a89161168781611551565b8061171d575060c8905b61169a81611551565b806116c9575060fa906113fa565b60c881106116c35761038481116116bc5790565b5061038490565b5060c890565b6116d281611551565b600181036116e357506096906113fa565b6116ec81611551565b600281036116fd57506064906113fa565b60039061170981611551565b03611716576032906113fa565b5f906113fa565b61172681611551565b6001810361173857506101f490611691565b61174181611551565b60028103611753575061028a90611691565b60039061175f81611551565b0361176d5761015e90611691565b6101c290611691565b61177f81611551565b80156117d15761178e81611551565b600181146117ca5761179f81611551565b600281146117c3576003906117b381611551565b146117be5761014090565b60f090565b506101a490565b5061011890565b5060dc9056fe9b779b17422d0df92223018b32b4d1fa46e071723d6817e2486d003becc55f00a2646970667358221220a19a814e883cbb1dd9e3742bf1b7b1055dc536f89939001553661a05c3ee969764736f6c634300081c00332f8788117e7eff1d82e926ec794901d17c78024a50270940304540a733656f0da6eef7e35abe7026729641147f7915573c7e97b47efa546f5f6e3230263bcb49c24b2b6a100b77449eeed463f23b50ca60fb6c7685397bcfcec89dc3798f76bde0df82fdaef9a02b76124741ffe2d6678e9ab779c07569704d6c9f7fef3ef85ef7b30e9391563b8f655fa894c906bc634ddd86942c22ec7b124a942f29ab1e4a","opcodes":"PUSH1 0x80 CALLVALUE PUSH2 0x11D JUMPI PUSH1 0x1F PUSH2 0x1C32 CODESIZE DUP2 SWAP1 SUB SWAP2 DUP3 ADD PUSH1 0x1F NOT AND DUP4 ADD SWAP2 PUSH1 0x1 PUSH1 0x1 PUSH1 0x40 SHL SUB DUP4 GT DUP5 DUP5 LT OR PUSH2 0x121 JUMPI DUP1 DUP5 SWAP3 PUSH1 0x20 SWAP5 PUSH1 0x40 MSTORE DUP4 CODECOPY DUP2 ADD SUB SLT PUSH2 0x11D JUMPI MLOAD PUSH1 0x1 PUSH1 0x1 PUSH1 0xA0 SHL SUB DUP2 AND SWAP1 DUP2 SWAP1 SUB PUSH2 0x11D JUMPI CALLER ISZERO PUSH2 0x10A JUMPI PUSH0 DUP1 SLOAD CALLER PUSH1 0x1 PUSH1 0x1 PUSH1 0xA0 SHL SUB NOT DUP3 AND DUP2 OR DUP4 SSTORE SWAP2 PUSH1 0x1 PUSH1 0x1 PUSH1 0xA0 SHL SUB SWAP1 SWAP2 AND SWAP1 PUSH32 0x8BE0079C531659141344CD1FD0A4F28419497F9722A3DAAFE3B4186F6B6457E0 SWAP1 DUP1 LOG3 PUSH1 0x1 PUSH32 0x9B779B17422D0DF92223018B32B4D1FA46E071723D6817E2486D003BECC55F00 SSTORE PUSH1 0x2 DUP1 SLOAD PUSH1 0x1 PUSH1 0x1 PUSH1 0xA0 SHL SUB NOT AND SWAP2 SWAP1 SWAP2 OR SWAP1 SSTORE PUSH2 0xDC CALLER PUSH2 0x135 JUMP JUMPDEST POP PUSH2 0xE6 CALLER PUSH2 0x1AB JUMP JUMPDEST POP PUSH2 0xF0 CALLER PUSH2 0x23E JUMP JUMPDEST POP PUSH2 0xFA CALLER PUSH2 0x2D1 JUMP JUMPDEST POP PUSH1 0x40 MLOAD PUSH2 0x182D SWAP1 DUP2 PUSH2 0x365 DUP3 CODECOPY RETURN JUMPDEST PUSH4 0x1E4FBDF7 PUSH1 0xE0 SHL PUSH0 MSTORE PUSH0 PUSH1 0x4 MSTORE PUSH1 0x24 PUSH0 REVERT JUMPDEST PUSH0 DUP1 REVERT JUMPDEST PUSH4 0x4E487B71 PUSH1 0xE0 SHL PUSH0 MSTORE PUSH1 0x41 PUSH1 0x4 MSTORE PUSH1 0x24 PUSH0 REVERT JUMPDEST PUSH1 0x1 PUSH1 0x1 PUSH1 0xA0 SHL SUB DUP2 AND PUSH0 SWAP1 DUP2 MSTORE PUSH0 MLOAD PUSH1 0x20 PUSH2 0x1BB2 PUSH0 CODECOPY PUSH0 MLOAD SWAP1 PUSH0 MSTORE PUSH1 0x20 MSTORE PUSH1 0x40 SWAP1 KECCAK256 SLOAD PUSH1 0xFF AND PUSH2 0x1A6 JUMPI PUSH1 0x1 PUSH1 0x1 PUSH1 0xA0 SHL SUB AND PUSH0 DUP2 DUP2 MSTORE PUSH0 MLOAD PUSH1 0x20 PUSH2 0x1BB2 PUSH0 CODECOPY PUSH0 MLOAD SWAP1 PUSH0 MSTORE PUSH1 0x20 MSTORE PUSH1 0x40 DUP2 KECCAK256 DUP1 SLOAD PUSH1 0xFF NOT AND PUSH1 0x1 OR SWAP1 SSTORE CALLER SWAP2 SWAP1 PUSH0 MLOAD PUSH1 0x20 PUSH2 0x1B92 PUSH0 CODECOPY PUSH0 MLOAD SWAP1 PUSH0 MSTORE DUP2 DUP1 LOG4 PUSH1 0x1 SWAP1 JUMP JUMPDEST POP PUSH0 SWAP1 JUMP JUMPDEST PUSH1 0x1 PUSH1 0x1 PUSH1 0xA0 SHL SUB DUP2 AND PUSH0 SWAP1 DUP2 MSTORE PUSH0 MLOAD PUSH1 0x20 PUSH2 0x1BD2 PUSH0 CODECOPY PUSH0 MLOAD SWAP1 PUSH0 MSTORE PUSH1 0x20 MSTORE PUSH1 0x40 SWAP1 KECCAK256 SLOAD PUSH1 0xFF AND PUSH2 0x1A6 JUMPI PUSH1 0x1 PUSH1 0x1 PUSH1 0xA0 SHL SUB AND PUSH0 DUP2 DUP2 MSTORE PUSH0 MLOAD PUSH1 0x20 PUSH2 0x1BD2 PUSH0 CODECOPY PUSH0 MLOAD SWAP1 PUSH0 MSTORE PUSH1 0x20 MSTORE PUSH1 0x40 DUP2 KECCAK256 DUP1 SLOAD PUSH1 0xFF NOT AND PUSH1 0x1 OR SWAP1 SSTORE CALLER SWAP2 SWAP1 PUSH32 0xBCC3263FD89C254886B4AB68B74B8B9B572A1DE9BCA610A7430280B4E771685F SWAP1 PUSH0 MLOAD PUSH1 0x20 PUSH2 0x1B92 PUSH0 CODECOPY PUSH0 MLOAD SWAP1 PUSH0 MSTORE SWAP1 DUP1 LOG4 PUSH1 0x1 SWAP1 JUMP JUMPDEST PUSH1 0x1 PUSH1 0x1 PUSH1 0xA0 SHL SUB DUP2 AND PUSH0 SWAP1 DUP2 MSTORE PUSH0 MLOAD PUSH1 0x20 PUSH2 0x1BF2 PUSH0 CODECOPY PUSH0 MLOAD SWAP1 PUSH0 MSTORE PUSH1 0x20 MSTORE PUSH1 0x40 SWAP1 KECCAK256 SLOAD PUSH1 0xFF AND PUSH2 0x1A6 JUMPI PUSH1 0x1 PUSH1 0x1 PUSH1 0xA0 SHL SUB AND PUSH0 DUP2 DUP2 MSTORE PUSH0 MLOAD PUSH1 0x20 PUSH2 0x1BF2 PUSH0 CODECOPY PUSH0 MLOAD SWAP1 PUSH0 MSTORE PUSH1 0x20 MSTORE PUSH1 0x40 DUP2 KECCAK256 DUP1 SLOAD PUSH1 0xFF NOT AND PUSH1 0x1 OR SWAP1 SSTORE CALLER SWAP2 SWAP1 PUSH32 0x9A656CC4E193E90C1EFE4D1101966E3D66AF824943C2BBD0FF5E34006D95B407 SWAP1 PUSH0 MLOAD PUSH1 0x20 PUSH2 0x1B92 PUSH0 CODECOPY PUSH0 MLOAD SWAP1 PUSH0 MSTORE SWAP1 DUP1 LOG4 PUSH1 0x1 SWAP1 JUMP JUMPDEST PUSH1 0x1 PUSH1 0x1 PUSH1 0xA0 SHL SUB DUP2 AND PUSH0 SWAP1 DUP2 MSTORE PUSH0 MLOAD PUSH1 0x20 PUSH2 0x1C12 PUSH0 CODECOPY PUSH0 MLOAD SWAP1 PUSH0 MSTORE PUSH1 0x20 MSTORE PUSH1 0x40 SWAP1 KECCAK256 SLOAD PUSH1 0xFF AND PUSH2 0x1A6 JUMPI PUSH1 0x1 PUSH1 0x1 PUSH1 0xA0 SHL SUB AND PUSH0 DUP2 DUP2 MSTORE PUSH0 MLOAD PUSH1 0x20 PUSH2 0x1C12 PUSH0 CODECOPY PUSH0 MLOAD SWAP1 PUSH0 MSTORE PUSH1 0x20 MSTORE PUSH1 0x40 DUP2 KECCAK256 DUP1 SLOAD PUSH1 0xFF NOT AND PUSH1 0x1 OR SWAP1 SSTORE CALLER SWAP2 SWAP1 PUSH32 0x7CB8DA4815C5C7BFEC597D7479BF1F02DEF0B6D0F50CD2AD5EB80C69AC5C1A1B SWAP1 PUSH0 MLOAD PUSH1 0x20 PUSH2 0x1B92 PUSH0 CODECOPY PUSH0 MLOAD SWAP1 PUSH0 MSTORE SWAP1 DUP1 LOG4 PUSH1 0x1 SWAP1 JUMP INVALID PUSH1 0x80 DUP1 PUSH1 0x40 MSTORE PUSH1 0x4 CALLDATASIZE LT ISZERO PUSH2 0x1C JUMPI JUMPDEST POP CALLDATASIZE ISZERO PUSH2 0x1A JUMPI PUSH0 DUP1 REVERT JUMPDEST STOP JUMPDEST PUSH0 CALLDATALOAD PUSH1 0xE0 SHR SWAP1 DUP2 PUSH4 0x11F6626 EQ PUSH2 0x1015 JUMPI POP DUP1 PUSH4 0x1FFC9A7 EQ PUSH2 0xFBF JUMPI DUP1 PUSH4 0xCEFF204 EQ PUSH2 0xF38 JUMPI DUP1 PUSH4 0x1A26FA07 EQ PUSH2 0xF15 JUMPI DUP1 PUSH4 0x248A9CA3 EQ PUSH2 0xEEA JUMPI DUP1 PUSH4 0x2912BA5F EQ PUSH2 0xC85 JUMPI DUP1 PUSH4 0x2F2FF15D EQ PUSH2 0xC47 JUMPI DUP1 PUSH4 0x3321A654 EQ PUSH2 0xC0D JUMPI DUP1 PUSH4 0x36568ABE EQ PUSH2 0xBC9 JUMPI DUP1 PUSH4 0x5155C1BF EQ PUSH2 0xAB7 JUMPI DUP1 PUSH4 0x57084650 EQ PUSH2 0x74C JUMPI DUP1 PUSH4 0x63FE1E08 EQ PUSH2 0x712 JUMPI DUP1 PUSH4 0x67031BAE EQ PUSH2 0x6EA JUMPI DUP1 PUSH4 0x715018A6 EQ PUSH2 0x693 JUMPI DUP1 PUSH4 0x72F348F4 EQ PUSH2 0x65D JUMPI DUP1 PUSH4 0x84C646C3 EQ PUSH2 0x635 JUMPI DUP1 PUSH4 0x8DA5CB5B EQ PUSH2 0x60E JUMPI DUP1 PUSH4 0x91D14854 EQ PUSH2 0x5C5 JUMPI DUP1 PUSH4 0x9AF82CE9 EQ PUSH2 0x499 JUMPI DUP1 PUSH4 0xA217FDDF EQ PUSH2 0x47F JUMPI DUP1 PUSH4 0xBB5C9B11 EQ PUSH2 0x454 JUMPI DUP1 PUSH4 0xC2E21314 EQ PUSH2 0x433 JUMPI DUP1 PUSH4 0xD547741F EQ PUSH2 0x3F0 JUMPI DUP1 PUSH4 0xD8454A82 EQ PUSH2 0x3D3 JUMPI DUP1 PUSH4 0xDBB68800 EQ PUSH2 0x2C1 JUMPI DUP1 PUSH4 0xE1A84A30 EQ PUSH2 0x2A5 JUMPI DUP1 PUSH4 0xE4C08517 EQ PUSH2 0x26D JUMPI DUP1 PUSH4 0xF19CEB65 EQ PUSH2 0x235 JUMPI DUP1 PUSH4 0xF2FDE38B EQ PUSH2 0x1B0 JUMPI PUSH4 0xF672D4C0 EQ PUSH2 0x172 JUMPI PUSH0 PUSH2 0xF JUMP JUMPDEST CALLVALUE PUSH2 0x1AC JUMPI PUSH0 CALLDATASIZE PUSH1 0x3 NOT ADD SLT PUSH2 0x1AC JUMPI PUSH1 0x20 PUSH1 0x40 MLOAD PUSH32 0x7CB8DA4815C5C7BFEC597D7479BF1F02DEF0B6D0F50CD2AD5EB80C69AC5C1A1B DUP2 MSTORE RETURN JUMPDEST PUSH0 DUP1 REVERT JUMPDEST CALLVALUE PUSH2 0x1AC JUMPI PUSH1 0x20 CALLDATASIZE PUSH1 0x3 NOT ADD SLT PUSH2 0x1AC JUMPI PUSH2 0x1C9 PUSH2 0x1049 JUMP JUMPDEST PUSH2 0x1D1 PUSH2 0x139C JUMP JUMPDEST PUSH1 0x1 PUSH1 0x1 PUSH1 0xA0 SHL SUB AND DUP1 ISZERO PUSH2 0x222 JUMPI PUSH0 DUP1 SLOAD PUSH1 0x1 PUSH1 0x1 PUSH1 0xA0 SHL SUB NOT DUP2 AND DUP4 OR DUP3 SSTORE PUSH1 0x1 PUSH1 0x1 PUSH1 0xA0 SHL SUB AND SWAP1 PUSH32 0x8BE0079C531659141344CD1FD0A4F28419497F9722A3DAAFE3B4186F6B6457E0 SWAP1 DUP1 LOG3 STOP JUMPDEST PUSH4 0x1E4FBDF7 PUSH1 0xE0 SHL PUSH0 MSTORE PUSH0 PUSH1 0x4 MSTORE PUSH1 0x24 PUSH0 REVERT JUMPDEST CALLVALUE PUSH2 0x1AC JUMPI PUSH1 0x20 CALLDATASIZE PUSH1 0x3 NOT ADD SLT PUSH2 0x1AC JUMPI PUSH1 0x1 PUSH1 0x1 PUSH1 0xA0 SHL SUB PUSH2 0x256 PUSH2 0x1049 JUMP JUMPDEST AND PUSH0 MSTORE PUSH1 0x6 PUSH1 0x20 MSTORE PUSH1 0x20 PUSH1 0x40 PUSH0 KECCAK256 SLOAD PUSH1 0x40 MLOAD SWAP1 DUP2 MSTORE RETURN JUMPDEST CALLVALUE PUSH2 0x1AC JUMPI PUSH1 0x20 CALLDATASIZE PUSH1 0x3 NOT ADD SLT PUSH2 0x1AC JUMPI PUSH1 0x1 PUSH1 0x1 PUSH1 0xA0 SHL SUB PUSH2 0x28E PUSH2 0x1049 JUMP JUMPDEST AND PUSH0 MSTORE PUSH1 0x5 PUSH1 0x20 MSTORE PUSH1 0x20 PUSH1 0x40 PUSH0 KECCAK256 SLOAD PUSH1 0x40 MLOAD SWAP1 DUP2 MSTORE RETURN JUMPDEST CALLVALUE PUSH2 0x1AC JUMPI PUSH0 CALLDATASIZE PUSH1 0x3 NOT ADD SLT PUSH2 0x1AC JUMPI PUSH1 0x20 PUSH1 0x40 MLOAD PUSH2 0xBB8 DUP2 MSTORE RETURN JUMPDEST CALLVALUE PUSH2 0x1AC JUMPI PUSH1 0x40 CALLDATASIZE PUSH1 0x3 NOT ADD SLT PUSH2 0x1AC JUMPI PUSH2 0x2DA PUSH2 0x1049 JUMP JUMPDEST CALLER PUSH0 SWAP1 DUP2 MSTORE PUSH32 0xC24B2B6A100B77449EEED463F23B50CA60FB6C7685397BCFCEC89DC3798F76BD PUSH1 0x20 MSTORE PUSH1 0x40 SWAP1 KECCAK256 SLOAD PUSH1 0x24 CALLDATALOAD SWAP2 SWAP1 PUSH1 0xFF AND ISZERO PUSH2 0x39C JUMPI PUSH1 0x1 PUSH1 0x1 PUSH1 0xA0 SHL SUB AND SWAP1 DUP2 ISZERO PUSH2 0x364 JUMPI PUSH1 0x40 PUSH32 0xBC4582036727A979A4F409A0A187E072BF4347AA206C08FAC3213169D8C72FBF SWAP2 DUP4 PUSH0 MSTORE PUSH1 0x5 PUSH1 0x20 MSTORE DUP1 DUP3 PUSH0 KECCAK256 SSTORE DUP2 MLOAD SWAP1 DUP2 MSTORE TIMESTAMP PUSH1 0x20 DUP3 ADD MSTORE LOG2 STOP JUMPDEST PUSH1 0x40 MLOAD PUSH3 0x461BCD PUSH1 0xE5 SHL DUP2 MSTORE PUSH1 0x20 PUSH1 0x4 DUP3 ADD MSTORE PUSH1 0x10 PUSH1 0x24 DUP3 ADD MSTORE PUSH16 0x496E76616C696420627573696E657373 PUSH1 0x80 SHL PUSH1 0x44 DUP3 ADD MSTORE PUSH1 0x64 SWAP1 REVERT JUMPDEST PUSH4 0xE2517D3F PUSH1 0xE0 SHL PUSH0 MSTORE CALLER PUSH1 0x4 MSTORE PUSH32 0xBCC3263FD89C254886B4AB68B74B8B9B572A1DE9BCA610A7430280B4E771685F PUSH1 0x24 MSTORE PUSH1 0x44 PUSH0 REVERT JUMPDEST CALLVALUE PUSH2 0x1AC JUMPI PUSH0 CALLDATASIZE PUSH1 0x3 NOT ADD SLT PUSH2 0x1AC JUMPI PUSH1 0x20 PUSH1 0x4 SLOAD PUSH1 0x40 MLOAD SWAP1 DUP2 MSTORE RETURN JUMPDEST CALLVALUE PUSH2 0x1AC JUMPI PUSH1 0x40 CALLDATASIZE PUSH1 0x3 NOT ADD SLT PUSH2 0x1AC JUMPI PUSH2 0x1A PUSH1 0x4 CALLDATALOAD PUSH2 0x40F PUSH2 0x105F JUMP JUMPDEST SWAP1 PUSH2 0x42E PUSH2 0x429 DUP3 PUSH0 MSTORE PUSH1 0x1 PUSH1 0x20 MSTORE PUSH1 0x1 PUSH1 0x40 PUSH0 KECCAK256 ADD SLOAD SWAP1 JUMP JUMPDEST PUSH2 0x1407 JUMP JUMPDEST PUSH2 0x14CD JUMP JUMPDEST CALLVALUE PUSH2 0x1AC JUMPI PUSH0 CALLDATASIZE PUSH1 0x3 NOT ADD SLT PUSH2 0x1AC JUMPI PUSH1 0x20 PUSH1 0x40 MLOAD PUSH7 0x38D7EA4C68000 DUP2 MSTORE RETURN JUMPDEST CALLVALUE PUSH2 0x1AC JUMPI PUSH1 0x20 CALLDATASIZE PUSH1 0x3 NOT ADD SLT PUSH2 0x1AC JUMPI PUSH1 0x20 PUSH2 0x477 PUSH2 0x472 PUSH2 0x1049 JUMP JUMPDEST PUSH2 0x136B JUMP JUMPDEST PUSH1 0x40 MLOAD SWAP1 DUP2 MSTORE RETURN JUMPDEST CALLVALUE PUSH2 0x1AC JUMPI PUSH0 CALLDATASIZE PUSH1 0x3 NOT ADD SLT PUSH2 0x1AC JUMPI PUSH1 0x20 PUSH1 0x40 MLOAD PUSH0 DUP2 MSTORE RETURN JUMPDEST CALLVALUE PUSH2 0x1AC JUMPI PUSH1 0x20 CALLDATASIZE PUSH1 0x3 NOT ADD SLT PUSH2 0x1AC JUMPI PUSH1 0x1 PUSH1 0x1 PUSH1 0xA0 SHL SUB PUSH2 0x4BA PUSH2 0x1049 JUMP JUMPDEST AND CALLER DUP2 EQ DUP1 ISZERO PUSH2 0x58E JUMPI JUMPDEST ISZERO PUSH2 0x53F JUMPI PUSH0 MSTORE PUSH1 0x3 PUSH1 0x20 MSTORE PUSH1 0x40 PUSH0 KECCAK256 PUSH1 0x40 MLOAD SWAP1 PUSH1 0x60 DUP3 ADD SWAP1 DUP3 DUP3 LT PUSH8 0xFFFFFFFFFFFFFFFF DUP4 GT OR PUSH2 0x52B JUMPI PUSH1 0x60 SWAP3 PUSH1 0x40 SWAP3 DUP4 MSTORE DUP2 SLOAD SWAP1 DUP2 DUP2 MSTORE PUSH1 0xFF PUSH1 0x2 PUSH1 0x1 DUP6 ADD SLOAD SWAP5 DUP6 PUSH1 0x20 DUP6 ADD MSTORE ADD SLOAD AND ISZERO ISZERO SWAP4 DUP5 SWAP2 ADD MSTORE PUSH1 0x40 MLOAD SWAP3 DUP4 MSTORE PUSH1 0x20 DUP4 ADD MSTORE PUSH1 0x40 DUP3 ADD MSTORE RETURN JUMPDEST PUSH4 0x4E487B71 PUSH1 0xE0 SHL PUSH0 MSTORE PUSH1 0x41 PUSH1 0x4 MSTORE PUSH1 0x24 PUSH0 REVERT JUMPDEST PUSH1 0x40 MLOAD PUSH3 0x461BCD PUSH1 0xE5 SHL DUP2 MSTORE PUSH1 0x20 PUSH1 0x4 DUP3 ADD MSTORE PUSH1 0x21 PUSH1 0x24 DUP3 ADD MSTORE PUSH32 0x4E6F7420617574686F72697A656420746F207669657720746178207265636F72 PUSH1 0x44 DUP3 ADD MSTORE PUSH1 0x19 PUSH1 0xFA SHL PUSH1 0x64 DUP3 ADD MSTORE PUSH1 0x84 SWAP1 REVERT JUMPDEST POP CALLER PUSH0 SWAP1 DUP2 MSTORE PUSH32 0xF7B30E9391563B8F655FA894C906BC634DDD86942C22EC7B124A942F29AB1E4A PUSH1 0x20 MSTORE PUSH1 0x40 SWAP1 KECCAK256 SLOAD PUSH1 0xFF AND PUSH2 0x4C5 JUMP JUMPDEST CALLVALUE PUSH2 0x1AC JUMPI PUSH1 0x40 CALLDATASIZE PUSH1 0x3 NOT ADD SLT PUSH2 0x1AC JUMPI PUSH2 0x5DE PUSH2 0x105F JUMP JUMPDEST PUSH1 0x4 CALLDATALOAD PUSH0 MSTORE PUSH1 0x1 PUSH1 0x20 MSTORE PUSH1 0x40 PUSH0 KECCAK256 SWAP1 PUSH1 0x1 DUP1 PUSH1 0xA0 SHL SUB AND PUSH0 MSTORE PUSH1 0x20 MSTORE PUSH1 0x20 PUSH1 0xFF PUSH1 0x40 PUSH0 KECCAK256 SLOAD AND PUSH1 0x40 MLOAD SWAP1 ISZERO ISZERO DUP2 MSTORE RETURN JUMPDEST CALLVALUE PUSH2 0x1AC JUMPI PUSH0 CALLDATASIZE PUSH1 0x3 NOT ADD SLT PUSH2 0x1AC JUMPI PUSH0 SLOAD PUSH1 0x40 MLOAD PUSH1 0x1 PUSH1 0x1 PUSH1 0xA0 SHL SUB SWAP1 SWAP2 AND DUP2 MSTORE PUSH1 0x20 SWAP1 RETURN JUMPDEST CALLVALUE PUSH2 0x1AC JUMPI PUSH1 0x20 CALLDATASIZE PUSH1 0x3 NOT ADD SLT PUSH2 0x1AC JUMPI PUSH1 0x4 CALLDATALOAD PUSH1 0x5 DUP2 LT ISZERO PUSH2 0x1AC JUMPI PUSH2 0x477 PUSH1 0x20 SWAP2 PUSH2 0x1340 JUMP JUMPDEST CALLVALUE PUSH2 0x1AC JUMPI PUSH1 0x40 CALLDATASIZE PUSH1 0x3 NOT ADD SLT PUSH2 0x1AC JUMPI PUSH1 0x4 CALLDATALOAD PUSH1 0x5 DUP2 LT ISZERO PUSH2 0x1AC JUMPI PUSH1 0x24 CALLDATALOAD SWAP1 PUSH1 0x5 DUP3 LT ISZERO PUSH2 0x1AC JUMPI PUSH1 0x20 SWAP2 PUSH2 0x477 SWAP2 PUSH2 0x12DF JUMP JUMPDEST CALLVALUE PUSH2 0x1AC JUMPI PUSH0 CALLDATASIZE PUSH1 0x3 NOT ADD SLT PUSH2 0x1AC JUMPI PUSH2 0x6AB PUSH2 0x139C JUMP JUMPDEST PUSH0 DUP1 SLOAD PUSH1 0x1 PUSH1 0x1 PUSH1 0xA0 SHL SUB NOT DUP2 AND DUP3 SSTORE PUSH1 0x1 PUSH1 0x1 PUSH1 0xA0 SHL SUB AND PUSH32 0x8BE0079C531659141344CD1FD0A4F28419497F9722A3DAAFE3B4186F6B6457E0 DUP3 DUP1 LOG3 STOP JUMPDEST CALLVALUE PUSH2 0x1AC JUMPI PUSH0 CALLDATASIZE PUSH1 0x3 NOT ADD SLT PUSH2 0x1AC JUMPI PUSH1 0x2 SLOAD PUSH1 0x40 MLOAD PUSH1 0x1 PUSH1 0x1 PUSH1 0xA0 SHL SUB SWAP1 SWAP2 AND DUP2 MSTORE PUSH1 0x20 SWAP1 RETURN JUMPDEST CALLVALUE PUSH2 0x1AC JUMPI PUSH0 CALLDATASIZE PUSH1 0x3 NOT ADD SLT PUSH2 0x1AC JUMPI PUSH1 0x20 PUSH1 0x40 MLOAD PUSH32 0xBCC3263FD89C254886B4AB68B74B8B9B572A1DE9BCA610A7430280B4E771685F DUP2 MSTORE RETURN JUMPDEST PUSH1 0x20 CALLDATASIZE PUSH1 0x3 NOT ADD SLT PUSH2 0x1AC JUMPI PUSH2 0x760 PUSH2 0x1049 JUMP JUMPDEST PUSH2 0x768 PUSH2 0x13C2 JUMP JUMPDEST PUSH1 0x2 SLOAD PUSH1 0x40 MLOAD PUSH4 0x484D767 PUSH1 0xE3 SHL DUP2 MSTORE PUSH1 0x1 PUSH1 0x1 PUSH1 0xA0 SHL SUB SWAP1 SWAP2 AND SWAP1 PUSH1 0x20 DUP2 PUSH1 0x4 DUP2 DUP6 GAS STATICCALL SWAP1 DUP2 ISZERO PUSH2 0x95D JUMPI PUSH0 SWAP2 PUSH2 0xA85 JUMPI JUMPDEST POP PUSH1 0x40 MLOAD SWAP1 PUSH4 0x24745215 PUSH1 0xE2 SHL DUP3 MSTORE PUSH1 0x4 DUP3 ADD MSTORE CALLER PUSH1 0x24 DUP3 ADD MSTORE PUSH1 0x20 DUP2 PUSH1 0x44 DUP2 DUP6 GAS STATICCALL SWAP1 DUP2 ISZERO PUSH2 0x95D JUMPI PUSH0 SWAP2 PUSH2 0xA66 JUMPI JUMPDEST POP ISZERO PUSH2 0xA21 JUMPI PUSH1 0x40 MLOAD PUSH4 0x8ED64D41 PUSH1 0xE0 SHL DUP2 MSTORE PUSH1 0x1 PUSH1 0x1 PUSH1 0xA0 SHL SUB DUP4 AND PUSH1 0x4 DUP3 ADD DUP2 SWAP1 MSTORE SWAP3 SWAP1 PUSH1 0x20 DUP2 PUSH1 0x24 DUP2 DUP7 GAS STATICCALL SWAP1 DUP2 ISZERO PUSH2 0x95D JUMPI PUSH0 SWAP2 PUSH2 0x9F2 JUMPI JUMPDEST POP ISZERO PUSH2 0x9AD JUMPI PUSH2 0x818 SWAP1 PUSH2 0x10C7 JUMP JUMPDEST SWAP1 PUSH2 0x824 DUP3 ISZERO ISZERO PUSH2 0x12A6 JUMP JUMPDEST DUP2 CALLVALUE LT PUSH2 0x968 JUMPI PUSH1 0x20 PUSH1 0x24 SWAP2 PUSH1 0x40 MLOAD SWAP3 DUP4 DUP1 SWAP3 PUSH4 0x356EA8EB PUSH1 0xE2 SHL DUP3 MSTORE DUP8 PUSH1 0x4 DUP4 ADD MSTORE GAS STATICCALL SWAP1 DUP2 ISZERO PUSH2 0x95D JUMPI PUSH0 SWAP2 PUSH2 0x92E JUMPI JUMPDEST POP DUP3 PUSH0 MSTORE PUSH1 0x3 PUSH1 0x20 MSTORE PUSH1 0x2 PUSH1 0x40 PUSH0 KECCAK256 PUSH2 0x871 DUP5 DUP3 SLOAD PUSH2 0x13FA JUMP JUMPDEST DUP2 SSTORE TIMESTAMP PUSH1 0x1 DUP3 ADD SSTORE ADD PUSH1 0x1 PUSH1 0xFF NOT DUP3 SLOAD AND OR SWAP1 SSTORE PUSH2 0x891 DUP3 PUSH1 0x4 SLOAD PUSH2 0x13FA JUMP JUMPDEST PUSH1 0x4 SSTORE PUSH1 0x40 MLOAD DUP3 DUP2 MSTORE PUSH1 0x4 DUP3 LT ISZERO PUSH2 0x91A JUMPI PUSH1 0x60 DUP2 DUP6 SWAP4 PUSH1 0x20 PUSH32 0x45980ABA8F38590C22918CE65D0F60C46A1E100AB9826AE1FE3A802FE1CBC41B SWAP5 ADD MSTORE TIMESTAMP PUSH1 0x40 DUP3 ADD MSTORE LOG2 PUSH1 0x40 MLOAD SWAP1 DUP2 MSTORE TIMESTAMP PUSH1 0x20 DUP3 ADD MSTORE PUSH32 0x20F67C07682F5B64947342B7BAD80DFDB7628405C6478ADA34D4EC1E8087955 PUSH1 0x40 CALLER SWAP3 LOG3 PUSH1 0x1 PUSH0 MLOAD PUSH1 0x20 PUSH2 0x17D8 PUSH0 CODECOPY PUSH0 MLOAD SWAP1 PUSH0 MSTORE SSTORE STOP JUMPDEST PUSH4 0x4E487B71 PUSH1 0xE0 SHL PUSH0 MSTORE PUSH1 0x21 PUSH1 0x4 MSTORE PUSH1 0x24 PUSH0 REVERT JUMPDEST PUSH2 0x950 SWAP2 POP PUSH1 0x20 RETURNDATASIZE PUSH1 0x20 GT PUSH2 0x956 JUMPI JUMPDEST PUSH2 0x948 DUP2 DUP4 PUSH2 0x1075 JUMP JUMPDEST DUP2 ADD SWAP1 PUSH2 0x1097 JUMP JUMPDEST DUP4 PUSH2 0x857 JUMP JUMPDEST POP RETURNDATASIZE PUSH2 0x93E JUMP JUMPDEST PUSH1 0x40 MLOAD RETURNDATASIZE PUSH0 DUP3 RETURNDATACOPY RETURNDATASIZE SWAP1 REVERT JUMPDEST PUSH1 0x40 MLOAD PUSH3 0x461BCD PUSH1 0xE5 SHL DUP2 MSTORE PUSH1 0x20 PUSH1 0x4 DUP3 ADD MSTORE PUSH1 0x1F PUSH1 0x24 DUP3 ADD MSTORE PUSH32 0x496E73756666696369656E742077697468686F6C64696E6720616D6F756E7400 PUSH1 0x44 DUP3 ADD MSTORE PUSH1 0x64 SWAP1 REVERT JUMPDEST PUSH1 0x40 MLOAD PUSH3 0x461BCD PUSH1 0xE5 SHL DUP2 MSTORE PUSH1 0x20 PUSH1 0x4 DUP3 ADD MSTORE PUSH1 0x1A PUSH1 0x24 DUP3 ADD MSTORE PUSH32 0x456D706C6F796565206E6F74206175746F2D617070726F766564000000000000 PUSH1 0x44 DUP3 ADD MSTORE PUSH1 0x64 SWAP1 REVERT JUMPDEST PUSH2 0xA14 SWAP2 POP PUSH1 0x20 RETURNDATASIZE PUSH1 0x20 GT PUSH2 0xA1A JUMPI JUMPDEST PUSH2 0xA0C DUP2 DUP4 PUSH2 0x1075 JUMP JUMPDEST DUP2 ADD SWAP1 PUSH2 0x128E JUMP JUMPDEST DUP5 PUSH2 0x809 JUMP JUMPDEST POP RETURNDATASIZE PUSH2 0xA02 JUMP JUMPDEST PUSH1 0x40 MLOAD PUSH3 0x461BCD PUSH1 0xE5 SHL DUP2 MSTORE PUSH1 0x20 PUSH1 0x4 DUP3 ADD MSTORE PUSH1 0x1A PUSH1 0x24 DUP3 ADD MSTORE PUSH32 0x4E6F7420616E20617574686F72697A656420656D706C6F796572000000000000 PUSH1 0x44 DUP3 ADD MSTORE PUSH1 0x64 SWAP1 REVERT JUMPDEST PUSH2 0xA7F SWAP2 POP PUSH1 0x20 RETURNDATASIZE PUSH1 0x20 GT PUSH2 0xA1A JUMPI PUSH2 0xA0C DUP2 DUP4 PUSH2 0x1075 JUMP JUMPDEST DUP4 PUSH2 0x7CC JUMP JUMPDEST SWAP1 POP PUSH1 0x20 DUP2 RETURNDATASIZE PUSH1 0x20 GT PUSH2 0xAAF JUMPI JUMPDEST DUP2 PUSH2 0xAA0 PUSH1 0x20 SWAP4 DUP4 PUSH2 0x1075 JUMP JUMPDEST DUP2 ADD SUB SLT PUSH2 0x1AC JUMPI MLOAD DUP4 PUSH2 0x79B JUMP JUMPDEST RETURNDATASIZE SWAP2 POP PUSH2 0xA93 JUMP JUMPDEST CALLVALUE PUSH2 0x1AC JUMPI PUSH1 0x40 CALLDATASIZE PUSH1 0x3 NOT ADD SLT PUSH2 0x1AC JUMPI PUSH2 0xAD0 PUSH2 0x1049 JUMP JUMPDEST CALLER PUSH0 SWAP1 DUP2 MSTORE PUSH32 0xE0DF82FDAEF9A02B76124741FFE2D6678E9AB779C07569704D6C9F7FEF3EF85E PUSH1 0x20 MSTORE PUSH1 0x40 SWAP1 KECCAK256 SLOAD PUSH1 0x24 CALLDATALOAD SWAP2 SWAP1 PUSH1 0xFF AND ISZERO PUSH2 0xB92 JUMPI PUSH1 0x1 PUSH1 0x1 PUSH1 0xA0 SHL SUB AND SWAP1 DUP2 ISZERO PUSH2 0xB5A JUMPI PUSH1 0x40 PUSH32 0xD483BBABDC89D89A0F5359309DE7AFA5116C3B488E13B21B9012A98C6CA4911B SWAP2 DUP4 PUSH0 MSTORE PUSH1 0x6 PUSH1 0x20 MSTORE DUP1 DUP3 PUSH0 KECCAK256 SSTORE DUP2 MLOAD SWAP1 DUP2 MSTORE TIMESTAMP PUSH1 0x20 DUP3 ADD MSTORE LOG2 STOP JUMPDEST PUSH1 0x40 MLOAD PUSH3 0x461BCD PUSH1 0xE5 SHL DUP2 MSTORE PUSH1 0x20 PUSH1 0x4 DUP3 ADD MSTORE PUSH1 0x10 PUSH1 0x24 DUP3 ADD MSTORE PUSH16 0x496E76616C696420656D706C6F796565 PUSH1 0x80 SHL PUSH1 0x44 DUP3 ADD MSTORE PUSH1 0x64 SWAP1 REVERT JUMPDEST PUSH4 0xE2517D3F PUSH1 0xE0 SHL PUSH0 MSTORE CALLER PUSH1 0x4 MSTORE PUSH32 0x9A656CC4E193E90C1EFE4D1101966E3D66AF824943C2BBD0FF5E34006D95B407 PUSH1 0x24 MSTORE PUSH1 0x44 PUSH0 REVERT JUMPDEST CALLVALUE PUSH2 0x1AC JUMPI PUSH1 0x40 CALLDATASIZE PUSH1 0x3 NOT ADD SLT PUSH2 0x1AC JUMPI PUSH2 0xBE2 PUSH2 0x105F JUMP JUMPDEST CALLER PUSH1 0x1 PUSH1 0x1 PUSH1 0xA0 SHL SUB DUP3 AND SUB PUSH2 0xBFE JUMPI PUSH2 0x1A SWAP1 PUSH1 0x4 CALLDATALOAD PUSH2 0x14CD JUMP JUMPDEST PUSH4 0x334BD919 PUSH1 0xE1 SHL PUSH0 MSTORE PUSH1 0x4 PUSH0 REVERT JUMPDEST CALLVALUE PUSH2 0x1AC JUMPI PUSH0 CALLDATASIZE PUSH1 0x3 NOT ADD SLT PUSH2 0x1AC JUMPI PUSH1 0x20 PUSH1 0x40 MLOAD PUSH32 0x9A656CC4E193E90C1EFE4D1101966E3D66AF824943C2BBD0FF5E34006D95B407 DUP2 MSTORE RETURN JUMPDEST CALLVALUE PUSH2 0x1AC JUMPI PUSH1 0x40 CALLDATASIZE PUSH1 0x3 NOT ADD SLT PUSH2 0x1AC JUMPI PUSH2 0x1A PUSH1 0x4 CALLDATALOAD PUSH2 0xC66 PUSH2 0x105F JUMP JUMPDEST SWAP1 PUSH2 0xC80 PUSH2 0x429 DUP3 PUSH0 MSTORE PUSH1 0x1 PUSH1 0x20 MSTORE PUSH1 0x1 PUSH1 0x40 PUSH0 KECCAK256 ADD SLOAD SWAP1 JUMP JUMPDEST PUSH2 0x1441 JUMP JUMPDEST PUSH0 CALLDATASIZE PUSH1 0x3 NOT ADD SLT PUSH2 0x1AC JUMPI PUSH2 0xC98 PUSH2 0x13C2 JUMP JUMPDEST PUSH1 0x2 SLOAD PUSH1 0x40 MLOAD PUSH4 0x8ED64D41 PUSH1 0xE0 SHL DUP2 MSTORE CALLER PUSH1 0x4 DUP3 ADD MSTORE PUSH1 0x1 PUSH1 0x1 PUSH1 0xA0 SHL SUB SWAP1 SWAP2 AND SWAP1 PUSH1 0x20 DUP2 PUSH1 0x24 DUP2 DUP6 GAS STATICCALL SWAP1 DUP2 ISZERO PUSH2 0x95D JUMPI PUSH0 SWAP2 PUSH2 0xECB JUMPI JUMPDEST POP ISZERO PUSH2 0xE86 JUMPI PUSH1 0x20 PUSH1 0x24 SWAP2 PUSH1 0x40 MLOAD SWAP3 DUP4 DUP1 SWAP3 PUSH4 0x356EA8EB PUSH1 0xE2 SHL DUP3 MSTORE CALLER PUSH1 0x4 DUP4 ADD MSTORE GAS STATICCALL SWAP1 DUP2 ISZERO PUSH2 0x95D JUMPI PUSH0 SWAP2 PUSH2 0xE67 JUMPI JUMPDEST POP PUSH1 0x4 DUP2 LT ISZERO SWAP1 DUP2 PUSH2 0x91A JUMPI PUSH1 0x2 DUP2 EQ DUP1 ISZERO PUSH2 0xE5A JUMPI JUMPDEST ISZERO PUSH2 0xE01 JUMPI PUSH2 0xD28 CALLER PUSH2 0x10C7 JUMP JUMPDEST SWAP2 PUSH2 0xD34 DUP4 ISZERO ISZERO PUSH2 0x12A6 JUMP JUMPDEST DUP3 CALLVALUE LT PUSH2 0xDC5 JUMPI CALLER PUSH0 MSTORE PUSH1 0x3 PUSH1 0x20 MSTORE PUSH1 0x2 PUSH1 0x40 PUSH0 KECCAK256 PUSH2 0xD54 DUP6 DUP3 SLOAD PUSH2 0x13FA JUMP JUMPDEST DUP2 SSTORE TIMESTAMP PUSH1 0x1 DUP3 ADD SSTORE ADD PUSH1 0x1 PUSH1 0xFF NOT DUP3 SLOAD AND OR SWAP1 SSTORE PUSH2 0xD74 DUP4 PUSH1 0x4 SLOAD PUSH2 0x13FA JUMP JUMPDEST PUSH1 0x4 SSTORE PUSH1 0x40 MLOAD SWAP3 DUP4 MSTORE PUSH2 0x91A JUMPI PUSH1 0x20 DUP3 ADD MSTORE TIMESTAMP PUSH1 0x40 DUP3 ADD MSTORE PUSH32 0x45980ABA8F38590C22918CE65D0F60C46A1E100AB9826AE1FE3A802FE1CBC41B PUSH1 0x60 CALLER SWAP3 LOG2 PUSH1 0x1 PUSH0 MLOAD PUSH1 0x20 PUSH2 0x17D8 PUSH0 CODECOPY PUSH0 MLOAD SWAP1 PUSH0 MSTORE SSTORE STOP JUMPDEST PUSH1 0x40 MLOAD PUSH3 0x461BCD PUSH1 0xE5 SHL DUP2 MSTORE PUSH1 0x20 PUSH1 0x4 DUP3 ADD MSTORE PUSH1 0x14 PUSH1 0x24 DUP3 ADD MSTORE PUSH20 0x125B9CDD59999A58DA595B9D081C185E5B595B9D PUSH1 0x62 SHL PUSH1 0x44 DUP3 ADD MSTORE PUSH1 0x64 SWAP1 REVERT JUMPDEST PUSH1 0x40 MLOAD PUSH3 0x461BCD PUSH1 0xE5 SHL DUP2 MSTORE PUSH1 0x20 PUSH1 0x4 DUP3 ADD MSTORE PUSH1 0x2B PUSH1 0x24 DUP3 ADD MSTORE PUSH32 0x436974697A656E207061796D656E74732064697361626C656420666F72207468 PUSH1 0x44 DUP3 ADD MSTORE PUSH11 0x69732063617465676F7279 PUSH1 0xA8 SHL PUSH1 0x64 DUP3 ADD MSTORE PUSH1 0x84 SWAP1 REVERT JUMPDEST POP PUSH0 SWAP2 POP PUSH1 0x3 DUP2 EQ PUSH2 0xD1A JUMP JUMPDEST PUSH2 0xE80 SWAP2 POP PUSH1 0x20 RETURNDATASIZE PUSH1 0x20 GT PUSH2 0x956 JUMPI PUSH2 0x948 DUP2 DUP4 PUSH2 0x1075 JUMP JUMPDEST DUP2 PUSH2 0xD03 JUMP JUMPDEST PUSH1 0x40 MLOAD PUSH3 0x461BCD PUSH1 0xE5 SHL DUP2 MSTORE PUSH1 0x20 PUSH1 0x4 DUP3 ADD MSTORE PUSH1 0x19 PUSH1 0x24 DUP3 ADD MSTORE PUSH32 0x436974697A656E206E6F74206175746F2D617070726F76656400000000000000 PUSH1 0x44 DUP3 ADD MSTORE PUSH1 0x64 SWAP1 REVERT JUMPDEST PUSH2 0xEE4 SWAP2 POP PUSH1 0x20 RETURNDATASIZE PUSH1 0x20 GT PUSH2 0xA1A JUMPI PUSH2 0xA0C DUP2 DUP4 PUSH2 0x1075 JUMP JUMPDEST DUP3 PUSH2 0xCD1 JUMP JUMPDEST CALLVALUE PUSH2 0x1AC JUMPI PUSH1 0x20 CALLDATASIZE PUSH1 0x3 NOT ADD SLT PUSH2 0x1AC JUMPI PUSH1 0x20 PUSH2 0x477 PUSH1 0x4 CALLDATALOAD PUSH0 MSTORE PUSH1 0x1 PUSH1 0x20 MSTORE PUSH1 0x1 PUSH1 0x40 PUSH0 KECCAK256 ADD SLOAD SWAP1 JUMP JUMPDEST CALLVALUE PUSH2 0x1AC JUMPI PUSH1 0x20 CALLDATASIZE PUSH1 0x3 NOT ADD SLT PUSH2 0x1AC JUMPI PUSH1 0x20 PUSH2 0x477 PUSH2 0xF33 PUSH2 0x1049 JUMP JUMPDEST PUSH2 0x10C7 JUMP JUMPDEST CALLVALUE PUSH2 0x1AC JUMPI PUSH1 0x20 CALLDATASIZE PUSH1 0x3 NOT ADD SLT PUSH2 0x1AC JUMPI PUSH1 0x4 CALLDATALOAD PUSH2 0xF54 PUSH2 0x139C JUMP JUMPDEST SELFBALANCE DUP2 GT PUSH2 0xF83 JUMPI PUSH0 DUP1 DUP1 DUP1 SWAP4 PUSH1 0x1 DUP1 PUSH1 0xA0 SHL SUB DUP3 SLOAD AND DUP3 DUP3 ISZERO PUSH2 0xF7A JUMPI JUMPDEST CALL ISZERO PUSH2 0x95D JUMPI STOP JUMPDEST POP PUSH2 0x8FC PUSH2 0xF72 JUMP JUMPDEST PUSH1 0x40 MLOAD PUSH3 0x461BCD PUSH1 0xE5 SHL DUP2 MSTORE PUSH1 0x20 PUSH1 0x4 DUP3 ADD MSTORE PUSH1 0x14 PUSH1 0x24 DUP3 ADD MSTORE PUSH20 0x496E73756666696369656E742062616C616E6365 PUSH1 0x60 SHL PUSH1 0x44 DUP3 ADD MSTORE PUSH1 0x64 SWAP1 REVERT JUMPDEST CALLVALUE PUSH2 0x1AC JUMPI PUSH1 0x20 CALLDATASIZE PUSH1 0x3 NOT ADD SLT PUSH2 0x1AC JUMPI PUSH1 0x4 CALLDATALOAD PUSH4 0xFFFFFFFF PUSH1 0xE0 SHL DUP2 AND DUP1 SWAP2 SUB PUSH2 0x1AC JUMPI PUSH1 0x20 SWAP1 PUSH4 0x7965DB0B PUSH1 0xE0 SHL DUP2 EQ SWAP1 DUP2 ISZERO PUSH2 0x1004 JUMPI JUMPDEST POP PUSH1 0x40 MLOAD SWAP1 ISZERO ISZERO DUP2 MSTORE RETURN JUMPDEST PUSH4 0x1FFC9A7 PUSH1 0xE0 SHL EQ SWAP1 POP DUP3 PUSH2 0xFF9 JUMP JUMPDEST CALLVALUE PUSH2 0x1AC JUMPI PUSH1 0x20 CALLDATASIZE PUSH1 0x3 NOT ADD SLT PUSH2 0x1AC JUMPI PUSH1 0x20 SWAP1 PUSH1 0x1 PUSH1 0x1 PUSH1 0xA0 SHL SUB PUSH2 0x1039 PUSH2 0x1049 JUMP JUMPDEST AND PUSH0 MSTORE PUSH1 0x6 DUP3 MSTORE PUSH1 0x40 PUSH0 KECCAK256 SLOAD DUP2 MSTORE RETURN JUMPDEST PUSH1 0x4 CALLDATALOAD SWAP1 PUSH1 0x1 PUSH1 0x1 PUSH1 0xA0 SHL SUB DUP3 AND DUP3 SUB PUSH2 0x1AC JUMPI JUMP JUMPDEST PUSH1 0x24 CALLDATALOAD SWAP1 PUSH1 0x1 PUSH1 0x1 PUSH1 0xA0 SHL SUB DUP3 AND DUP3 SUB PUSH2 0x1AC JUMPI JUMP JUMPDEST SWAP1 PUSH1 0x1F DUP1 NOT SWAP2 ADD AND DUP2 ADD SWAP1 DUP2 LT PUSH8 0xFFFFFFFFFFFFFFFF DUP3 GT OR PUSH2 0x52B JUMPI PUSH1 0x40 MSTORE JUMP JUMPDEST SWAP1 DUP2 PUSH1 0x20 SWAP2 SUB SLT PUSH2 0x1AC JUMPI MLOAD PUSH1 0x4 DUP2 LT ISZERO PUSH2 0x1AC JUMPI SWAP1 JUMP JUMPDEST SWAP1 DUP2 PUSH1 0x20 SWAP2 SUB SLT PUSH2 0x1AC JUMPI MLOAD PUSH1 0x5 DUP2 LT ISZERO PUSH2 0x1AC JUMPI SWAP1 JUMP JUMPDEST PUSH1 0x2 SLOAD PUSH1 0x40 MLOAD PUSH4 0x356EA8EB PUSH1 0xE2 SHL DUP2 MSTORE PUSH1 0x1 PUSH1 0x1 PUSH1 0xA0 SHL SUB DUP4 DUP2 AND PUSH1 0x4 DUP4 ADD DUP2 SWAP1 MSTORE SWAP3 AND SWAP3 PUSH1 0x20 DUP3 PUSH1 0x24 DUP2 DUP8 GAS STATICCALL SWAP2 DUP3 ISZERO PUSH2 0x95D JUMPI PUSH0 SWAP3 PUSH2 0x126D JUMPI JUMPDEST POP PUSH1 0x4 DUP3 LT ISZERO PUSH2 0x91A JUMPI DUP2 ISZERO PUSH2 0x125A JUMPI PUSH1 0x1 DUP3 EQ PUSH2 0x124D JUMPI POP PUSH1 0x2 EQ PUSH2 0x1189 JUMPI PUSH1 0x20 SWAP1 PUSH1 0x24 PUSH1 0x40 MLOAD DUP1 SWAP5 DUP2 SWAP4 PUSH4 0xD8C6B3D9 PUSH1 0xE0 SHL DUP4 MSTORE PUSH1 0x4 DUP4 ADD MSTORE GAS STATICCALL DUP1 ISZERO PUSH2 0x95D JUMPI PUSH2 0x1157 SWAP2 PUSH0 SWAP2 PUSH2 0x115A JUMPI JUMPDEST POP PUSH2 0x1340 JUMP JUMPDEST SWAP1 JUMP JUMPDEST PUSH2 0x117C SWAP2 POP PUSH1 0x20 RETURNDATASIZE PUSH1 0x20 GT PUSH2 0x1182 JUMPI JUMPDEST PUSH2 0x1174 DUP2 DUP4 PUSH2 0x1075 JUMP JUMPDEST DUP2 ADD SWAP1 PUSH2 0x10AF JUMP JUMPDEST PUSH0 PUSH2 0x1151 JUMP JUMPDEST POP RETURNDATASIZE PUSH2 0x116A JUMP JUMPDEST PUSH1 0x40 MLOAD PUSH4 0xD8C6B3D9 PUSH1 0xE0 SHL DUP2 MSTORE PUSH1 0x4 DUP2 ADD DUP3 SWAP1 MSTORE SWAP2 SWAP1 PUSH1 0x20 DUP4 PUSH1 0x24 DUP2 DUP6 GAS STATICCALL SWAP3 DUP4 ISZERO PUSH2 0x95D JUMPI PUSH0 SWAP4 PUSH2 0x122B JUMPI JUMPDEST POP PUSH1 0x20 SWAP1 PUSH1 0x24 PUSH1 0x40 MLOAD DUP1 SWAP5 DUP2 SWAP4 PUSH4 0x289C7535 PUSH1 0xE1 SHL DUP4 MSTORE PUSH1 0x4 DUP4 ADD MSTORE GAS STATICCALL SWAP1 DUP2 ISZERO PUSH2 0x95D JUMPI PUSH0 SWAP2 PUSH2 0x11EC JUMPI JUMPDEST POP PUSH2 0x1157 SWAP2 PUSH2 0x12DF JUMP JUMPDEST SWAP1 POP PUSH1 0x20 DUP2 RETURNDATASIZE PUSH1 0x20 GT PUSH2 0x1223 JUMPI JUMPDEST DUP2 PUSH2 0x1207 PUSH1 0x20 SWAP4 DUP4 PUSH2 0x1075 JUMP JUMPDEST DUP2 ADD SUB SLT PUSH2 0x1AC JUMPI MLOAD SWAP1 PUSH1 0x5 DUP3 LT ISZERO PUSH2 0x1AC JUMPI SWAP1 PUSH2 0x1157 PUSH2 0x11E2 JUMP JUMPDEST RETURNDATASIZE SWAP2 POP PUSH2 0x11FA JUMP JUMPDEST PUSH1 0x20 SWAP2 SWAP4 POP PUSH2 0x1246 SWAP1 DUP3 RETURNDATASIZE DUP5 GT PUSH2 0x1182 JUMPI PUSH2 0x1174 DUP2 DUP4 PUSH2 0x1075 JUMP JUMPDEST SWAP3 SWAP1 PUSH2 0x11B6 JUMP JUMPDEST SWAP2 POP POP PUSH2 0x1157 SWAP2 POP PUSH2 0x136B JUMP JUMPDEST POP POP SWAP1 POP PUSH0 MSTORE PUSH1 0x6 PUSH1 0x20 MSTORE PUSH1 0x40 PUSH0 KECCAK256 SLOAD SWAP1 JUMP JUMPDEST PUSH2 0x1287 SWAP2 SWAP3 POP PUSH1 0x20 RETURNDATASIZE PUSH1 0x20 GT PUSH2 0x956 JUMPI PUSH2 0x948 DUP2 DUP4 PUSH2 0x1075 JUMP JUMPDEST SWAP1 PUSH0 PUSH2 0x1103 JUMP JUMPDEST SWAP1 DUP2 PUSH1 0x20 SWAP2 SUB SLT PUSH2 0x1AC JUMPI MLOAD DUP1 ISZERO ISZERO DUP2 SUB PUSH2 0x1AC JUMPI SWAP1 JUMP JUMPDEST ISZERO PUSH2 0x12AD JUMPI JUMP JUMPDEST PUSH1 0x40 MLOAD PUSH3 0x461BCD PUSH1 0xE5 SHL DUP2 MSTORE PUSH1 0x20 PUSH1 0x4 DUP3 ADD MSTORE PUSH1 0xA PUSH1 0x24 DUP3 ADD MSTORE PUSH10 0x4E6F2074617820647565 PUSH1 0xB0 SHL PUSH1 0x44 DUP3 ADD MSTORE PUSH1 0x64 SWAP1 REVERT JUMPDEST SWAP1 PUSH2 0x12F4 SWAP1 PUSH2 0x12EE DUP2 DUP5 PUSH2 0x155B JUMP JUMPDEST SWAP3 PUSH2 0x1679 JUMP JUMPDEST SWAP1 DUP2 DUP2 MUL SWAP2 DUP2 DUP4 DIV EQ SWAP1 ISZERO OR ISZERO PUSH2 0x132C JUMPI PUSH2 0x2710 SWAP1 DIV PUSH7 0x38D7EA4C68000 DUP2 MUL SWAP1 DUP1 DUP3 DIV PUSH7 0x38D7EA4C68000 EQ SWAP1 ISZERO OR ISZERO PUSH2 0x132C JUMPI SWAP1 JUMP JUMPDEST PUSH4 0x4E487B71 PUSH1 0xE0 SHL PUSH0 MSTORE PUSH1 0x11 PUSH1 0x4 MSTORE PUSH1 0x24 PUSH0 REVERT JUMPDEST PUSH2 0x1349 SWAP1 PUSH2 0x1776 JUMP JUMPDEST PUSH7 0x38D7EA4C68000 DUP2 MUL SWAP1 DUP1 DUP3 DIV PUSH7 0x38D7EA4C68000 EQ SWAP1 ISZERO OR ISZERO PUSH2 0x132C JUMPI SWAP1 JUMP JUMPDEST PUSH1 0x1 DUP1 PUSH1 0xA0 SHL SUB AND PUSH0 MSTORE PUSH1 0x5 PUSH1 0x20 MSTORE PUSH1 0x40 PUSH0 KECCAK256 SLOAD PUSH2 0xBB8 DUP2 MUL SWAP1 DUP1 DUP3 DIV PUSH2 0xBB8 EQ SWAP1 ISZERO OR ISZERO PUSH2 0x132C JUMPI PUSH2 0x2710 SWAP1 DIV SWAP1 JUMP JUMPDEST PUSH0 SLOAD PUSH1 0x1 PUSH1 0x1 PUSH1 0xA0 SHL SUB AND CALLER SUB PUSH2 0x13AF JUMPI JUMP JUMPDEST PUSH4 0x118CDAA7 PUSH1 0xE0 SHL PUSH0 MSTORE CALLER PUSH1 0x4 MSTORE PUSH1 0x24 PUSH0 REVERT JUMPDEST PUSH1 0x2 PUSH0 MLOAD PUSH1 0x20 PUSH2 0x17D8 PUSH0 CODECOPY PUSH0 MLOAD SWAP1 PUSH0 MSTORE SLOAD EQ PUSH2 0x13EB JUMPI PUSH1 0x2 PUSH0 MLOAD PUSH1 0x20 PUSH2 0x17D8 PUSH0 CODECOPY PUSH0 MLOAD SWAP1 PUSH0 MSTORE SSTORE JUMP JUMPDEST PUSH4 0x3EE5AEB5 PUSH1 0xE0 SHL PUSH0 MSTORE PUSH1 0x4 PUSH0 REVERT JUMPDEST SWAP2 SWAP1 DUP3 ADD DUP1 SWAP3 GT PUSH2 0x132C JUMPI JUMP JUMPDEST PUSH0 DUP2 DUP2 MSTORE PUSH1 0x1 PUSH1 0x20 SWAP1 DUP2 MSTORE PUSH1 0x40 DUP1 DUP4 KECCAK256 CALLER DUP5 MSTORE SWAP1 SWAP2 MSTORE SWAP1 KECCAK256 SLOAD PUSH1 0xFF AND ISZERO PUSH2 0x142B JUMPI POP JUMP JUMPDEST PUSH4 0xE2517D3F PUSH1 0xE0 SHL PUSH0 MSTORE CALLER PUSH1 0x4 MSTORE PUSH1 0x24 MSTORE PUSH1 0x44 PUSH0 REVERT JUMPDEST PUSH0 DUP2 DUP2 MSTORE PUSH1 0x1 PUSH1 0x20 SWAP1 DUP2 MSTORE PUSH1 0x40 DUP1 DUP4 KECCAK256 PUSH1 0x1 PUSH1 0x1 PUSH1 0xA0 SHL SUB DUP7 AND DUP5 MSTORE SWAP1 SWAP2 MSTORE SWAP1 KECCAK256 SLOAD PUSH1 0xFF AND PUSH2 0x14C7 JUMPI PUSH0 DUP2 DUP2 MSTORE PUSH1 0x1 PUSH1 0x20 DUP2 DUP2 MSTORE PUSH1 0x40 DUP1 DUP5 KECCAK256 PUSH1 0x1 PUSH1 0x1 PUSH1 0xA0 SHL SUB SWAP7 SWAP1 SWAP7 AND DUP1 DUP6 MSTORE SWAP6 SWAP1 SWAP2 MSTORE DUP3 KECCAK256 DUP1 SLOAD PUSH1 0xFF NOT AND SWAP1 SWAP2 OR SWAP1 SSTORE CALLER SWAP3 SWAP2 SWAP1 PUSH32 0x2F8788117E7EFF1D82E926EC794901D17C78024A50270940304540A733656F0D SWAP1 DUP1 LOG4 PUSH1 0x1 SWAP1 JUMP JUMPDEST POP POP PUSH0 SWAP1 JUMP JUMPDEST PUSH0 DUP2 DUP2 MSTORE PUSH1 0x1 PUSH1 0x20 SWAP1 DUP2 MSTORE PUSH1 0x40 DUP1 DUP4 KECCAK256 PUSH1 0x1 PUSH1 0x1 PUSH1 0xA0 SHL SUB DUP7 AND DUP5 MSTORE SWAP1 SWAP2 MSTORE SWAP1 KECCAK256 SLOAD PUSH1 0xFF AND ISZERO PUSH2 0x14C7 JUMPI PUSH0 DUP2 DUP2 MSTORE PUSH1 0x1 PUSH1 0x20 SWAP1 DUP2 MSTORE PUSH1 0x40 DUP1 DUP4 KECCAK256 PUSH1 0x1 PUSH1 0x1 PUSH1 0xA0 SHL SUB SWAP6 SWAP1 SWAP6 AND DUP1 DUP5 MSTORE SWAP5 SWAP1 SWAP2 MSTORE DUP2 KECCAK256 DUP1 SLOAD PUSH1 0xFF NOT AND SWAP1 SSTORE CALLER SWAP3 SWAP2 SWAP1 PUSH32 0xF6391F5C32D9C69D2A47EA670B442974B53935D1EDC7FD64EB21E047A839171B SWAP1 DUP1 LOG4 PUSH1 0x1 SWAP1 JUMP JUMPDEST PUSH1 0x5 GT ISZERO PUSH2 0x91A JUMPI JUMP JUMPDEST PUSH2 0x1564 DUP2 PUSH2 0x1551 JUMP JUMPDEST DUP1 PUSH2 0x161C JUMPI POP PUSH3 0x1E8480 SWAP1 JUMPDEST PUSH2 0x1579 DUP2 PUSH2 0x1551 JUMP JUMPDEST DUP1 ISZERO PUSH2 0x1605 JUMPI PUSH2 0x1588 DUP2 PUSH2 0x1551 JUMP JUMPDEST PUSH1 0x1 DUP2 EQ PUSH2 0x15EA JUMPI PUSH2 0x1599 DUP2 PUSH2 0x1551 JUMP JUMPDEST PUSH1 0x2 DUP2 EQ PUSH2 0x15CF JUMPI PUSH1 0x3 SWAP1 PUSH2 0x15AD DUP2 PUSH2 0x1551 JUMP JUMPDEST EQ PUSH2 0x15B5 JUMPI SWAP1 JUMP JUMPDEST PUSH1 0xB DUP2 MUL SWAP1 DUP1 DUP3 DIV PUSH1 0xB EQ SWAP1 ISZERO OR ISZERO PUSH2 0x132C JUMPI PUSH1 0xA SWAP1 DIV SWAP1 JUMP JUMPDEST POP PUSH1 0xC DUP2 MUL SWAP1 DUP1 DUP3 DIV PUSH1 0xC EQ SWAP1 ISZERO OR ISZERO PUSH2 0x132C JUMPI PUSH1 0xA SWAP1 DIV SWAP1 JUMP JUMPDEST POP PUSH1 0xF DUP2 MUL SWAP1 DUP1 DUP3 DIV PUSH1 0xF EQ SWAP1 ISZERO OR ISZERO PUSH2 0x132C JUMPI PUSH1 0xA SWAP1 DIV SWAP1 JUMP JUMPDEST POP DUP1 PUSH1 0x1 SHL SWAP1 DUP1 DUP3 DIV PUSH1 0x2 EQ SWAP1 ISZERO OR ISZERO PUSH2 0x132C JUMPI SWAP1 JUMP JUMPDEST PUSH2 0x1625 DUP2 PUSH2 0x1551 JUMP JUMPDEST PUSH1 0x1 DUP2 SUB PUSH2 0x1638 JUMPI POP PUSH3 0x3567E0 SWAP1 PUSH2 0x1570 JUMP JUMPDEST PUSH2 0x1641 DUP2 PUSH2 0x1551 JUMP JUMPDEST PUSH1 0x2 DUP2 SUB PUSH2 0x1654 JUMPI POP PUSH3 0x44AA20 SWAP1 PUSH2 0x1570 JUMP JUMPDEST PUSH1 0x3 SWAP1 PUSH2 0x1660 DUP2 PUSH2 0x1551 JUMP JUMPDEST SUB PUSH2 0x166F JUMPI PUSH3 0x16E360 SWAP1 PUSH2 0x1570 JUMP JUMPDEST PUSH3 0x2625A0 SWAP1 PUSH2 0x1570 JUMP JUMPDEST SWAP1 PUSH2 0x16A8 SWAP2 PUSH2 0x1687 DUP2 PUSH2 0x1551 JUMP JUMPDEST DUP1 PUSH2 0x171D JUMPI POP PUSH1 0xC8 SWAP1 JUMPDEST PUSH2 0x169A DUP2 PUSH2 0x1551 JUMP JUMPDEST DUP1 PUSH2 0x16C9 JUMPI POP PUSH1 0xFA SWAP1 PUSH2 0x13FA JUMP JUMPDEST PUSH1 0xC8 DUP2 LT PUSH2 0x16C3 JUMPI PUSH2 0x384 DUP2 GT PUSH2 0x16BC JUMPI SWAP1 JUMP JUMPDEST POP PUSH2 0x384 SWAP1 JUMP JUMPDEST POP PUSH1 0xC8 SWAP1 JUMP JUMPDEST PUSH2 0x16D2 DUP2 PUSH2 0x1551 JUMP JUMPDEST PUSH1 0x1 DUP2 SUB PUSH2 0x16E3 JUMPI POP PUSH1 0x96 SWAP1 PUSH2 0x13FA JUMP JUMPDEST PUSH2 0x16EC DUP2 PUSH2 0x1551 JUMP JUMPDEST PUSH1 0x2 DUP2 SUB PUSH2 0x16FD JUMPI POP PUSH1 0x64 SWAP1 PUSH2 0x13FA JUMP JUMPDEST PUSH1 0x3 SWAP1 PUSH2 0x1709 DUP2 PUSH2 0x1551 JUMP JUMPDEST SUB PUSH2 0x1716 JUMPI PUSH1 0x32 SWAP1 PUSH2 0x13FA JUMP JUMPDEST PUSH0 SWAP1 PUSH2 0x13FA JUMP JUMPDEST PUSH2 0x1726 DUP2 PUSH2 0x1551 JUMP JUMPDEST PUSH1 0x1 DUP2 SUB PUSH2 0x1738 JUMPI POP PUSH2 0x1F4 SWAP1 PUSH2 0x1691 JUMP JUMPDEST PUSH2 0x1741 DUP2 PUSH2 0x1551 JUMP JUMPDEST PUSH1 0x2 DUP2 SUB PUSH2 0x1753 JUMPI POP PUSH2 0x28A SWAP1 PUSH2 0x1691 JUMP JUMPDEST PUSH1 0x3 SWAP1 PUSH2 0x175F DUP2 PUSH2 0x1551 JUMP JUMPDEST SUB PUSH2 0x176D JUMPI PUSH2 0x15E SWAP1 PUSH2 0x1691 JUMP JUMPDEST PUSH2 0x1C2 SWAP1 PUSH2 0x1691 JUMP JUMPDEST PUSH2 0x177F DUP2 PUSH2 0x1551 JUMP JUMPDEST DUP1 ISZERO PUSH2 0x17D1 JUMPI PUSH2 0x178E DUP2 PUSH2 0x1551 JUMP JUMPDEST PUSH1 0x1 DUP2 EQ PUSH2 0x17CA JUMPI PUSH2 0x179F DUP2 PUSH2 0x1551 JUMP JUMPDEST PUSH1 0x2 DUP2 EQ PUSH2 0x17C3 JUMPI PUSH1 0x3 SWAP1 PUSH2 0x17B3 DUP2 PUSH2 0x1551 JUMP JUMPDEST EQ PUSH2 0x17BE JUMPI PUSH2 0x140 SWAP1 JUMP JUMPDEST PUSH1 0xF0 SWAP1 JUMP JUMPDEST POP PUSH2 0x1A4 SWAP1 JUMP JUMPDEST POP PUSH2 0x118 SWAP1 JUMP JUMPDEST POP PUSH1 0xDC SWAP1 JUMP INVALID SWAP12 PUSH24 0x9B17422D0DF92223018B32B4D1FA46E071723D6817E2486D STOP EXTCODESIZE 0xEC 0xC5 PUSH0 STOP LOG2 PUSH5 0x6970667358 0x22 SLT KECCAK256 LOG1 SWAP11 DUP2 0x4E DUP9 EXTCODECOPY 0xBB SAR 0xD9 0xE3 PUSH21 0x2BF1B7B1055DC536F89939001553661A05C3EE9697 PUSH5 0x736F6C6343 STOP ADDMOD SHR STOP CALLER 0x2F DUP8 DUP9 GT PUSH31 0x7EFF1D82E926EC794901D17C78024A50270940304540A733656F0DA6EEF7E3 GAS 0xBE PUSH17 0x26729641147F7915573C7E97B47EFA546F PUSH0 PUSH15 0x3230263BCB49C24B2B6A100B77449E 0xEE 0xD4 PUSH4 0xF23B50CA PUSH1 0xFB PUSH13 0x7685397BCFCEC89DC3798F76BD 0xE0 0xDF DUP3 REVERT 0xAE 0xF9 LOG0 0x2B PUSH23 0x124741FFE2D6678E9AB779C07569704D6C9F7FEF3EF85E 0xF7 0xB3 0xE SWAP4 SWAP2 JUMP EXTCODESIZE DUP16 PUSH6 0x5FA894C906BC PUSH4 0x4DDD8694 0x2C 0x22 0xEC PUSH28 0x124A942F29AB1E4A0000000000000000000000000000000000000000 "},"methodIdentifiers":{"BANK_ORACLE_ROLE()":"63fe1e08","CATEGORY_A_RATE_BPS()":"e1a84a30","DEFAULT_ADMIN_ROLE()":"a217fddf","ETB_TO_WEI()":"c2e21314","GOVERNMENT_ORACLE_ROLE()":"3321a654","TAX_COLLECTOR_ROLE()":"f672d4c0","calculateTaxForCategoryA(address)":"bb5c9b11","calculateTaxForCategoryB(uint8,uint8)":"72f348f4","calculateTaxForGovernment(address)":"f19ceb65","calculateTaxForMicro(uint8)":"84c646c3","categoryADepositsAnnualWei(address)":"e4c08517","employerWithhold(address)":"57084650","getRoleAdmin(bytes32)":"248a9ca3","getTaxRecord(address)":"9af82ce9","governmentTaxAnnualWei(address)":"011f6626","grantRole(bytes32,address)":"2f2ff15d","hasRole(bytes32,address)":"91d14854","identityContract()":"67031bae","owner()":"8da5cb5b","payTax()":"2912ba5f","renounceOwnership()":"715018a6","renounceRole(bytes32,address)":"36568abe","revokeRole(bytes32,address)":"d547741f","supportsInterface(bytes4)":"01ffc9a7","taxDueNow(address)":"1a26fa07","totalTaxCollected()":"d8454a82","transferOwnership(address)":"f2fde38b","updateDepositsFromBank(address,uint256)":"dbb68800","updateGovernmentWithholding(address,uint256)":"5155c1bf","withdrawRevenue(uint256)":"0ceff204"}}}}}