{
  "_format": "hh-sol-artifact-1",
  "contractName": "StaticTaxHandler",
  "sourceName": "contracts/StaticTaxHandler.sol",
  "abi": [
    {
      "inputs": [
        {
          "internalType": "address",
          "name": "_identityContract",
          "type": "address"
        }
      ],
      "stateMutability": "nonpayable",
      "type": "constructor"
    },
    {
      "inputs": [
        {
          "internalType": "address",
          "name": "owner",
          "type": "address"
        }
      ],
      "name": "OwnableInvalidOwner",
      "type": "error"
    },
    {
      "inputs": [
        {
          "internalType": "address",
          "name": "account",
          "type": "address"
        }
      ],
      "name": "OwnableUnauthorizedAccount",
      "type": "error"
    },
    {
      "anonymous": false,
      "inputs": [
        {
          "indexed": true,
          "internalType": "address",
          "name": "employer",
          "type": "address"
        },
        {
          "indexed": true,
          "internalType": "address",
          "name": "employee",
          "type": "address"
        },
        {
          "indexed": false,
          "internalType": "uint256",
          "name": "amount",
          "type": "uint256"
        }
      ],
      "name": "EmployerWithholding",
      "type": "event"
    },
    {
      "anonymous": false,
      "inputs": [
        {
          "indexed": true,
          "internalType": "address",
          "name": "previousOwner",
          "type": "address"
        },
        {
          "indexed": true,
          "internalType": "address",
          "name": "newOwner",
          "type": "address"
        }
      ],
      "name": "OwnershipTransferred",
      "type": "event"
    },
    {
      "anonymous": false,
      "inputs": [
        {
          "indexed": false,
          "internalType": "uint256",
          "name": "index",
          "type": "uint256"
        },
        {
          "indexed": false,
          "internalType": "uint256",
          "name": "minIncome",
          "type": "uint256"
        },
        {
          "indexed": false,
          "internalType": "uint256",
          "name": "maxIncome",
          "type": "uint256"
        },
        {
          "indexed": false,
          "internalType": "uint256",
          "name": "rate",
          "type": "uint256"
        }
      ],
      "name": "TaxBracketUpdated",
      "type": "event"
    },
    {
      "anonymous": false,
      "inputs": [
        {
          "indexed": true,
          "internalType": "address",
          "name": "citizenAddress",
          "type": "address"
        },
        {
          "indexed": false,
          "internalType": "uint256",
          "name": "amount",
          "type": "uint256"
        },
        {
          "indexed": false,
          "internalType": "uint256",
          "name": "income",
          "type": "uint256"
        }
      ],
      "name": "TaxPaid",
      "type": "event"
    },
    {
      "inputs": [
        {
          "internalType": "uint256",
          "name": "_min",
          "type": "uint256"
        },
        {
          "internalType": "uint256",
          "name": "_max",
          "type": "uint256"
        },
        {
          "internalType": "uint256",
          "name": "_rate",
          "type": "uint256"
        }
      ],
      "name": "addTaxBracket",
      "outputs": [],
      "stateMutability": "nonpayable",
      "type": "function"
    },
    {
      "inputs": [
        {
          "internalType": "uint256",
          "name": "_income",
          "type": "uint256"
        }
      ],
      "name": "calculateTax",
      "outputs": [
        {
          "internalType": "uint256",
          "name": "",
          "type": "uint256"
        }
      ],
      "stateMutability": "view",
      "type": "function"
    },
    {
      "inputs": [
        {
          "internalType": "address",
          "name": "_employee",
          "type": "address"
        },
        {
          "internalType": "uint256",
          "name": "_salary",
          "type": "uint256"
        }
      ],
      "name": "employerWithhold",
      "outputs": [],
      "stateMutability": "payable",
      "type": "function"
    },
    {
      "inputs": [],
      "name": "identityContract",
      "outputs": [
        {
          "internalType": "contract NationalIdentity",
          "name": "",
          "type": "address"
        }
      ],
      "stateMutability": "view",
      "type": "function"
    },
    {
      "inputs": [],
      "name": "owner",
      "outputs": [
        {
          "internalType": "address",
          "name": "",
          "type": "address"
        }
      ],
      "stateMutability": "view",
      "type": "function"
    },
    {
      "inputs": [
        {
          "internalType": "uint256",
          "name": "_income",
          "type": "uint256"
        }
      ],
      "name": "payTax",
      "outputs": [],
      "stateMutability": "payable",
      "type": "function"
    },
    {
      "inputs": [],
      "name": "renounceOwnership",
      "outputs": [],
      "stateMutability": "nonpayable",
      "type": "function"
    },
    {
      "inputs": [
        {
          "internalType": "uint256",
          "name": "",
          "type": "uint256"
        }
      ],
      "name": "taxBrackets",
      "outputs": [
        {
          "internalType": "uint256",
          "name": "minIncome",
          "type": "uint256"
        },
        {
          "internalType": "uint256",
          "name": "maxIncome",
          "type": "uint256"
        },
        {
          "internalType": "uint256",
          "name": "rate",
          "type": "uint256"
        }
      ],
      "stateMutability": "view",
      "type": "function"
    },
    {
      "inputs": [
        {
          "internalType": "address",
          "name": "",
          "type": "address"
        }
      ],
      "name": "taxRecords",
      "outputs": [
        {
          "internalType": "uint256",
          "name": "totalIncome",
          "type": "uint256"
        },
        {
          "internalType": "uint256",
          "name": "totalTaxPaid",
          "type": "uint256"
        },
        {
          "internalType": "uint256",
          "name": "lastFilingDate",
          "type": "uint256"
        },
        {
          "internalType": "bool",
          "name": "exists",
          "type": "bool"
        }
      ],
      "stateMutability": "view",
      "type": "function"
    },
    {
      "inputs": [],
      "name": "totalTaxCollected",
      "outputs": [
        {
          "internalType": "uint256",
          "name": "",
          "type": "uint256"
        }
      ],
      "stateMutability": "view",
      "type": "function"
    },
    {
      "inputs": [
        {
          "internalType": "address",
          "name": "newOwner",
          "type": "address"
        }
      ],
      "name": "transferOwnership",
      "outputs": [],
      "stateMutability": "nonpayable",
      "type": "function"
    },
    {
      "inputs": [
        {
          "internalType": "uint256",
          "name": "_index",
          "type": "uint256"
        },
        {
          "internalType": "uint256",
          "name": "_min",
          "type": "uint256"
        },
        {
          "internalType": "uint256",
          "name": "_max",
          "type": "uint256"
        },
        {
          "internalType": "uint256",
          "name": "_rate",
          "type": "uint256"
        }
      ],
      "name": "updateTaxBracket",
      "outputs": [],
      "stateMutability": "nonpayable",
      "type": "function"
    },
    {
      "inputs": [
        {
          "internalType": "uint256",
          "name": "_amount",
          "type": "uint256"
        }
      ],
      "name": "withdrawRevenue",
      "outputs": [],
      "stateMutability": "nonpayable",
      "type": "function"
    },
    {
      "stateMutability": "payable",
      "type": "receive"
    }
  ],
  "bytecode": "0x60806040523480156200001157600080fd5b5060405162001b9e38038062001b9e8339818101604052810190620000379190620002bd565b33600073ffffffffffffffffffffffffffffffffffffffff168173ffffffffffffffffffffffffffffffffffffffff1603620000ad5760006040517f1e4fbdf7000000000000000000000000000000000000000000000000000000008152600401620000a4919062000300565b60405180910390fd5b620000be816200018f60201b60201c565b5080600160006101000a81548173ffffffffffffffffffffffffffffffffffffffff021916908373ffffffffffffffffffffffffffffffffffffffff16021790555060026040518060600160405280600081526020017fffffffffffffffffffffffffffffffffffffffffffffffffffffffffffffffff815260200160c881525090806001815401808255809150506001900390600052602060002090600302016000909190919091506000820151816000015560208201518160010155604082015181600201555050506200031d565b60008060009054906101000a900473ffffffffffffffffffffffffffffffffffffffff169050816000806101000a81548173ffffffffffffffffffffffffffffffffffffffff021916908373ffffffffffffffffffffffffffffffffffffffff1602179055508173ffffffffffffffffffffffffffffffffffffffff168173ffffffffffffffffffffffffffffffffffffffff167f8be0079c531659141344cd1fd0a4f28419497f9722a3daafe3b4186f6b6457e060405160405180910390a35050565b600080fd5b600073ffffffffffffffffffffffffffffffffffffffff82169050919050565b6000620002858262000258565b9050919050565b620002978162000278565b8114620002a357600080fd5b50565b600081519050620002b7816200028c565b92915050565b600060208284031215620002d657620002d562000253565b5b6000620002e684828501620002a6565b91505092915050565b620002fa8162000278565b82525050565b6000602082019050620003176000830184620002ef565b92915050565b611871806200032d6000396000f3fe6080604052600436106100c65760003560e01c8063a05aaf501161007f578063d8454a8211610059578063d8454a8214610269578063e0a999be14610294578063f2fde38b146102bd578063fe49b783146102e6576100cd565b8063a05aaf50146101e5578063b04b12f414610201578063d3edc5f014610240576100cd565b806308b9aa59146100d25780630ceff20414610112578063483a93101461013b57806367031bae14610178578063715018a6146101a35780638da5cb5b146101ba576100cd565b366100cd57005b600080fd5b3480156100de57600080fd5b506100f960048036038101906100f49190610f7d565b610302565b6040516101099493929190610fde565b60405180910390f35b34801561011e57600080fd5b506101396004803603810190610134919061104f565b61033f565b005b34801561014757600080fd5b50610162600480360381019061015d919061104f565b6103db565b60405161016f919061107c565b60405180910390f35b34801561018457600080fd5b5061018d610548565b60405161019a91906110f6565b60405180910390f35b3480156101af57600080fd5b506101b861056e565b005b3480156101c657600080fd5b506101cf610582565b6040516101dc9190611120565b60405180910390f35b6101ff60048036038101906101fa919061104f565b6105ab565b005b34801561020d57600080fd5b506102286004803603810190610223919061104f565b6107e3565b6040516102379392919061113b565b60405180910390f35b34801561024c57600080fd5b5061026760048036038101906102629190611172565b61081d565b005b34801561027557600080fd5b5061027e61090d565b60405161028b919061107c565b60405180910390f35b3480156102a057600080fd5b506102bb60048036038101906102b691906111d9565b610913565b005b3480156102c957600080fd5b506102e460048036038101906102df9190610f7d565b610986565b005b61030060048036038101906102fb919061122c565b610a0c565b005b60036020528060005260406000206000915090508060000154908060010154908060020154908060030160009054906101000a900460ff16905084565b610347610dc7565b4781111561038a576040517f08c379a0000000000000000000000000000000000000000000000000000000008152600401610381906112c9565b60405180910390fd5b610392610582565b73ffffffffffffffffffffffffffffffffffffffff166108fc829081150290604051600060405180830381858888f193505050501580156103d7573d6000803e3d6000fd5b5050565b6000806000905060005b60028054905081101561053e5760028181548110610406576104056112e9565b5b90600052602060002090600302016000015484111561053157600060028281548110610435576104346112e9565b5b9060005260206000209060030201600101548511156104ab5760028281548110610462576104616112e9565b5b90600052602060002090600302016000015460028381548110610488576104876112e9565b5b9060005260206000209060030201600101546104a49190611347565b90506104df565b600282815481106104bf576104be6112e9565b5b906000526020600020906003020160000154856104dc9190611347565b90505b66038d7ea4c68000600283815481106104fb576104fa6112e9565b5b90600052602060002090600302016002015482610518919061137b565b61052291906113ec565b8361052d919061141d565b9250505b80806001019150506103e5565b5080915050919050565b600160009054906101000a900473ffffffffffffffffffffffffffffffffffffffff1681565b610576610dc7565b6105806000610e4e565b565b60008060009054906101000a900473ffffffffffffffffffffffffffffffffffffffff16905090565b600160009054906101000a900473ffffffffffffffffffffffffffffffffffffffff1673ffffffffffffffffffffffffffffffffffffffff16639a3bdfb2336040518263ffffffff1660e01b81526004016106069190611120565b602060405180830381865afa158015610623573d6000803e3d6000fd5b505050506040513d601f19601f82011682018060405250810190610647919061147d565b610686576040517f08c379a000000000000000000000000000000000000000000000000000000000815260040161067d906114f6565b60405180910390fd5b6000610691826103db565b9050803410156106d6576040517f08c379a00000000000000000000000000000000000000000000000000000000081526004016106cd90611562565b60405180910390fd5b6000600360003373ffffffffffffffffffffffffffffffffffffffff1673ffffffffffffffffffffffffffffffffffffffff16815260200190815260200160002090508281600001600082825461072d919061141d565b9250508190555034816001016000828254610748919061141d565b9250508190555042816002018190555060018160030160006101000a81548160ff0219169083151502179055503460046000828254610787919061141d565b925050819055503373ffffffffffffffffffffffffffffffffffffffff167fb0a068ff9b2c6f72d5af72f3f94b79d10fe7995889678a9c0f6a33caa63cb4d234856040516107d6929190611582565b60405180910390a2505050565b600281815481106107f357600080fd5b90600052602060002090600302016000915090508060000154908060010154908060020154905083565b610825610dc7565b600280549050841061086c576040517f08c379a0000000000000000000000000000000000000000000000000000000008152600401610863906115f7565b60405180910390fd5b6040518060600160405280848152602001838152602001828152506002858154811061089b5761089a6112e9565b5b90600052602060002090600302016000820151816000015560208201518160010155604082015181600201559050507f8d331d807fe832d1d86b4d3ed225424a059e38465dbff03f85bc03c0c81004c0848484846040516108ff9493929190611617565b60405180910390a150505050565b60045481565b61091b610dc7565b600260405180606001604052808581526020018481526020018381525090806001815401808255809150506001900390600052602060002090600302016000909190919091506000820151816000015560208201518160010155604082015181600201555050505050565b61098e610dc7565b600073ffffffffffffffffffffffffffffffffffffffff168173ffffffffffffffffffffffffffffffffffffffff1603610a005760006040517f1e4fbdf70000000000000000000000000000000000000000000000000000000081526004016109f79190611120565b60405180910390fd5b610a0981610e4e565b50565b600160009054906101000a900473ffffffffffffffffffffffffffffffffffffffff1673ffffffffffffffffffffffffffffffffffffffff166391d14854600160009054906101000a900473ffffffffffffffffffffffffffffffffffffffff1673ffffffffffffffffffffffffffffffffffffffff16632426bb386040518163ffffffff1660e01b8152600401602060405180830381865afa158015610ab7573d6000803e3d6000fd5b505050506040513d601f19601f82011682018060405250810190610adb9190611692565b336040518363ffffffff1660e01b8152600401610af99291906116ce565b602060405180830381865afa158015610b16573d6000803e3d6000fd5b505050506040513d601f19601f82011682018060405250810190610b3a919061147d565b610b79576040517f08c379a0000000000000000000000000000000000000000000000000000000008152600401610b7090611743565b60405180910390fd5b600160009054906101000a900473ffffffffffffffffffffffffffffffffffffffff1673ffffffffffffffffffffffffffffffffffffffff16639a3bdfb2836040518263ffffffff1660e01b8152600401610bd49190611120565b602060405180830381865afa158015610bf1573d6000803e3d6000fd5b505050506040513d601f19601f82011682018060405250810190610c15919061147d565b610c54576040517f08c379a0000000000000000000000000000000000000000000000000000000008152600401610c4b906117af565b60405180910390fd5b6000610c5f826103db565b905080341015610ca4576040517f08c379a0000000000000000000000000000000000000000000000000000000008152600401610c9b9061181b565b60405180910390fd5b6000600360008573ffffffffffffffffffffffffffffffffffffffff1673ffffffffffffffffffffffffffffffffffffffff168152602001908152602001600020905082816000016000828254610cfb919061141d565b9250508190555034816001016000828254610d16919061141d565b9250508190555042816002018190555060018160030160006101000a81548160ff0219169083151502179055503460046000828254610d55919061141d565b925050819055508373ffffffffffffffffffffffffffffffffffffffff163373ffffffffffffffffffffffffffffffffffffffff167f146bb875d06ce7a6c4d799b0be9fd9e1e809b09305be4e4b5314265416a0f8eb34604051610db9919061107c565b60405180910390a350505050565b610dcf610f12565b73ffffffffffffffffffffffffffffffffffffffff16610ded610582565b73ffffffffffffffffffffffffffffffffffffffff1614610e4c57610e10610f12565b6040517f118cdaa7000000000000000000000000000000000000000000000000000000008152600401610e439190611120565b60405180910390fd5b565b60008060009054906101000a900473ffffffffffffffffffffffffffffffffffffffff169050816000806101000a81548173ffffffffffffffffffffffffffffffffffffffff021916908373ffffffffffffffffffffffffffffffffffffffff1602179055508173ffffffffffffffffffffffffffffffffffffffff168173ffffffffffffffffffffffffffffffffffffffff167f8be0079c531659141344cd1fd0a4f28419497f9722a3daafe3b4186f6b6457e060405160405180910390a35050565b600033905090565b600080fd5b600073ffffffffffffffffffffffffffffffffffffffff82169050919050565b6000610f4a82610f1f565b9050919050565b610f5a81610f3f565b8114610f6557600080fd5b50565b600081359050610f7781610f51565b92915050565b600060208284031215610f9357610f92610f1a565b5b6000610fa184828501610f68565b91505092915050565b6000819050919050565b610fbd81610faa565b82525050565b60008115159050919050565b610fd881610fc3565b82525050565b6000608082019050610ff36000830187610fb4565b6110006020830186610fb4565b61100d6040830185610fb4565b61101a6060830184610fcf565b95945050505050565b61102c81610faa565b811461103757600080fd5b50565b60008135905061104981611023565b92915050565b60006020828403121561106557611064610f1a565b5b60006110738482850161103a565b91505092915050565b60006020820190506110916000830184610fb4565b92915050565b6000819050919050565b60006110bc6110b76110b284610f1f565b611097565b610f1f565b9050919050565b60006110ce826110a1565b9050919050565b60006110e0826110c3565b9050919050565b6110f0816110d5565b82525050565b600060208201905061110b60008301846110e7565b92915050565b61111a81610f3f565b82525050565b60006020820190506111356000830184611111565b92915050565b60006060820190506111506000830186610fb4565b61115d6020830185610fb4565b61116a6040830184610fb4565b949350505050565b6000806000806080858703121561118c5761118b610f1a565b5b600061119a8782880161103a565b94505060206111ab8782880161103a565b93505060406111bc8782880161103a565b92505060606111cd8782880161103a565b91505092959194509250565b6000806000606084860312156111f2576111f1610f1a565b5b60006112008682870161103a565b93505060206112118682870161103a565b92505060406112228682870161103a565b9150509250925092565b6000806040838503121561124357611242610f1a565b5b600061125185828601610f68565b92505060206112628582860161103a565b9150509250929050565b600082825260208201905092915050565b7f496e73756666696369656e742062616c616e6365000000000000000000000000600082015250565b60006112b360148361126c565b91506112be8261127d565b602082019050919050565b600060208201905081810360008301526112e2816112a6565b9050919050565b7f4e487b7100000000000000000000000000000000000000000000000000000000600052603260045260246000fd5b7f4e487b7100000000000000000000000000000000000000000000000000000000600052601160045260246000fd5b600061135282610faa565b915061135d83610faa565b925082820390508181111561137557611374611318565b5b92915050565b600061138682610faa565b915061139183610faa565b925082820261139f81610faa565b915082820484148315176113b6576113b5611318565b5b5092915050565b7f4e487b7100000000000000000000000000000000000000000000000000000000600052601260045260246000fd5b60006113f782610faa565b915061140283610faa565b925082611412576114116113bd565b5b828204905092915050565b600061142882610faa565b915061143383610faa565b925082820190508082111561144b5761144a611318565b5b92915050565b61145a81610fc3565b811461146557600080fd5b50565b60008151905061147781611451565b92915050565b60006020828403121561149357611492610f1a565b5b60006114a184828501611468565b91505092915050565b7f436974697a656e206e6f74207665726966696564000000000000000000000000600082015250565b60006114e060148361126c565b91506114eb826114aa565b602082019050919050565b6000602082019050818103600083015261150f816114d3565b9050919050565b7f496e73756666696369656e7420746178207061796d656e740000000000000000600082015250565b600061154c60188361126c565b915061155782611516565b602082019050919050565b6000602082019050818103600083015261157b8161153f565b9050919050565b60006040820190506115976000830185610fb4565b6115a46020830184610fb4565b9392505050565b7f496e76616c696420627261636b657420696e6465780000000000000000000000600082015250565b60006115e160158361126c565b91506115ec826115ab565b602082019050919050565b60006020820190508181036000830152611610816115d4565b9050919050565b600060808201905061162c6000830187610fb4565b6116396020830186610fb4565b6116466040830185610fb4565b6116536060830184610fb4565b95945050505050565b6000819050919050565b61166f8161165c565b811461167a57600080fd5b50565b60008151905061168c81611666565b92915050565b6000602082840312156116a8576116a7610f1a565b5b60006116b68482850161167d565b91505092915050565b6116c88161165c565b82525050565b60006040820190506116e360008301856116bf565b6116f06020830184611111565b9392505050565b7f4e6f7420616e20617574686f72697a656420656d706c6f796572000000000000600082015250565b600061172d601a8361126c565b9150611738826116f7565b602082019050919050565b6000602082019050818103600083015261175c81611720565b9050919050565b7f456d706c6f796565206e6f742076657269666965640000000000000000000000600082015250565b600061179960158361126c565b91506117a482611763565b602082019050919050565b600060208201905081810360008301526117c88161178c565b9050919050565b7f496e73756666696369656e742077697468686f6c64696e6720616d6f756e7400600082015250565b6000611805601f8361126c565b9150611810826117cf565b602082019050919050565b60006020820190508181036000830152611834816117f8565b905091905056fea264697066735822122005c787d42bd03b8824435510667fad34c3d666c6fe72a93bdf017c3504ad4c4564736f6c63430008180033",
  "linkReferences": {},
  "deployedLinkReferences": {}
}