{
  "_format": "hh-sol-artifact-1",
  "contractName": "StaticTaxHandler",
  "sourceName": "contracts/StaticTaxHandler.sol",
  "abi": [
    {
      "inputs": [
        {
          "internalType": "address",
          "name": "_identityContract",
          "type": "address"
        }
      ],
      "stateMutability": "nonpayable",
      "type": "constructor"
    },
    {
      "inputs": [],
      "name": "AccessControlBadConfirmation",
      "type": "error"
    },
    {
      "inputs": [
        {
          "internalType": "address",
          "name": "account",
          "type": "address"
        },
        {
          "internalType": "bytes32",
          "name": "neededRole",
          "type": "bytes32"
        }
      ],
      "name": "AccessControlUnauthorizedAccount",
      "type": "error"
    },
    {
      "inputs": [
        {
          "internalType": "address",
          "name": "owner",
          "type": "address"
        }
      ],
      "name": "OwnableInvalidOwner",
      "type": "error"
    },
    {
      "inputs": [
        {
          "internalType": "address",
          "name": "account",
          "type": "address"
        }
      ],
      "name": "OwnableUnauthorizedAccount",
      "type": "error"
    },
    {
      "inputs": [],
      "name": "ReentrancyGuardReentrantCall",
      "type": "error"
    },
    {
      "anonymous": false,
      "inputs": [
        {
          "indexed": true,
          "internalType": "address",
          "name": "business",
          "type": "address"
        },
        {
          "indexed": false,
          "internalType": "uint256",
          "name": "annualDepositsWei",
          "type": "uint256"
        },
        {
          "indexed": false,
          "internalType": "uint256",
          "name": "timestamp",
          "type": "uint256"
        }
      ],
      "name": "DepositsUpdated",
      "type": "event"
    },
    {
      "anonymous": false,
      "inputs": [
        {
          "indexed": true,
          "internalType": "address",
          "name": "employer",
          "type": "address"
        },
        {
          "indexed": true,
          "internalType": "address",
          "name": "employee",
          "type": "address"
        },
        {
          "indexed": false,
          "internalType": "uint256",
          "name": "amountWei",
          "type": "uint256"
        },
        {
          "indexed": false,
          "internalType": "uint256",
          "name": "timestamp",
          "type": "uint256"
        }
      ],
      "name": "EmployerWithholding",
      "type": "event"
    },
    {
      "anonymous": false,
      "inputs": [
        {
          "indexed": true,
          "internalType": "address",
          "name": "employee",
          "type": "address"
        },
        {
          "indexed": false,
          "internalType": "uint256",
          "name": "annualTaxWei",
          "type": "uint256"
        },
        {
          "indexed": false,
          "internalType": "uint256",
          "name": "timestamp",
          "type": "uint256"
        }
      ],
      "name": "GovernmentWithholdingUpdated",
      "type": "event"
    },
    {
      "anonymous": false,
      "inputs": [
        {
          "indexed": true,
          "internalType": "address",
          "name": "previousOwner",
          "type": "address"
        },
        {
          "indexed": true,
          "internalType": "address",
          "name": "newOwner",
          "type": "address"
        }
      ],
      "name": "OwnershipTransferred",
      "type": "event"
    },
    {
      "anonymous": false,
      "inputs": [
        {
          "indexed": true,
          "internalType": "bytes32",
          "name": "role",
          "type": "bytes32"
        },
        {
          "indexed": true,
          "internalType": "bytes32",
          "name": "previousAdminRole",
          "type": "bytes32"
        },
        {
          "indexed": true,
          "internalType": "bytes32",
          "name": "newAdminRole",
          "type": "bytes32"
        }
      ],
      "name": "RoleAdminChanged",
      "type": "event"
    },
    {
      "anonymous": false,
      "inputs": [
        {
          "indexed": true,
          "internalType": "bytes32",
          "name": "role",
          "type": "bytes32"
        },
        {
          "indexed": true,
          "internalType": "address",
          "name": "account",
          "type": "address"
        },
        {
          "indexed": true,
          "internalType": "address",
          "name": "sender",
          "type": "address"
        }
      ],
      "name": "RoleGranted",
      "type": "event"
    },
    {
      "anonymous": false,
      "inputs": [
        {
          "indexed": true,
          "internalType": "bytes32",
          "name": "role",
          "type": "bytes32"
        },
        {
          "indexed": true,
          "internalType": "address",
          "name": "account",
          "type": "address"
        },
        {
          "indexed": true,
          "internalType": "address",
          "name": "sender",
          "type": "address"
        }
      ],
      "name": "RoleRevoked",
      "type": "event"
    },
    {
      "anonymous": false,
      "inputs": [
        {
          "indexed": true,
          "internalType": "address",
          "name": "citizen",
          "type": "address"
        },
        {
          "indexed": false,
          "internalType": "uint256",
          "name": "amountWei",
          "type": "uint256"
        },
        {
          "indexed": false,
          "internalType": "enum NationalIdentity.TaxCategory",
          "name": "category",
          "type": "uint8"
        },
        {
          "indexed": false,
          "internalType": "uint256",
          "name": "timestamp",
          "type": "uint256"
        }
      ],
      "name": "TaxPaid",
      "type": "event"
    },
    {
      "inputs": [],
      "name": "BANK_ORACLE_ROLE",
      "outputs": [
        {
          "internalType": "bytes32",
          "name": "",
          "type": "bytes32"
        }
      ],
      "stateMutability": "view",
      "type": "function"
    },
    {
      "inputs": [],
      "name": "CATEGORY_A_RATE_BPS",
      "outputs": [
        {
          "internalType": "uint256",
          "name": "",
          "type": "uint256"
        }
      ],
      "stateMutability": "view",
      "type": "function"
    },
    {
      "inputs": [],
      "name": "DEFAULT_ADMIN_ROLE",
      "outputs": [
        {
          "internalType": "bytes32",
          "name": "",
          "type": "bytes32"
        }
      ],
      "stateMutability": "view",
      "type": "function"
    },
    {
      "inputs": [],
      "name": "ETB_TO_WEI",
      "outputs": [
        {
          "internalType": "uint256",
          "name": "",
          "type": "uint256"
        }
      ],
      "stateMutability": "view",
      "type": "function"
    },
    {
      "inputs": [],
      "name": "GOVERNMENT_ORACLE_ROLE",
      "outputs": [
        {
          "internalType": "bytes32",
          "name": "",
          "type": "bytes32"
        }
      ],
      "stateMutability": "view",
      "type": "function"
    },
    {
      "inputs": [],
      "name": "TAX_COLLECTOR_ROLE",
      "outputs": [
        {
          "internalType": "bytes32",
          "name": "",
          "type": "bytes32"
        }
      ],
      "stateMutability": "view",
      "type": "function"
    },
    {
      "inputs": [
        {
          "internalType": "address",
          "name": "business",
          "type": "address"
        }
      ],
      "name": "calculateTaxForCategoryA",
      "outputs": [
        {
          "internalType": "uint256",
          "name": "",
          "type": "uint256"
        }
      ],
      "stateMutability": "view",
      "type": "function"
    },
    {
      "inputs": [
        {
          "internalType": "enum NationalIdentity.BusinessType",
          "name": "businessType",
          "type": "uint8"
        },
        {
          "internalType": "enum NationalIdentity.Location",
          "name": "area",
          "type": "uint8"
        }
      ],
      "name": "calculateTaxForCategoryB",
      "outputs": [
        {
          "internalType": "uint256",
          "name": "",
          "type": "uint256"
        }
      ],
      "stateMutability": "pure",
      "type": "function"
    },
    {
      "inputs": [
        {
          "internalType": "address",
          "name": "employee",
          "type": "address"
        }
      ],
      "name": "calculateTaxForGovernment",
      "outputs": [
        {
          "internalType": "uint256",
          "name": "",
          "type": "uint256"
        }
      ],
      "stateMutability": "view",
      "type": "function"
    },
    {
      "inputs": [
        {
          "internalType": "enum NationalIdentity.BusinessType",
          "name": "businessType",
          "type": "uint8"
        }
      ],
      "name": "calculateTaxForMicro",
      "outputs": [
        {
          "internalType": "uint256",
          "name": "",
          "type": "uint256"
        }
      ],
      "stateMutability": "pure",
      "type": "function"
    },
    {
      "inputs": [
        {
          "internalType": "address",
          "name": "",
          "type": "address"
        }
      ],
      "name": "categoryADepositsAnnualWei",
      "outputs": [
        {
          "internalType": "uint256",
          "name": "",
          "type": "uint256"
        }
      ],
      "stateMutability": "view",
      "type": "function"
    },
    {
      "inputs": [
        {
          "internalType": "address",
          "name": "employee",
          "type": "address"
        }
      ],
      "name": "employerWithhold",
      "outputs": [],
      "stateMutability": "payable",
      "type": "function"
    },
    {
      "inputs": [
        {
          "internalType": "bytes32",
          "name": "role",
          "type": "bytes32"
        }
      ],
      "name": "getRoleAdmin",
      "outputs": [
        {
          "internalType": "bytes32",
          "name": "",
          "type": "bytes32"
        }
      ],
      "stateMutability": "view",
      "type": "function"
    },
    {
      "inputs": [
        {
          "internalType": "address",
          "name": "citizen",
          "type": "address"
        }
      ],
      "name": "getTaxRecord",
      "outputs": [
        {
          "internalType": "bool",
          "name": "exists",
          "type": "bool"
        },
        {
          "internalType": "uint256",
          "name": "totalTaxPaid",
          "type": "uint256"
        },
        {
          "internalType": "uint256",
          "name": "lastPaymentTimestamp",
          "type": "uint256"
        }
      ],
      "stateMutability": "view",
      "type": "function"
    },
    {
      "inputs": [
        {
          "internalType": "address",
          "name": "",
          "type": "address"
        }
      ],
      "name": "governmentTaxAnnualWei",
      "outputs": [
        {
          "internalType": "uint256",
          "name": "",
          "type": "uint256"
        }
      ],
      "stateMutability": "view",
      "type": "function"
    },
    {
      "inputs": [
        {
          "internalType": "bytes32",
          "name": "role",
          "type": "bytes32"
        },
        {
          "internalType": "address",
          "name": "account",
          "type": "address"
        }
      ],
      "name": "grantRole",
      "outputs": [],
      "stateMutability": "nonpayable",
      "type": "function"
    },
    {
      "inputs": [
        {
          "internalType": "bytes32",
          "name": "role",
          "type": "bytes32"
        },
        {
          "internalType": "address",
          "name": "account",
          "type": "address"
        }
      ],
      "name": "hasRole",
      "outputs": [
        {
          "internalType": "bool",
          "name": "",
          "type": "bool"
        }
      ],
      "stateMutability": "view",
      "type": "function"
    },
    {
      "inputs": [],
      "name": "identityContract",
      "outputs": [
        {
          "internalType": "contract NationalIdentity",
          "name": "",
          "type": "address"
        }
      ],
      "stateMutability": "view",
      "type": "function"
    },
    {
      "inputs": [],
      "name": "owner",
      "outputs": [
        {
          "internalType": "address",
          "name": "",
          "type": "address"
        }
      ],
      "stateMutability": "view",
      "type": "function"
    },
    {
      "inputs": [],
      "name": "payTax",
      "outputs": [],
      "stateMutability": "payable",
      "type": "function"
    },
    {
      "inputs": [],
      "name": "renounceOwnership",
      "outputs": [],
      "stateMutability": "nonpayable",
      "type": "function"
    },
    {
      "inputs": [
        {
          "internalType": "bytes32",
          "name": "role",
          "type": "bytes32"
        },
        {
          "internalType": "address",
          "name": "callerConfirmation",
          "type": "address"
        }
      ],
      "name": "renounceRole",
      "outputs": [],
      "stateMutability": "nonpayable",
      "type": "function"
    },
    {
      "inputs": [
        {
          "internalType": "bytes32",
          "name": "role",
          "type": "bytes32"
        },
        {
          "internalType": "address",
          "name": "account",
          "type": "address"
        }
      ],
      "name": "revokeRole",
      "outputs": [],
      "stateMutability": "nonpayable",
      "type": "function"
    },
    {
      "inputs": [
        {
          "internalType": "bytes4",
          "name": "interfaceId",
          "type": "bytes4"
        }
      ],
      "name": "supportsInterface",
      "outputs": [
        {
          "internalType": "bool",
          "name": "",
          "type": "bool"
        }
      ],
      "stateMutability": "view",
      "type": "function"
    },
    {
      "inputs": [
        {
          "internalType": "address",
          "name": "citizen",
          "type": "address"
        }
      ],
      "name": "taxDueNow",
      "outputs": [
        {
          "internalType": "uint256",
          "name": "",
          "type": "uint256"
        }
      ],
      "stateMutability": "view",
      "type": "function"
    },
    {
      "inputs": [],
      "name": "totalTaxCollected",
      "outputs": [
        {
          "internalType": "uint256",
          "name": "",
          "type": "uint256"
        }
      ],
      "stateMutability": "view",
      "type": "function"
    },
    {
      "inputs": [
        {
          "internalType": "address",
          "name": "newOwner",
          "type": "address"
        }
      ],
      "name": "transferOwnership",
      "outputs": [],
      "stateMutability": "nonpayable",
      "type": "function"
    },
    {
      "inputs": [
        {
          "internalType": "address",
          "name": "business",
          "type": "address"
        },
        {
          "internalType": "uint256",
          "name": "annualDepositsWei",
          "type": "uint256"
        }
      ],
      "name": "updateDepositsFromBank",
      "outputs": [],
      "stateMutability": "nonpayable",
      "type": "function"
    },
    {
      "inputs": [
        {
          "internalType": "address",
          "name": "employee",
          "type": "address"
        },
        {
          "internalType": "uint256",
          "name": "annualTaxWei",
          "type": "uint256"
        }
      ],
      "name": "updateGovernmentWithholding",
      "outputs": [],
      "stateMutability": "nonpayable",
      "type": "function"
    },
    {
      "inputs": [
        {
          "internalType": "uint256",
          "name": "amountWei",
          "type": "uint256"
        }
      ],
      "name": "withdrawRevenue",
      "outputs": [],
      "stateMutability": "nonpayable",
      "type": "function"
    },
    {
      "stateMutability": "payable",
      "type": "receive"
    }
  ],
  "bytecode": "0x60803461011d57601f611b9a38819003918201601f19168301916001600160401b038311848410176101215780849260209460405283398101031261011d57516001600160a01b0381169081900361011d57331561010a575f8054336001600160a01b0319821681178355916001600160a01b03909116907f8be0079c531659141344cd1fd0a4f28419497f9722a3daafe3b4186f6b6457e09080a360017f9b779b17422d0df92223018b32b4d1fa46e071723d6817e2486d003becc55f0055600280546001600160a01b0319169190911790556100dc33610135565b506100e6336101ab565b506100f03361023e565b506100fa336102d1565b5060405161179590816103658239f35b631e4fbdf760e01b5f525f60045260245ffd5b5f80fd5b634e487b7160e01b5f52604160045260245ffd5b6001600160a01b0381165f9081525f516020611b1a5f395f51905f52602052604090205460ff166101a6576001600160a01b03165f8181525f516020611b1a5f395f51905f5260205260408120805460ff191660011790553391905f516020611afa5f395f51905f528180a4600190565b505f90565b6001600160a01b0381165f9081525f516020611b3a5f395f51905f52602052604090205460ff166101a6576001600160a01b03165f8181525f516020611b3a5f395f51905f5260205260408120805460ff191660011790553391907fbcc3263fd89c254886b4ab68b74b8b9b572a1de9bca610a7430280b4e771685f905f516020611afa5f395f51905f529080a4600190565b6001600160a01b0381165f9081525f516020611b5a5f395f51905f52602052604090205460ff166101a6576001600160a01b03165f8181525f516020611b5a5f395f51905f5260205260408120805460ff191660011790553391907f9a656cc4e193e90c1efe4d1101966e3d66af824943c2bbd0ff5e34006d95b407905f516020611afa5f395f51905f529080a4600190565b6001600160a01b0381165f9081525f516020611b7a5f395f51905f52602052604090205460ff166101a6576001600160a01b03165f8181525f516020611b7a5f395f51905f5260205260408120805460ff191660011790553391907f7cb8da4815c5c7bfec597d7479bf1f02def0b6d0f50cd2ad5eb80c69ac5c1a1b905f516020611afa5f395f51905f529080a460019056fe608080604052600436101561001c575b50361561001a575f80fd5b005b5f3560e01c908163011f6626146110135750806301ffc9a714610fbd5780630ceff20414610f365780631a26fa0714610f13578063248a9ca314610ee85780632912ba5f14610c835780632f2ff15d14610c455780633321a65414610c0b57806336568abe14610bc75780635155c1bf14610ab5578063570846501461074a57806363fe1e081461071057806367031bae146106e8578063715018a61461069157806372f348f41461065b57806384c646c3146106335780638da5cb5b1461060c57806391d14854146105c35780639af82ce914610497578063a217fddf1461047d578063bb5c9b1114610452578063c2e2131414610433578063d547741f146103f0578063d8454a82146103d3578063dbb68800146102c1578063e1a84a30146102a5578063e4c085171461026d578063f19ceb6514610235578063f2fde38b146101b05763f672d4c014610172575f61000f565b346101ac575f3660031901126101ac5760206040517f7cb8da4815c5c7bfec597d7479bf1f02def0b6d0f50cd2ad5eb80c69ac5c1a1b8152f35b5f80fd5b346101ac5760203660031901126101ac576101c9611047565b6101d1611465565b6001600160a01b03168015610222575f80546001600160a01b03198116831782556001600160a01b0316907f8be0079c531659141344cd1fd0a4f28419497f9722a3daafe3b4186f6b6457e09080a3005b631e4fbdf760e01b5f525f60045260245ffd5b346101ac5760203660031901126101ac576001600160a01b03610256611047565b165f526006602052602060405f2054604051908152f35b346101ac5760203660031901126101ac576001600160a01b0361028e611047565b165f526005602052602060405f2054604051908152f35b346101ac575f3660031901126101ac576020604051610bb88152f35b346101ac5760403660031901126101ac576102da611047565b335f9081527fc24b2b6a100b77449eeed463f23b50ca60fb6c7685397bcfcec89dc3798f76bd6020526040902054602435919060ff161561039c576001600160a01b03169081156103645760407fbc4582036727a979a4f409a0a187e072bf4347aa206c08fac3213169d8c72fbf91835f52600560205280825f20558151908152426020820152a2005b60405162461bcd60e51b815260206004820152601060248201526f496e76616c696420627573696e65737360801b6044820152606490fd5b63e2517d3f60e01b5f52336004527fbcc3263fd89c254886b4ab68b74b8b9b572a1de9bca610a7430280b4e771685f60245260445ffd5b346101ac575f3660031901126101ac576020600454604051908152f35b346101ac5760403660031901126101ac5761001a60043561040f61105d565b9061042e610429825f526001602052600160405f20015490565b6114d0565b611596565b346101ac575f3660031901126101ac57602060405164e8d4a510008152f35b346101ac5760203660031901126101ac576020610475610470611047565b611434565b604051908152f35b346101ac575f3660031901126101ac5760206040515f8152f35b346101ac5760203660031901126101ac576001600160a01b036104b8611047565b16338114801561058c575b1561053d575f52600360205260405f2060405190606082019082821067ffffffffffffffff83111761052957606092604092835281549081815260ff60026001850154948560208501520154161515938491015260405192835260208301526040820152f35b634e487b7160e01b5f52604160045260245ffd5b60405162461bcd60e51b815260206004820152602160248201527f4e6f7420617574686f72697a656420746f207669657720746178207265636f726044820152601960fa1b6064820152608490fd5b50335f9081527ff7b30e9391563b8f655fa894c906bc634ddd86942c22ec7b124a942f29ab1e4a602052604090205460ff166104c3565b346101ac5760403660031901126101ac576105dc61105d565b6004355f52600160205260405f209060018060a01b03165f52602052602060ff60405f2054166040519015158152f35b346101ac575f3660031901126101ac575f546040516001600160a01b039091168152602090f35b346101ac5760203660031901126101ac5760043560068110156101ac5761047560209161140d565b346101ac5760403660031901126101ac5760043560068110156101ac5760243590600d8210156101ac5760209161047591611304565b346101ac575f3660031901126101ac576106a9611465565b5f80546001600160a01b0319811682556001600160a01b03167f8be0079c531659141344cd1fd0a4f28419497f9722a3daafe3b4186f6b6457e08280a3005b346101ac575f3660031901126101ac576002546040516001600160a01b039091168152602090f35b346101ac575f3660031901126101ac5760206040517fbcc3263fd89c254886b4ab68b74b8b9b572a1de9bca610a7430280b4e771685f8152f35b60203660031901126101ac5761075e611047565b61076661148b565b600254604051630484d76760e31b81526001600160a01b0390911690602081600481855afa90811561095b575f91610a83575b5060405190632474521560e21b82526004820152336024820152602081604481855afa90811561095b575f91610a64575b5015610a1f57604051638ed64d4160e01b81526001600160a01b038316600482018190529290602081602481865afa90811561095b575f916109f0575b50156109ab57610816906110c5565b906108228215156112a4565b8134106109665760206024916040519283809263356ea8eb60e21b82528760048301525afa90811561095b575f9161092c575b50825f526003602052600260405f2061086f8482546114c3565b815542600182015501600160ff1982541617905561088f826004546114c3565b600455604051828152600482101561091857606081859360207f45980aba8f38590c22918ce65d0f60c46a1e100ab9826ae1fe3a802fe1cbc41b940152426040820152a26040519081524260208201527f020f67c07682f5b64947342b7bad80dfdb7628405c6478ada34d4ec1e808795560403392a360015f5160206117405f395f51905f5255005b634e487b7160e01b5f52602160045260245ffd5b61094e915060203d602011610954575b6109468183611073565b810190611095565b83610855565b503d61093c565b6040513d5f823e3d90fd5b60405162461bcd60e51b815260206004820152601f60248201527f496e73756666696369656e742077697468686f6c64696e6720616d6f756e74006044820152606490fd5b60405162461bcd60e51b815260206004820152601a60248201527f456d706c6f796565206e6f74206175746f2d617070726f7665640000000000006044820152606490fd5b610a12915060203d602011610a18575b610a0a8183611073565b81019061128c565b84610807565b503d610a00565b60405162461bcd60e51b815260206004820152601a60248201527f4e6f7420616e20617574686f72697a656420656d706c6f7965720000000000006044820152606490fd5b610a7d915060203d602011610a1857610a0a8183611073565b836107ca565b90506020813d602011610aad575b81610a9e60209383611073565b810103126101ac575183610799565b3d9150610a91565b346101ac5760403660031901126101ac57610ace611047565b335f9081527fe0df82fdaef9a02b76124741ffe2d6678e9ab779c07569704d6c9f7fef3ef85e6020526040902054602435919060ff1615610b90576001600160a01b0316908115610b585760407fd483bbabdc89d89a0f5359309de7afa5116c3b488e13b21b9012a98c6ca4911b91835f52600660205280825f20558151908152426020820152a2005b60405162461bcd60e51b815260206004820152601060248201526f496e76616c696420656d706c6f79656560801b6044820152606490fd5b63e2517d3f60e01b5f52336004527f9a656cc4e193e90c1efe4d1101966e3d66af824943c2bbd0ff5e34006d95b40760245260445ffd5b346101ac5760403660031901126101ac57610be061105d565b336001600160a01b03821603610bfc5761001a90600435611596565b63334bd91960e11b5f5260045ffd5b346101ac575f3660031901126101ac5760206040517f9a656cc4e193e90c1efe4d1101966e3d66af824943c2bbd0ff5e34006d95b4078152f35b346101ac5760403660031901126101ac5761001a600435610c6461105d565b90610c7e610429825f526001602052600160405f20015490565b61150a565b5f3660031901126101ac57610c9661148b565b600254604051638ed64d4160e01b81523360048201526001600160a01b0390911690602081602481855afa90811561095b575f91610ec9575b5015610e845760206024916040519283809263356ea8eb60e21b82523360048301525afa90811561095b575f91610e65575b506004811015908161091857600281148015610e58575b15610dff57610d26336110c5565b91610d328315156112a4565b823410610dc357335f526003602052600260405f20610d528582546114c3565b815542600182015501600160ff19825416179055610d72836004546114c3565b6004556040519283526109185760208201524260408201527f45980aba8f38590c22918ce65d0f60c46a1e100ab9826ae1fe3a802fe1cbc41b60603392a260015f5160206117405f395f51905f5255005b60405162461bcd60e51b8152602060048201526014602482015273125b9cdd59999a58da595b9d081c185e5b595b9d60621b6044820152606490fd5b60405162461bcd60e51b815260206004820152602b60248201527f436974697a656e207061796d656e74732064697361626c656420666f7220746860448201526a69732063617465676f727960a81b6064820152608490fd5b505f915060038114610d18565b610e7e915060203d602011610954576109468183611073565b81610d01565b60405162461bcd60e51b815260206004820152601960248201527f436974697a656e206e6f74206175746f2d617070726f766564000000000000006044820152606490fd5b610ee2915060203d602011610a1857610a0a8183611073565b82610ccf565b346101ac5760203660031901126101ac5760206104756004355f526001602052600160405f20015490565b346101ac5760203660031901126101ac576020610475610f31611047565b6110c5565b346101ac5760203660031901126101ac57600435610f52611465565b478111610f81575f8080809360018060a01b03825416828215610f78575bf11561095b57005b506108fc610f70565b60405162461bcd60e51b8152602060048201526014602482015273496e73756666696369656e742062616c616e636560601b6044820152606490fd5b346101ac5760203660031901126101ac5760043563ffffffff60e01b81168091036101ac57602090637965db0b60e01b8114908115611002575b506040519015158152f35b6301ffc9a760e01b14905082610ff7565b346101ac5760203660031901126101ac576020906001600160a01b03611037611047565b165f526006825260405f20548152f35b600435906001600160a01b03821682036101ac57565b602435906001600160a01b03821682036101ac57565b90601f8019910116810190811067ffffffffffffffff82111761052957604052565b908160209103126101ac575160048110156101ac5790565b908160209103126101ac575160068110156101ac5790565b60025460405163356ea8eb60e21b81526001600160a01b0383811660048301819052921692602082602481875afa91821561095b575f9261126b575b506004821015610918578115611258576001821461124b57506002146111875760209060246040518094819363d8c6b3d960e01b835260048301525afa801561095b57611155915f91611158575b5061140d565b90565b61117a915060203d602011611180575b6111728183611073565b8101906110ad565b5f61114f565b503d611168565b60405163d8c6b3d960e01b8152600481018290529190602083602481855afa92831561095b575f93611229575b5060209060246040518094819363289c753560e11b835260048301525afa90811561095b575f916111ea575b5061115591611304565b90506020813d602011611221575b8161120560209383611073565b810103126101ac575190600d8210156101ac57906111556111e0565b3d91506111f8565b602091935061124490823d8411611180576111728183611073565b92906111b4565b9150506111559150611434565b505090505f52600660205260405f205490565b61128591925060203d602011610954576109468183611073565b905f611101565b908160209103126101ac575180151581036101ac5790565b156112ab57565b60405162461bcd60e51b815260206004820152600a6024820152694e6f207461782064756560b01b6044820152606490fd5b818102929181159184041417156112f057565b634e487b7160e01b5f52601160045260245ffd5b90600682101561091857816113bb57621e8480915b600d8210156109185761134982612710611342819661134f96155f1461136e57614e20906112dd565b049261161a565b906112dd565b0464e8d4a5100081029080820464e8d4a5100014901517156112f05790565b6007840361137f57613a98906112dd565b60028403611390576132c8906112dd565b600c84036113a157612ee0906112dd565b600884036113b2576130d4906112dd565b612cec906112dd565b600182036113cd576230d40091611319565b600282036113df5762186a0091611319565b600382036113f15762493e0091611319565b60048203611403576244aa2091611319565b622932e091611319565b611416906116eb565b64e8d4a5100081029080820464e8d4a5100014901517156112f05790565b60018060a01b03165f52600560205260405f2054610bb8810290808204610bb814901517156112f057612710900490565b5f546001600160a01b0316330361147857565b63118cdaa760e01b5f523360045260245ffd5b60025f5160206117405f395f51905f5254146114b45760025f5160206117405f395f51905f5255565b633ee5aeb560e01b5f5260045ffd5b919082018092116112f057565b5f81815260016020908152604080832033845290915290205460ff16156114f45750565b63e2517d3f60e01b5f523360045260245260445ffd5b5f8181526001602090815260408083206001600160a01b038616845290915290205460ff16611590575f8181526001602081815260408084206001600160a01b0396909616808552959091528220805460ff19169091179055339291907f2f8788117e7eff1d82e926ec794901d17c78024a50270940304540a733656f0d9080a4600190565b50505f90565b5f8181526001602090815260408083206001600160a01b038616845290915290205460ff1615611590575f8181526001602090815260408083206001600160a01b0395909516808452949091528120805460ff19169055339291907ff6391f5c32d9c69d2a47ea670b442974b53935d1edc7fd64eb21e047a839171b9080a4600190565b600681101561091857806116a1575060dc5b600d821015610918576116479180611668575060fa906114c3565b60c8811061166257610384811161165b5790565b5061038490565b5060c890565b6007810361167957506096906114c3565b6002810361168a57506064906114c3565b600c03611699576032906114c3565b604b906114c3565b600181036116b2575061020861162c565b600281036116c357506101a461162c565b600381036116d4575061026c61162c565b6004036116e3576102a861162c565b6101c261162c565b60068110156109185780156117395760018114611732576002811461172c57600381146117255760041461171f5761011890565b6101a490565b5061014090565b5060fa90565b5061012c90565b5060dc9056fe9b779b17422d0df92223018b32b4d1fa46e071723d6817e2486d003becc55f00a26469706673582212202eb078f429552e830938f6cb44ad1bb3571905da0c6882bf5eda7a043b5af9b864736f6c634300081c00332f8788117e7eff1d82e926ec794901d17c78024a50270940304540a733656f0da6eef7e35abe7026729641147f7915573c7e97b47efa546f5f6e3230263bcb49c24b2b6a100b77449eeed463f23b50ca60fb6c7685397bcfcec89dc3798f76bde0df82fdaef9a02b76124741ffe2d6678e9ab779c07569704d6c9f7fef3ef85ef7b30e9391563b8f655fa894c906bc634ddd86942c22ec7b124a942f29ab1e4a",
  "linkReferences": {},
  "deployedLinkReferences": {}
}